{
  "_format": "hh-sol-artifact-1",
  "contractName": "LiquidityPool",
  "sourceName": "contracts/defi/LiquidityPool.sol",
  "abi": [
    {
      "inputs": [
        {
          "internalType": "address",
          "name": "_token0",
          "type": "address"
        },
        {
          "internalType": "address",
          "name": "_token1",
          "type": "address"
        }
      ],
      "stateMutability": "nonpayable",
      "type": "constructor"
    },
    {
      "anonymous": false,
      "inputs": [
        {
          "indexed": true,
          "internalType": "address",
          "name": "to",
          "type": "address"
        },
        {
          "indexed": false,
          "internalType": "uint256",
          "name": "amount0",
          "type": "uint256"
        },
        {
          "indexed": false,
          "internalType": "uint256",
          "name": "amount1",
          "type": "uint256"
        }
      ],
      "name": "Burn",
      "type": "event"
    },
    {
      "anonymous": false,
      "inputs": [
        {
          "indexed": true,
          "internalType": "address",
          "name": "to",
          "type": "address"
        },
        {
          "indexed": false,
          "internalType": "uint256",
          "name": "amount",
          "type": "uint256"
        }
      ],
      "name": "Mint",
      "type": "event"
    },
    {
      "anonymous": false,
      "inputs": [
        {
          "indexed": true,
          "internalType": "address",
          "name": "to",
          "type": "address"
        },
        {
          "indexed": false,
          "internalType": "uint256",
          "name": "amount0In",
          "type": "uint256"
        },
        {
          "indexed": false,
          "internalType": "uint256",
          "name": "amount1In",
          "type": "uint256"
        },
        {
          "indexed": false,
          "internalType": "uint256",
          "name": "amount0Out",
          "type": "uint256"
        },
        {
          "indexed": false,
          "internalType": "uint256",
          "name": "amount1Out",
          "type": "uint256"
        }
      ],
      "name": "Swap",
      "type": "event"
    },
    {
      "anonymous": false,
      "inputs": [
        {
          "indexed": false,
          "internalType": "uint256",
          "name": "reserve0",
          "type": "uint256"
        },
        {
          "indexed": false,
          "internalType": "uint256",
          "name": "reserve1",
          "type": "uint256"
        }
      ],
      "name": "Sync",
      "type": "event"
    },
    {
      "inputs": [],
      "name": "FEE_DENOMINATOR",
      "outputs": [
        {
          "internalType": "uint256",
          "name": "",
          "type": "uint256"
        }
      ],
      "stateMutability": "view",
      "type": "function"
    },
    {
      "inputs": [],
      "name": "FEE_NUMERATOR",
      "outputs": [
        {
          "internalType": "uint256",
          "name": "",
          "type": "uint256"
        }
      ],
      "stateMutability": "view",
      "type": "function"
    },
    {
      "inputs": [],
      "name": "MINIMUM_LIQUIDITY",
      "outputs": [
        {
          "internalType": "uint256",
          "name": "",
          "type": "uint256"
        }
      ],
      "stateMutability": "view",
      "type": "function"
    },
    {
      "inputs": [
        {
          "internalType": "uint256",
          "name": "amount0",
          "type": "uint256"
        },
        {
          "internalType": "uint256",
          "name": "amount1",
          "type": "uint256"
        }
      ],
      "name": "addLiquidity",
      "outputs": [
        {
          "internalType": "uint256",
          "name": "liquidity",
          "type": "uint256"
        }
      ],
      "stateMutability": "nonpayable",
      "type": "function"
    },
    {
      "inputs": [
        {
          "internalType": "address",
          "name": "",
          "type": "address"
        }
      ],
      "name": "balanceOf",
      "outputs": [
        {
          "internalType": "uint256",
          "name": "",
          "type": "uint256"
        }
      ],
      "stateMutability": "view",
      "type": "function"
    },
    {
      "inputs": [
        {
          "internalType": "uint256",
          "name": "amountOut",
          "type": "uint256"
        },
        {
          "internalType": "uint256",
          "name": "reserveIn",
          "type": "uint256"
        },
        {
          "internalType": "uint256",
          "name": "reserveOut",
          "type": "uint256"
        }
      ],
      "name": "getAmountIn",
      "outputs": [
        {
          "internalType": "uint256",
          "name": "amountIn",
          "type": "uint256"
        }
      ],
      "stateMutability": "pure",
      "type": "function"
    },
    {
      "inputs": [
        {
          "internalType": "uint256",
          "name": "amountIn",
          "type": "uint256"
        },
        {
          "internalType": "uint256",
          "name": "reserveIn",
          "type": "uint256"
        },
        {
          "internalType": "uint256",
          "name": "reserveOut",
          "type": "uint256"
        }
      ],
      "name": "getAmountOut",
      "outputs": [
        {
          "internalType": "uint256",
          "name": "amountOut",
          "type": "uint256"
        }
      ],
      "stateMutability": "pure",
      "type": "function"
    },
    {
      "inputs": [],
      "name": "getPrice",
      "outputs": [
        {
          "internalType": "uint256",
          "name": "price0",
          "type": "uint256"
        },
        {
          "internalType": "uint256",
          "name": "price1",
          "type": "uint256"
        }
      ],
      "stateMutability": "view",
      "type": "function"
    },
    {
      "inputs": [],
      "name": "getReserves",
      "outputs": [
        {
          "internalType": "uint256",
          "name": "_reserve0",
          "type": "uint256"
        },
        {
          "internalType": "uint256",
          "name": "_reserve1",
          "type": "uint256"
        }
      ],
      "stateMutability": "view",
      "type": "function"
    },
    {
      "inputs": [
        {
          "internalType": "uint256",
          "name": "liquidity",
          "type": "uint256"
        }
      ],
      "name": "removeLiquidity",
      "outputs": [
        {
          "internalType": "uint256",
          "name": "amount0",
          "type": "uint256"
        },
        {
          "internalType": "uint256",
          "name": "amount1",
          "type": "uint256"
        }
      ],
      "stateMutability": "nonpayable",
      "type": "function"
    },
    {
      "inputs": [],
      "name": "reserve0",
      "outputs": [
        {
          "internalType": "uint256",
          "name": "",
          "type": "uint256"
        }
      ],
      "stateMutability": "view",
      "type": "function"
    },
    {
      "inputs": [],
      "name": "reserve1",
      "outputs": [
        {
          "internalType": "uint256",
          "name": "",
          "type": "uint256"
        }
      ],
      "stateMutability": "view",
      "type": "function"
    },
    {
      "inputs": [
        {
          "internalType": "address",
          "name": "to",
          "type": "address"
        }
      ],
      "name": "skim",
      "outputs": [],
      "stateMutability": "nonpayable",
      "type": "function"
    },
    {
      "inputs": [
        {
          "internalType": "uint256",
          "name": "amount0Out",
          "type": "uint256"
        },
        {
          "internalType": "uint256",
          "name": "amount1Out",
          "type": "uint256"
        },
        {
          "internalType": "address",
          "name": "to",
          "type": "address"
        }
      ],
      "name": "swap",
      "outputs": [],
      "stateMutability": "nonpayable",
      "type": "function"
    },
    {
      "inputs": [],
      "name": "token0",
      "outputs": [
        {
          "internalType": "contract IERC20Simple",
          "name": "",
          "type": "address"
        }
      ],
      "stateMutability": "view",
      "type": "function"
    },
    {
      "inputs": [],
      "name": "token1",
      "outputs": [
        {
          "internalType": "contract IERC20Simple",
          "name": "",
          "type": "address"
        }
      ],
      "stateMutability": "view",
      "type": "function"
    },
    {
      "inputs": [],
      "name": "totalSupply",
      "outputs": [
        {
          "internalType": "uint256",
          "name": "",
          "type": "uint256"
        }
      ],
      "stateMutability": "view",
      "type": "function"
    }
  ],
  "bytecode": "0x60c0346200017857601f620017ed38819003918201601f19168301916001600160401b038311848410176200017d57808492604094855283398101031262000178576200005a6020620000528362000193565b920162000193565b60016004556001600160a01b039182169190821515806200016c575b1562000138571690818114620000f35760805260a0526040516116449081620001a9823960805181818161016201528181610410015281816107fd01528181610dad01526112a8015260a05181818160f8015281816101a10152818161047c0152818161083901528181610e33015281816110e101526111e10152f35b60405162461bcd60e51b815260206004820152601360248201527f4944454e544943414c5f414444524553534553000000000000000000000000006044820152606490fd5b60405162461bcd60e51b815260206004820152600c60248201526b5a45524f5f4144445245535360a01b6044820152606490fd5b50818116151562000076565b600080fd5b634e487b7160e01b600052604160045260246000fd5b51906001600160a01b0382168203620001785756fe6040608081526004908136101561001557600080fd5b600090813560e01c928363054d50d4146112f95783630902f1ac146112d75783630dfe16811461129457836318160ddd1461127657836341cd47bf1461125b578363443cb4bc1461123f5783635a76f25e146112215783636d9a640a14610d4057836370a0823114610d0957836385f8c25914610c4f57836398d5fdca14610b7b5783639c8f9f231461079b5783639cd441da146103a4578363ba9a7a56146100e0578363bc25cf771461012b57508263d21220a7146100e557505063d73792a9146100e057600080fd5b61139d565b34610127578160031936011261012757517f00000000000000000000000000000000000000000000000000000000000000006001600160a01b03168152602090f35b5080fd5b3461035c57602090816003193601126103a057610146611387565b83516370a0823160e01b80825230848301526001600160a01b037f00000000000000000000000000000000000000000000000000000000000000008116949291889187846024818a5afa938415610367578394610371575b507f00000000000000000000000000000000000000000000000000000000000000001692885191825230858301528782602481875afa9687156103675788928498610332575b508354918281116102a6575b505050505060015492878486116102045780f35b6102128795610243976114dd565b885163a9059cbb60e01b81526001600160a01b03909316948301948552602085015290948593849291839160400190565b03925af1918215610299576102619350849261026c575b505061143f565b818080808080808780f35b61028b9250803d10610292575b61028381836113ef565b810190611427565b838061025a565b503d610279565b50505051903d90823e3d90fd5b6102e6926102b3916114dd565b8a5163a9059cbb60e01b81526001600160a01b038916888201908152602081019290925294859384928391604090910190565b03925af180156103285761030191899161030b575b5061143f565b86858980806101f0565b6103229150873d89116102925761028381836113ef565b896102fb565b87513d8a823e3d90fd5b8381949299503d8311610360575b61034a81836113ef565b8101031261035c57879151968b6101e4565b8280fd5b503d610340565b89513d85823e3d90fd5b9093508781813d8311610399575b61038981836113ef565b8101031261035c5751928a61019e565b503d61037f565b8380fd5b903461035c578060031936011261035c578135926024928335916001926103cd848454146113ba565b81835586151580610792575b156107595784516323b872dd60e01b8082523385830190815230602080830191909152604082018b90529991946001600160a01b037f000000000000000000000000000000000000000000000000000000000000000081169591949193929091908c90829081906060010381888a5af190811561074f5790610461918691610732575061143f565b885195865233878701908152306020820152604081018490527f00000000000000000000000000000000000000000000000000000000000000009190911695908b90829081906060010381878a5af190811561070b57906104c8918591610715575061143f565b8751938a858b816370a0823160e01b94858252308c8301525afa94851561070b57908b9185966106da575b508a8a51809881938252308b8301525afa9485156106d05783956106a1575b5060025480610660575090610526916114aa565b81600382111561065357508080871c87810180911161064157905b8282106106235750505b6103e71981019081116106115796818052600389526103e8878320555b87156105d05750908561059f9392610582896002546114ea565b60025533815260038a52206105988882546114ea565b90556115d4565b82518481527f0f6798a560793a54c3bcfe86a93cde1e73087d944c0ea20544137d4121396885863392a25551908152f35b84601d6064928b8a519362461bcd60e51b85528401528201527f494e53554646494349454e545f4c49515549444954595f4d494e5445440000006044820152fd5b634e487b7160e01b8252601185528782fd5b9091506106398261063481846114bd565b6114ea565b871c90610541565b634e487b7160e01b8452601187528984fd5b901561054b57508461054b565b8061067c6106746106829361068a956114aa565b8654906114bd565b936114aa565b8754906114bd565b8082101561069a57505b96610568565b9050610694565b9094508981813d83116106c9575b6106b981836113ef565b8101031261035c5751938a610512565b503d6106af565b88513d85823e3d90fd5b8281939297503d8311610704575b6106f281836113ef565b810103126103a0578a9051948c6104f3565b503d6106e8565b89513d86823e3d90fd5b61072c91508c8d3d106102925761028381836113ef565b8c6102fb565b61074991508d803d106102925761028381836113ef565b8d6102fb565b8a513d87823e3d90fd5b845162461bcd60e51b815260208185015260148188015273494e53554646494349454e545f414d4f554e545360601b6044820152606490fd5b508015156103d9565b8290346101275760208060031936011261035c578135916107bf60018254146113ba565b8381556107cd8315156114f7565b33845260038252828585205410610b435784516370a0823160e01b80825230838301529094906001600160a01b037f0000000000000000000000000000000000000000000000000000000000000000811691908588602481865afa97881561070b578498610b14575b507f0000000000000000000000000000000000000000000000000000000000000000169188519782895230868a01528689602481875afa98891561074f578599610adf575b506108896108a591896114aa565b6108a061089960025480936114bd565b9a8a6114aa565b6114bd565b9688151580610ad6575b15610a93576108d790338652600388528a86206108cd8282546114dd565b90556002546114dd565b600255885163a9059cbb60e01b80825233878301908152602081018b9052909190889082908190604001038189875af1908115610a89579061091f918791610a72575061143f565b89519081523386820190815260208101899052879082908190604001038188885af190811561074f579161095f889260249695948891610a5b575061143f565b8a5194858092858252308a8301525afa92831561070b579086918594610a2a575b5060248a5180948193825230898301525afa928315610a1f5780936109e9575b5050600192916109af916115d4565b855185815284848201527f49995e5dd6158cf69ad3e9777c46755a1a826a446c6416992167462dad033b2a873392a2558351928352820152f35b909192508482813d8311610a18575b610a0281836113ef565b81010312610a15575051908060016109a0565b80fd5b503d6109f8565b8851903d90823e3d90fd5b8281939295503d8311610a54575b610a4281836113ef565b810103126103a057859051928a610980565b503d610a38565b6107499150843d86116102925761028381836113ef565b61072c9150893d8b116102925761028381836113ef565b8b513d88823e3d90fd5b895162461bcd60e51b8152808701889052601d60248201527f494e53554646494349454e545f4c49515549444954595f4255524e45440000006044820152606490fd5b508715156108af565b9098508681813d8311610b0d575b610af781836113ef565b81010312610b0957519761088961087b565b8480fd5b503d610aed565b9097508581813d8311610b3c575b610b2c81836113ef565b810103126103a057519689610836565b503d610b22565b60649185519162461bcd60e51b83528201526014602482015273494e53554646494349454e545f42414c414e434560601b6044820152fd5b9134610a155780600319360112610a1557805490811591821580610c44575b15610c125760015491670de0b6b3a764000093848402848104861485151715610bff5783610bc7916114bd565b94808402938404141715610bec575090610be0916114bd565b82519182526020820152f35b634e487b7160e01b815260118652602490fd5b634e487b7160e01b835260118852602483fd5b835162461bcd60e51b8152602081870152600c60248201526b4e4f5f4c495155494449545960a01b6044820152606490fd5b506001541515610b9a565b92503461012757610c93610c6236611368565b92908290610c7182151561153c565b80151580610d00575b610c83906114f7565b610c8e8583106114f7565b6114aa565b916103e892838102938185041490151715610ced57610cb9610cc49392610cbe926114dd565b61147d565b906114bd565b9160018301809311610cda576020838351908152f35b634e487b7160e01b815260118452602490fd5b634e487b7160e01b855260118652602485fd5b50841515610c7a565b50346101275760203660031901126101275760209181906001600160a01b03610d30611387565b1681526003845220549051908152f35b829034610127576060366003190112610127576001600160a01b036044358181169160249182359185359185810361121d57610d7f60018854146113ba565b87875582159081158092611214575b610d979061153c565b8854841080611209575b610daa906114f7565b827f0000000000000000000000000000000000000000000000000000000000000000169182881415806111dd575b156111ae579084898c8894611140575b505050816110ab575b505088519182916370a0823160e01b90818452308a850152838860209586935afa9384156110a1578a9461106e575b508290878c51809481938252308d8301527f0000000000000000000000000000000000000000000000000000000000000000165afa908115611064578991611033575b50885492610e7185856114dd565b81111561102c57610e8b610e8586866114dd565b826114dd565b965b60015494610e9b88876114dd565b84111561102557610eb5610eaf89886114dd565b856114dd565b955b891580158161101c575b610eca90611588565b6103e890818602868104831487151715610ff55760038d02918d83046003141715610ff55790610ef9916114dd565b908087029087820414871517156110095760038902908982046003148a151715610ff55791610f2f610f3592610f3b95946114dd565b906114aa565b926114aa565b90620f424091828102928184041490151715610fe35710610fa25750927f49926bbebe8474393f434dfa4f78694c0923efa07d19f2284518bfabd06eb737969492610f8d60019b9c93608098966115d4565b82519586528501528301526060820152a25580f35b89601a606492868f519362461bcd60e51b85528401528201527f434f4e5354414e545f50524f445543545f56494f4c4154494f4e0000000000006044820152fd5b634e487b7160e01b8d5260118c52828dfd5b5050634e487b7160e01b8e5260118d52838efd5b50634e487b7160e01b8e5260118d52838efd5b50871515610ec1565b8b95610eb7565b8996610e8d565b90508181813d831161105d575b61104a81836113ef565b8101031261105957518a610e63565b8880fd5b503d611040565b8a513d8b823e3d90fd5b9093508281813d831161109a575b61108681836113ef565b8101031261109657519282610e20565b8980fd5b503d61107c565b8b513d8c823e3d90fd5b8a5163a9059cbb60e01b81526001600160a01b039091168982019081526020818101939093529091908290819060400103818c877f0000000000000000000000000000000000000000000000000000000000000000165af1908115611064579061111b918a91611122575061143f565b838a610df1565b61113a915060203d81116102925761028381836113ef565b8b6102fb565b5163a9059cbb60e01b81526001600160a01b0384169181019182526020828101939093529293508290819060400103818d875af19081156110a15786929161118e918c91611196575061143f565b84898c610de8565b610749915060203d81116102925761028381836113ef565b8a5162461bcd60e51b81526020818b0152600a8189015269494e56414c49445f544f60b01b6044820152606490fd5b50837f000000000000000000000000000000000000000000000000000000000000000016881415610dd8565b506001548510610da1565b50841515610d8e565b8780fd5b50346101275781600319360112610127576020906001549051908152f35b5034610127578160031936011261012757602091549051908152f35b50346101275781600319360112610127576020905160038152f35b50346101275781600319360112610127576020906002549051908152f35b5034610127578160031936011261012757517f00000000000000000000000000000000000000000000000000000000000000006001600160a01b03168152602090f35b509034610a155780600319360112610a15575460015482519182526020820152f35b9134610a155761130836611368565b9192611315841515611588565b61133661132f83159586158061135f575b610cb9906114f7565b93846114aa565b936103e8808402938404141715610bec5760208561135886610cbe87876114ea565b9051908152f35b50851515611326565b606090600319011261138257600435906024359060443590565b600080fd5b600435906001600160a01b038216820361138257565b346113825760003660031901126113825760206040516103e88152f35b156113c157565b60405162461bcd60e51b81526020600482015260066024820152651313d0d2d15160d21b6044820152606490fd5b90601f8019910116810190811067ffffffffffffffff82111761141157604052565b634e487b7160e01b600052604160045260246000fd5b90816020910312611382575180151581036113825790565b1561144657565b60405162461bcd60e51b815260206004820152600f60248201526e1514905394d1915497d19052531151608a1b6044820152606490fd5b906103e59182810292818404149015171561149457565b634e487b7160e01b600052601160045260246000fd5b8181029291811591840414171561149457565b81156114c7570490565b634e487b7160e01b600052601260045260246000fd5b9190820391821161149457565b9190820180921161149457565b156114fe57565b60405162461bcd60e51b8152602060048201526016602482015275494e53554646494349454e545f4c495155494449545960501b6044820152606490fd5b1561154357565b60405162461bcd60e51b815260206004820152601a60248201527f494e53554646494349454e545f4f55545055545f414d4f554e540000000000006044820152606490fd5b1561158f57565b60405162461bcd60e51b815260206004820152601960248201527f494e53554646494349454e545f494e5055545f414d4f554e54000000000000006044820152606490fd5b6040907fcf2aa50876cdfbb541206f89af0ee78d44a2abf8d328e37fa4917f982149848a92816000558060015582519182526020820152a156fea26469706673582212205dfc489433dbd2832d2c9ba16936d4b88d1ee454071f0929ebbb384a2d91007d64736f6c63430008130033",
  "linkReferences": {},
  "deployedLinkReferences": {}
}