{
  "_format": "hh-sol-artifact-1",
  "contractName": "MultiSigWallet",
  "sourceName": "contracts/core/MultiSigWallet.sol",
  "abi": [
    {
      "inputs": [
        {
          "internalType": "address[]",
          "name": "_owners",
          "type": "address[]"
        },
        {
          "internalType": "uint256",
          "name": "_numConfirmationsRequired",
          "type": "uint256"
        }
      ],
      "stateMutability": "nonpayable",
      "type": "constructor"
    },
    {
      "anonymous": false,
      "inputs": [
        {
          "indexed": true,
          "internalType": "address",
          "name": "owner",
          "type": "address"
        },
        {
          "indexed": true,
          "internalType": "uint256",
          "name": "txIndex",
          "type": "uint256"
        }
      ],
      "name": "ConfirmTransaction",
      "type": "event"
    },
    {
      "anonymous": false,
      "inputs": [
        {
          "indexed": true,
          "internalType": "address",
          "name": "sender",
          "type": "address"
        },
        {
          "indexed": false,
          "internalType": "uint256",
          "name": "amount",
          "type": "uint256"
        },
        {
          "indexed": false,
          "internalType": "uint256",
          "name": "balance",
          "type": "uint256"
        }
      ],
      "name": "Deposit",
      "type": "event"
    },
    {
      "anonymous": false,
      "inputs": [
        {
          "indexed": true,
          "internalType": "address",
          "name": "owner",
          "type": "address"
        },
        {
          "indexed": true,
          "internalType": "uint256",
          "name": "txIndex",
          "type": "uint256"
        }
      ],
      "name": "ExecuteTransaction",
      "type": "event"
    },
    {
      "anonymous": false,
      "inputs": [
        {
          "indexed": true,
          "internalType": "address",
          "name": "owner",
          "type": "address"
        }
      ],
      "name": "OwnerAdded",
      "type": "event"
    },
    {
      "anonymous": false,
      "inputs": [
        {
          "indexed": true,
          "internalType": "address",
          "name": "owner",
          "type": "address"
        }
      ],
      "name": "OwnerRemoved",
      "type": "event"
    },
    {
      "anonymous": false,
      "inputs": [
        {
          "indexed": false,
          "internalType": "uint256",
          "name": "required",
          "type": "uint256"
        }
      ],
      "name": "RequirementChanged",
      "type": "event"
    },
    {
      "anonymous": false,
      "inputs": [
        {
          "indexed": true,
          "internalType": "address",
          "name": "owner",
          "type": "address"
        },
        {
          "indexed": true,
          "internalType": "uint256",
          "name": "txIndex",
          "type": "uint256"
        }
      ],
      "name": "RevokeConfirmation",
      "type": "event"
    },
    {
      "anonymous": false,
      "inputs": [
        {
          "indexed": true,
          "internalType": "address",
          "name": "owner",
          "type": "address"
        },
        {
          "indexed": true,
          "internalType": "uint256",
          "name": "txIndex",
          "type": "uint256"
        },
        {
          "indexed": true,
          "internalType": "address",
          "name": "to",
          "type": "address"
        },
        {
          "indexed": false,
          "internalType": "uint256",
          "name": "value",
          "type": "uint256"
        },
        {
          "indexed": false,
          "internalType": "bytes",
          "name": "data",
          "type": "bytes"
        }
      ],
      "name": "SubmitTransaction",
      "type": "event"
    },
    {
      "inputs": [],
      "name": "EXECUTION_DELAY",
      "outputs": [
        {
          "internalType": "uint256",
          "name": "",
          "type": "uint256"
        }
      ],
      "stateMutability": "view",
      "type": "function"
    },
    {
      "inputs": [],
      "name": "MAX_OWNERS",
      "outputs": [
        {
          "internalType": "uint256",
          "name": "",
          "type": "uint256"
        }
      ],
      "stateMutability": "view",
      "type": "function"
    },
    {
      "inputs": [
        {
          "internalType": "address",
          "name": "owner",
          "type": "address"
        }
      ],
      "name": "addOwner",
      "outputs": [],
      "stateMutability": "nonpayable",
      "type": "function"
    },
    {
      "inputs": [
        {
          "internalType": "uint256",
          "name": "_required",
          "type": "uint256"
        }
      ],
      "name": "changeRequirement",
      "outputs": [],
      "stateMutability": "nonpayable",
      "type": "function"
    },
    {
      "inputs": [
        {
          "internalType": "uint256",
          "name": "_txIndex",
          "type": "uint256"
        }
      ],
      "name": "confirmTransaction",
      "outputs": [],
      "stateMutability": "nonpayable",
      "type": "function"
    },
    {
      "inputs": [
        {
          "internalType": "address payable",
          "name": "recipient",
          "type": "address"
        },
        {
          "internalType": "uint256",
          "name": "amount",
          "type": "uint256"
        }
      ],
      "name": "emergencyWithdraw",
      "outputs": [],
      "stateMutability": "nonpayable",
      "type": "function"
    },
    {
      "inputs": [
        {
          "internalType": "uint256",
          "name": "_txIndex",
          "type": "uint256"
        }
      ],
      "name": "executeTransaction",
      "outputs": [],
      "stateMutability": "nonpayable",
      "type": "function"
    },
    {
      "inputs": [
        {
          "internalType": "uint256",
          "name": "",
          "type": "uint256"
        }
      ],
      "name": "executionTime",
      "outputs": [
        {
          "internalType": "uint256",
          "name": "",
          "type": "uint256"
        }
      ],
      "stateMutability": "view",
      "type": "function"
    },
    {
      "inputs": [],
      "name": "getBalance",
      "outputs": [
        {
          "internalType": "uint256",
          "name": "",
          "type": "uint256"
        }
      ],
      "stateMutability": "view",
      "type": "function"
    },
    {
      "inputs": [],
      "name": "getOwners",
      "outputs": [
        {
          "internalType": "address[]",
          "name": "",
          "type": "address[]"
        }
      ],
      "stateMutability": "view",
      "type": "function"
    },
    {
      "inputs": [],
      "name": "getPendingTransactions",
      "outputs": [
        {
          "internalType": "uint256[]",
          "name": "",
          "type": "uint256[]"
        }
      ],
      "stateMutability": "view",
      "type": "function"
    },
    {
      "inputs": [
        {
          "internalType": "uint256",
          "name": "_txIndex",
          "type": "uint256"
        }
      ],
      "name": "getTransaction",
      "outputs": [
        {
          "internalType": "address",
          "name": "to",
          "type": "address"
        },
        {
          "internalType": "uint256",
          "name": "value",
          "type": "uint256"
        },
        {
          "internalType": "bytes",
          "name": "data",
          "type": "bytes"
        },
        {
          "internalType": "bool",
          "name": "executed",
          "type": "bool"
        },
        {
          "internalType": "uint256",
          "name": "numConfirmations",
          "type": "uint256"
        },
        {
          "internalType": "uint256",
          "name": "submissionTime",
          "type": "uint256"
        },
        {
          "internalType": "string",
          "name": "description",
          "type": "string"
        }
      ],
      "stateMutability": "view",
      "type": "function"
    },
    {
      "inputs": [],
      "name": "getTransactionCount",
      "outputs": [
        {
          "internalType": "uint256",
          "name": "",
          "type": "uint256"
        }
      ],
      "stateMutability": "view",
      "type": "function"
    },
    {
      "inputs": [
        {
          "internalType": "uint256",
          "name": "",
          "type": "uint256"
        },
        {
          "internalType": "address",
          "name": "",
          "type": "address"
        }
      ],
      "name": "isConfirmed",
      "outputs": [
        {
          "internalType": "bool",
          "name": "",
          "type": "bool"
        }
      ],
      "stateMutability": "view",
      "type": "function"
    },
    {
      "inputs": [
        {
          "internalType": "address",
          "name": "",
          "type": "address"
        }
      ],
      "name": "isOwner",
      "outputs": [
        {
          "internalType": "bool",
          "name": "",
          "type": "bool"
        }
      ],
      "stateMutability": "view",
      "type": "function"
    },
    {
      "inputs": [
        {
          "internalType": "uint256",
          "name": "_txIndex",
          "type": "uint256"
        },
        {
          "internalType": "address",
          "name": "_owner",
          "type": "address"
        }
      ],
      "name": "isTransactionConfirmed",
      "outputs": [
        {
          "internalType": "bool",
          "name": "",
          "type": "bool"
        }
      ],
      "stateMutability": "view",
      "type": "function"
    },
    {
      "inputs": [],
      "name": "numConfirmationsRequired",
      "outputs": [
        {
          "internalType": "uint256",
          "name": "",
          "type": "uint256"
        }
      ],
      "stateMutability": "view",
      "type": "function"
    },
    {
      "inputs": [
        {
          "internalType": "uint256",
          "name": "",
          "type": "uint256"
        }
      ],
      "name": "owners",
      "outputs": [
        {
          "internalType": "address",
          "name": "",
          "type": "address"
        }
      ],
      "stateMutability": "view",
      "type": "function"
    },
    {
      "inputs": [
        {
          "internalType": "address",
          "name": "owner",
          "type": "address"
        }
      ],
      "name": "removeOwner",
      "outputs": [],
      "stateMutability": "nonpayable",
      "type": "function"
    },
    {
      "inputs": [
        {
          "internalType": "uint256",
          "name": "_txIndex",
          "type": "uint256"
        }
      ],
      "name": "revokeConfirmation",
      "outputs": [],
      "stateMutability": "nonpayable",
      "type": "function"
    },
    {
      "inputs": [
        {
          "internalType": "address",
          "name": "_to",
          "type": "address"
        },
        {
          "internalType": "uint256",
          "name": "_value",
          "type": "uint256"
        },
        {
          "internalType": "bytes",
          "name": "_data",
          "type": "bytes"
        },
        {
          "internalType": "string",
          "name": "_description",
          "type": "string"
        }
      ],
      "name": "submitTransaction",
      "outputs": [],
      "stateMutability": "nonpayable",
      "type": "function"
    },
    {
      "inputs": [
        {
          "internalType": "uint256",
          "name": "",
          "type": "uint256"
        }
      ],
      "name": "transactions",
      "outputs": [
        {
          "internalType": "address",
          "name": "to",
          "type": "address"
        },
        {
          "internalType": "uint256",
          "name": "value",
          "type": "uint256"
        },
        {
          "internalType": "bytes",
          "name": "data",
          "type": "bytes"
        },
        {
          "internalType": "bool",
          "name": "executed",
          "type": "bool"
        },
        {
          "internalType": "uint256",
          "name": "numConfirmations",
          "type": "uint256"
        },
        {
          "internalType": "uint256",
          "name": "submissionTime",
          "type": "uint256"
        },
        {
          "internalType": "string",
          "name": "description",
          "type": "string"
        }
      ],
      "stateMutability": "view",
      "type": "function"
    },
    {
      "stateMutability": "payable",
      "type": "receive"
    }
  ],
  "bytecode": "0x60406080815234620003155762001a94803803806200001e816200031a565b9283398101918082840312620003155781516001600160401b039390848111620003155783019281601f8501121562000315578351948511620001885760059185831b6020958680620000738185016200031a565b809a81520192820101928311620003155790868094939201905b828210620002e957505050015193805115620002b35784151580620002a7575b15620002525760148151116200021c5760005b8151811015620002095780831b82018501516001600160a01b03168015620001d55780600052600180875260ff8660002054166200019e576000828152818852868120805460ff1916831790555490680100000000000000008210156200018857810180600055811015620001725760008080528790200180546001600160a01b031916909117905560001981146200015c57600101620000c0565b634e487b7160e01b600052601160045260246000fd5b634e487b7160e01b600052603260045260246000fd5b634e487b7160e01b600052604160045260246000fd5b855162461bcd60e51b815260048101889052601060248201526f4f776e6572206e6f7420756e6971756560801b6044820152606490fd5b845162461bcd60e51b815260048101879052600d60248201526c24b73b30b634b21037bbb732b960991b6044820152606490fd5b8386600255516117539081620003418239f35b825162461bcd60e51b815260048101859052600f60248201526e546f6f206d616e79206f776e65727360881b6044820152606490fd5b825162461bcd60e51b815260048101859052602860248201527f496e76616c6964206e756d626572206f6620726571756972656420636f6e6669604482015267726d6174696f6e7360c01b6064820152608490fd5b508051851115620000ad565b825162461bcd60e51b815260048101859052600f60248201526e13dddb995c9cc81c995c5d5a5c9959608a1b6044820152606490fd5b815193945091929091906001600160a01b0381168103620003155781528693929184019084016200008d565b600080fd5b6040519190601f01601f191682016001600160401b03811183821017620001885760405256fe6080604052600436101561004e575b361561001957600080fd5b476040519034825260208201527f90890809c654f11d6e72a28fa60149770a0d11ec6c92319d6ceb2bb0a4ea1a1560403392a2005b60003560e01c8063025e7c27146111105780630b8bb146146110f457806312065fe0146110d8578063173825d914610f5657806320ea8d8614610e405780632e7700f014610e225780632f54bf6e14610de357806333ea3dc814610d6e57806337f135d714610d5057806346e24b08146109c75780637065cb481461083557806380f59a651461027857806395ccea67146107525780639ace38c2146106bc578063a0e67e2b146105f5578063ba51a6df14610550578063c01a8c84146103fa578063ca2a65ad146103ce578063d0549b85146103b0578063d11db83f146102c5578063e4d8e85c146102785763ee22610b0361000e57346102735760203660031901126102735760043533600052600160205261017360ff604060002054166113ed565b610180600354821061147c565b61019a60ff6003610190846112cc565b50015416156114c8565b6101a3816112cc565b5060048101546002541161022e57600501546201518081018091116102185742106101d3576101d190611514565b005b60405162461bcd60e51b815260206004820152601760248201527f457865637574696f6e2064656c6179206e6f74206d65740000000000000000006044820152606490fd5b634e487b7160e01b600052601160045260246000fd5b60405162461bcd60e51b815260206004820152601a60248201527f43616e6e6f742065786563757465207472616e73616374696f6e0000000000006044820152606490fd5b600080fd5b34610273576040366003190112610273576102916111b2565b600435600052600460205260406000209060018060a01b0316600052602052602060ff604060002054166040519015158152f35b346102735760003660031901126102735760038054906102e4826116d7565b9160009160005b828110610371575050506102fe816116d7565b9160005b82811061034d5783604051809160208083018184528251809152816040850193019160005b82811061033657505050500390f35b835185528695509381019392810192600101610327565b8061035b61036c9284611709565b516103668287611709565b526116b0565b610302565b60ff8261037d836112cc565b5001541615610395575b610390906116b0565b6102eb565b926103a881856103666103909489611709565b939050610387565b34610273576000366003190112610273576020600254604051908152f35b346102735760203660031901126102735760043560005260056020526020604060002054604051908152f35b346102735760208060031936011261027357600435336000526001825261042860ff604060002054166113ed565b610435600354821061147c565b61044560ff6003610190846112cc565b8060005260048252604060002033600052825260ff6040600020541661050b5761046e816112cc565b5060048101805460018101809111610218578155826000526004845260406000203360005284526040600020600160ff1982541617905582337f5cbe105e36805f7820e291f799d5794ff948af2a5f664e580382defb63390041600080a35460025411156104d857005b6005015491620151808301809311610218574283116104fc57506101d19150611514565b60059160005252604060002055005b60405162461bcd60e51b815260048101839052601d60248201527f5472616e73616374696f6e20616c726561647920636f6e6669726d65640000006044820152606490fd5b346102735760203660031901126102735760043561056f303314611664565b801515806105e9575b156105ae576020817facbdb084c721332ac59f9b8e392196c9eb0e4932862da8eb9beaf0dad4f550da92600255604051908152a1005b60405162461bcd60e51b8152602060048201526013602482015272125b9d985b1a59081c995c5d5a5c995b595b9d606a1b6044820152606490fd5b50600054811115610578565b34610273576000366003190112610273576040518060005480835260208093018091600080527f290decd9548b62a8d60345a988386fc84ba6bc95484008f6362f93160ef3e5639060005b8682821061069f57868661065682880383611257565b604051928392818401908285525180915260408401929160005b82811061067f57505050500390f35b83516001600160a01b031685528695509381019392810192600101610670565b83546001600160a01b031685529093019260019283019201610640565b3461027357602036600319011261027357600435600354811015610273576106e3906112cc565b5060018060a01b0381541661074e60066001840154936040516107148161070d8160028601611357565b0382611257565b60ff60038301541660048301549161074260058501549461073b6040518098819301611357565b0386611257565b60405197889788611208565b0390f35b34610273576040366003190112610273576004356001600160a01b038116908190036102735760243590610787303314611664565b80156107fc574782116107c057600080809381938282156107b7575bf1156107ab57005b6040513d6000823e3d90fd5b506108fc6107a3565b60405162461bcd60e51b8152602060048201526014602482015273496e73756666696369656e742062616c616e636560601b6044820152606490fd5b60405162461bcd60e51b8152602060048201526011602482015270125b9d985b1a59081c9958da5c1a595b9d607a1b6044820152606490fd5b34610273576020806003193601126102735761084f61119c565b61085a303314611664565b6001600160a01b03811691821561099357826000526001815260ff6040600020541661095857601460005410156109225760019083600052526040600020600160ff1982541617905560005490600160401b82101561090c576108c68260016108e59401600055611152565b90919082549060031b9160018060a01b03809116831b921b1916179055565b7f994a936646fe87ffe4f1e469d3d6aa417d6b855598397f323de5b449f765f0c3600080a2005b634e487b7160e01b600052604160045260246000fd5b6064906040519062461bcd60e51b82526004820152600f60248201526e546f6f206d616e79206f776e65727360881b6044820152fd5b6064906040519062461bcd60e51b8252600482015260146024820152734f776e657220616c72656164792065786973747360601b6044820152fd5b6064906040519062461bcd60e51b82526004820152600d60248201526c24b73b30b634b21037bbb732b960991b6044820152fd5b34610273576080366003190112610273576109e061119c565b60443567ffffffffffffffff8111610273573660238201121561027357610a11903690602481600401359101611295565b60643567ffffffffffffffff8111610273573660238201121561027357610a42903690602481600401359101611295565b90336000526001602052610a5d60ff604060002054166113ed565b6003549160405160e0810181811067ffffffffffffffff82111761090c5760405260018060a01b0391828616825260208201906024358252604083019085825260006060850152600060808501524260a085015260c0840152600160401b86101561090c5760018601600355610ad2866112cc565b929092610d3a57835183546001600160a01b0319169086161783555160018301555180519067ffffffffffffffff821161090c57610b2082610b17600286015461131d565b60028601611428565b602090601f8311600114610cc557918060c09492600694600092610cba575b50508160011b916000199060031b1c19161760028201555b600381016060850151151560ff801983541691161790556080840151600482015560a084015160058201550191015180519067ffffffffffffffff821161090c57610bac82610ba6855461131d565b85611428565b602090601f8311600114610c2f577fd5a05bf70715ad82a09a756320284a1b54c9ff74cd0f8cce6219e79b563fe59d9493929160009183610c24575b50508160011b916000199060031b1c19161790555b60405194602435865260406020870152169380610c1f339460408301906111c8565b0390a4005b015190508880610be8565b90601f198316918460005260206000209260005b818110610ca257509160019391857fd5a05bf70715ad82a09a756320284a1b54c9ff74cd0f8cce6219e79b563fe59d9897969410610c89575b505050811b019055610bfd565b015160001960f88460031b161c19169055888080610c7c565b92936020600181928786015181550195019301610c43565b015190508a80610b3f565b906002840160005260206000209160005b601f1985168110610d2257509260c0949260019260069583601f19811610610d09575b505050811b016002820155610b57565b015160001960f88460031b161c191690558a8080610cf9565b91926020600181928685015181550194019201610cd6565b634e487b7160e01b600052600060045260246000fd5b34610273576000366003190112610273576020604051620151808152f35b3461027357602036600319011261027357610d8a6004356112cc565b5060018060a01b0381541661074e600660018401549360ff60038201541660048201549060058301549261074260405191610dd383610dcc8160028501611357565b0384611257565b61073b6040518098819301611357565b34610273576020366003190112610273576001600160a01b03610e0461119c565b166000526001602052602060ff604060002054166040519015158152f35b34610273576000366003190112610273576020600354604051908152f35b346102735760208060031936011261027357600435903360005260018152610e6f60ff604060002054166113ed565b610e7c600354831061147c565b610e8c60ff6003610190856112cc565b8160005260048152604060002033600052815260ff6040600020541615610f12576004610eb8836112cc565b50018054600019810191908211610218575581600052600481526040600020903360005252604060002060ff198154169055337ff0dca620e2e81f7841d07bcc105e1704fb01475b278a9d4c236e1c62945edd55600080a3005b6064906040519062461bcd60e51b82526004820152601960248201527f5472616e73616374696f6e206e6f7420636f6e6669726d6564000000000000006044820152fd5b3461027357602036600319011261027357610f6f61119c565b610f7a303314611664565b60018060a01b03809116908160005260019081602052610fa160ff604060002054166113ed565b600054600254101561109d576000838152602083905260408120805460ff19169055825b610ff2575b837f58619076adf5bb0943d100ef88d52d7c3fd691b19d3a9071b555b651fbf418da600080a2005b600054808210156110975782908561100984611152565b939054600394851b1c1614611029575050611023906116b0565b82610fc5565b90935060001991828201918211610218576108c68461104a61105794611152565b905490881b1c1691611152565b600054801561108157019161106b83611152565b81939154921b1b19169055600055818080610fca565b634e487b7160e01b600052603160045260246000fd5b50610fca565b60405162461bcd60e51b815260206004820152601360248201527221b0b73737ba103932b6b7bb329037bbb732b960691b6044820152606490fd5b3461027357600036600319011261027357602047604051908152f35b3461027357600036600319011261027357602060405160148152f35b346102735760203660031901126102735760043560005481101561027357611139602091611152565b905460405160039290921b1c6001600160a01b03168152f35b906000918254811015611188578280527f290decd9548b62a8d60345a988386fc84ba6bc95484008f6362f93160ef3e563019190565b634e487b7160e01b83526032600452602483fd5b600435906001600160a01b038216820361027357565b602435906001600160a01b038216820361027357565b919082519283825260005b8481106111f4575050826000602080949584010152601f8019910116010190565b6020818301810151848301820152016111d3565b9395926112549795926112359260018060a01b03168652602086015260e0604086015260e08501906111c8565b9415156060840152608083015260a082015260c08184039101526111c8565b90565b90601f8019910116810190811067ffffffffffffffff82111761090c57604052565b67ffffffffffffffff811161090c57601f01601f191660200190565b9291926112a182611279565b916112af6040519384611257565b829481845281830111610273578281602093846000960137010152565b600354811015611307576007906003600052027fc2575a0e9e593c00f959f8c92f12db2869c3395a3b0502d05e2516446f71f85b0190600090565b634e487b7160e01b600052603260045260246000fd5b90600182811c9216801561134d575b602083101461133757565b634e487b7160e01b600052602260045260246000fd5b91607f169161132c565b90600092918054916113688361131d565b9182825260019384811690816000146113ca575060011461138a575b50505050565b90919394506000526020928360002092846000945b8386106113b6575050505001019038808080611384565b80548587018301529401938590820161139f565b9294505050602093945060ff191683830152151560051b01019038808080611384565b156113f457565b60405162461bcd60e51b815260206004820152600c60248201526b2737ba1030b71037bbb732b960a11b6044820152606490fd5b90601f811161143657505050565b600091825260208220906020601f850160051c83019410611472575b601f0160051c01915b82811061146757505050565b81815560010161145b565b9092508290611452565b1561148357565b60405162461bcd60e51b815260206004820152601a60248201527f5472616e73616374696f6e20646f6573206e6f742065786973740000000000006044820152606490fd5b156114cf57565b60405162461bcd60e51b815260206004820152601c60248201527f5472616e73616374696f6e20616c7265616479206578656375746564000000006044820152606490fd5b61151d816112cc565b50600381019060019060ff1992828482541617905560018060a01b03815416926002838301549201906040519360009280546115588161131d565b9381841691821561164d575050600114611611575b505050916000939181859403925af13d1561160c573d61158c81611279565b9061159a6040519283611257565b8152600060203d92013e5b156115d257337f5445f318f4f5fcfb66592e68e0cc5822aa15664039bd5f0ffde24c5a8142b1ac600080a3565b60405162461bcd60e51b8152602060048201526012602482015271151c985b9cd858dd1a5bdb8819985a5b195960721b6044820152606490fd5b6115a5565b9091925060005260209081600020906000915b84831061163c5750505090830190508183600061156d565b805487840152918301918101611624565b16875250505080151502830190508183600061156d565b1561166b57565b60405162461bcd60e51b815260206004820152601b60248201527f4d7573742062652063616c6c656420766961206d756c746973696700000000006044820152606490fd5b60001981146102185760010190565b67ffffffffffffffff811161090c5760051b60200190565b906116e1826116bf565b6116ee6040519182611257565b82815280926116ff601f19916116bf565b0190602036910137565b80518210156113075760209160051b01019056fea26469706673582212204986f6706ccb527219a86d5f772ca171fe196926e9e2c3706997973279e3a07a64736f6c63430008130033",
  "linkReferences": {},
  "deployedLinkReferences": {}
}