{
  "_format": "hh-sol-artifact-1",
  "contractName": "VestingContract",
  "sourceName": "contracts/core/VestingContract.sol",
  "abi": [
    {
      "inputs": [
        {
          "internalType": "address",
          "name": "_token",
          "type": "address"
        }
      ],
      "stateMutability": "nonpayable",
      "type": "constructor"
    },
    {
      "anonymous": false,
      "inputs": [
        {
          "indexed": true,
          "internalType": "address",
          "name": "beneficiary",
          "type": "address"
        },
        {
          "indexed": false,
          "internalType": "string",
          "name": "role",
          "type": "string"
        }
      ],
      "name": "BeneficiaryAdded",
      "type": "event"
    },
    {
      "anonymous": false,
      "inputs": [
        {
          "indexed": true,
          "internalType": "uint256",
          "name": "scheduleId",
          "type": "uint256"
        },
        {
          "indexed": false,
          "internalType": "uint256",
          "name": "milestoneIndex",
          "type": "uint256"
        }
      ],
      "name": "MilestoneCompleted",
      "type": "event"
    },
    {
      "anonymous": false,
      "inputs": [
        {
          "indexed": true,
          "internalType": "uint256",
          "name": "scheduleId",
          "type": "uint256"
        },
        {
          "indexed": false,
          "internalType": "uint256",
          "name": "metricIndex",
          "type": "uint256"
        }
      ],
      "name": "PerformanceAchieved",
      "type": "event"
    },
    {
      "anonymous": false,
      "inputs": [
        {
          "indexed": true,
          "internalType": "uint256",
          "name": "scheduleId",
          "type": "uint256"
        },
        {
          "indexed": true,
          "internalType": "address",
          "name": "beneficiary",
          "type": "address"
        },
        {
          "indexed": false,
          "internalType": "uint256",
          "name": "amount",
          "type": "uint256"
        }
      ],
      "name": "TokensClaimed",
      "type": "event"
    },
    {
      "anonymous": false,
      "inputs": [
        {
          "indexed": true,
          "internalType": "uint256",
          "name": "scheduleId",
          "type": "uint256"
        },
        {
          "indexed": false,
          "internalType": "uint256",
          "name": "revokedAmount",
          "type": "uint256"
        }
      ],
      "name": "VestingRevoked",
      "type": "event"
    },
    {
      "anonymous": false,
      "inputs": [
        {
          "indexed": true,
          "internalType": "uint256",
          "name": "scheduleId",
          "type": "uint256"
        },
        {
          "indexed": true,
          "internalType": "address",
          "name": "beneficiary",
          "type": "address"
        },
        {
          "indexed": false,
          "internalType": "uint256",
          "name": "totalAmount",
          "type": "uint256"
        },
        {
          "indexed": false,
          "internalType": "enum VestingContract.VestingType",
          "name": "vestingType",
          "type": "uint8"
        }
      ],
      "name": "VestingScheduleCreated",
      "type": "event"
    },
    {
      "inputs": [
        {
          "internalType": "uint256",
          "name": "scheduleId",
          "type": "uint256"
        },
        {
          "internalType": "string[]",
          "name": "descriptions",
          "type": "string[]"
        },
        {
          "internalType": "uint256[]",
          "name": "tokenAmounts",
          "type": "uint256[]"
        }
      ],
      "name": "addMilestones",
      "outputs": [],
      "stateMutability": "nonpayable",
      "type": "function"
    },
    {
      "inputs": [
        {
          "internalType": "uint256",
          "name": "scheduleId",
          "type": "uint256"
        },
        {
          "internalType": "string[]",
          "name": "metricNames",
          "type": "string[]"
        },
        {
          "internalType": "uint256[]",
          "name": "targetValues",
          "type": "uint256[]"
        },
        {
          "internalType": "uint256[]",
          "name": "tokenRewards",
          "type": "uint256[]"
        }
      ],
      "name": "addPerformanceMetrics",
      "outputs": [],
      "stateMutability": "nonpayable",
      "type": "function"
    },
    {
      "inputs": [
        {
          "internalType": "address",
          "name": "verifier",
          "type": "address"
        }
      ],
      "name": "addVerifier",
      "outputs": [],
      "stateMutability": "nonpayable",
      "type": "function"
    },
    {
      "inputs": [
        {
          "internalType": "address",
          "name": "",
          "type": "address"
        }
      ],
      "name": "authorizedVerifiers",
      "outputs": [
        {
          "internalType": "bool",
          "name": "",
          "type": "bool"
        }
      ],
      "stateMutability": "view",
      "type": "function"
    },
    {
      "inputs": [
        {
          "internalType": "address",
          "name": "",
          "type": "address"
        }
      ],
      "name": "beneficiaries",
      "outputs": [
        {
          "internalType": "address",
          "name": "addr",
          "type": "address"
        },
        {
          "internalType": "string",
          "name": "role",
          "type": "string"
        },
        {
          "internalType": "uint256",
          "name": "totalAllocated",
          "type": "uint256"
        },
        {
          "internalType": "uint256",
          "name": "totalClaimed",
          "type": "uint256"
        },
        {
          "internalType": "bool",
          "name": "isActive",
          "type": "bool"
        }
      ],
      "stateMutability": "view",
      "type": "function"
    },
    {
      "inputs": [],
      "name": "claimAllTokens",
      "outputs": [],
      "stateMutability": "nonpayable",
      "type": "function"
    },
    {
      "inputs": [
        {
          "internalType": "uint256",
          "name": "scheduleId",
          "type": "uint256"
        }
      ],
      "name": "claimTokens",
      "outputs": [],
      "stateMutability": "nonpayable",
      "type": "function"
    },
    {
      "inputs": [
        {
          "internalType": "uint256",
          "name": "scheduleId",
          "type": "uint256"
        },
        {
          "internalType": "uint256",
          "name": "milestoneIndex",
          "type": "uint256"
        }
      ],
      "name": "completeMilestone",
      "outputs": [],
      "stateMutability": "nonpayable",
      "type": "function"
    },
    {
      "inputs": [
        {
          "internalType": "address",
          "name": "beneficiary",
          "type": "address"
        },
        {
          "internalType": "uint256",
          "name": "totalAmount",
          "type": "uint256"
        },
        {
          "internalType": "uint256",
          "name": "startTime",
          "type": "uint256"
        },
        {
          "internalType": "uint256",
          "name": "cliffDuration",
          "type": "uint256"
        },
        {
          "internalType": "uint256",
          "name": "vestingDuration",
          "type": "uint256"
        },
        {
          "internalType": "bool",
          "name": "isRevocable",
          "type": "bool"
        },
        {
          "internalType": "enum VestingContract.VestingType",
          "name": "vestingType",
          "type": "uint8"
        },
        {
          "internalType": "string",
          "name": "description",
          "type": "string"
        }
      ],
      "name": "createVestingSchedule",
      "outputs": [
        {
          "internalType": "uint256",
          "name": "",
          "type": "uint256"
        }
      ],
      "stateMutability": "nonpayable",
      "type": "function"
    },
    {
      "inputs": [
        {
          "internalType": "uint256",
          "name": "amount",
          "type": "uint256"
        }
      ],
      "name": "emergencyWithdraw",
      "outputs": [],
      "stateMutability": "nonpayable",
      "type": "function"
    },
    {
      "inputs": [
        {
          "internalType": "address",
          "name": "beneficiary",
          "type": "address"
        }
      ],
      "name": "getBeneficiaryInfo",
      "outputs": [
        {
          "internalType": "string",
          "name": "role",
          "type": "string"
        },
        {
          "internalType": "uint256",
          "name": "totalAllocated",
          "type": "uint256"
        },
        {
          "internalType": "uint256",
          "name": "totalClaimed",
          "type": "uint256"
        },
        {
          "internalType": "uint256",
          "name": "totalClaimable",
          "type": "uint256"
        },
        {
          "internalType": "uint256[]",
          "name": "scheduleIds",
          "type": "uint256[]"
        }
      ],
      "stateMutability": "view",
      "type": "function"
    },
    {
      "inputs": [
        {
          "internalType": "uint256",
          "name": "scheduleId",
          "type": "uint256"
        }
      ],
      "name": "getClaimableAmount",
      "outputs": [
        {
          "internalType": "uint256",
          "name": "",
          "type": "uint256"
        }
      ],
      "stateMutability": "view",
      "type": "function"
    },
    {
      "inputs": [],
      "name": "getContractStats",
      "outputs": [
        {
          "internalType": "uint256",
          "name": "totalSchedules",
          "type": "uint256"
        },
        {
          "internalType": "uint256",
          "name": "tokensVesting",
          "type": "uint256"
        },
        {
          "internalType": "uint256",
          "name": "tokensClaimed",
          "type": "uint256"
        },
        {
          "internalType": "uint256",
          "name": "contractBalance",
          "type": "uint256"
        }
      ],
      "stateMutability": "view",
      "type": "function"
    },
    {
      "inputs": [
        {
          "internalType": "uint256",
          "name": "scheduleId",
          "type": "uint256"
        }
      ],
      "name": "getScheduleMetrics",
      "outputs": [
        {
          "internalType": "string[]",
          "name": "metricNames",
          "type": "string[]"
        },
        {
          "internalType": "uint256[]",
          "name": "targetValues",
          "type": "uint256[]"
        },
        {
          "internalType": "uint256[]",
          "name": "currentValues",
          "type": "uint256[]"
        },
        {
          "internalType": "uint256[]",
          "name": "tokenRewards",
          "type": "uint256[]"
        },
        {
          "internalType": "bool[]",
          "name": "achievementStatus",
          "type": "bool[]"
        }
      ],
      "stateMutability": "view",
      "type": "function"
    },
    {
      "inputs": [
        {
          "internalType": "uint256",
          "name": "scheduleId",
          "type": "uint256"
        }
      ],
      "name": "getScheduleMilestones",
      "outputs": [
        {
          "internalType": "string[]",
          "name": "descriptions",
          "type": "string[]"
        },
        {
          "internalType": "uint256[]",
          "name": "tokenAmounts",
          "type": "uint256[]"
        },
        {
          "internalType": "bool[]",
          "name": "completionStatus",
          "type": "bool[]"
        }
      ],
      "stateMutability": "view",
      "type": "function"
    },
    {
      "inputs": [
        {
          "internalType": "uint256",
          "name": "scheduleId",
          "type": "uint256"
        }
      ],
      "name": "getVestedAmount",
      "outputs": [
        {
          "internalType": "uint256",
          "name": "",
          "type": "uint256"
        }
      ],
      "stateMutability": "view",
      "type": "function"
    },
    {
      "inputs": [],
      "name": "owner",
      "outputs": [
        {
          "internalType": "address",
          "name": "",
          "type": "address"
        }
      ],
      "stateMutability": "view",
      "type": "function"
    },
    {
      "inputs": [
        {
          "internalType": "address",
          "name": "verifier",
          "type": "address"
        }
      ],
      "name": "removeVerifier",
      "outputs": [],
      "stateMutability": "nonpayable",
      "type": "function"
    },
    {
      "inputs": [
        {
          "internalType": "uint256",
          "name": "scheduleId",
          "type": "uint256"
        }
      ],
      "name": "revokeVesting",
      "outputs": [],
      "stateMutability": "nonpayable",
      "type": "function"
    },
    {
      "inputs": [],
      "name": "scheduleCounter",
      "outputs": [
        {
          "internalType": "uint256",
          "name": "",
          "type": "uint256"
        }
      ],
      "stateMutability": "view",
      "type": "function"
    },
    {
      "inputs": [
        {
          "internalType": "uint256",
          "name": "",
          "type": "uint256"
        },
        {
          "internalType": "uint256",
          "name": "",
          "type": "uint256"
        }
      ],
      "name": "scheduleMetrics",
      "outputs": [
        {
          "internalType": "uint256",
          "name": "scheduleId",
          "type": "uint256"
        },
        {
          "internalType": "string",
          "name": "metricName",
          "type": "string"
        },
        {
          "internalType": "uint256",
          "name": "targetValue",
          "type": "uint256"
        },
        {
          "internalType": "uint256",
          "name": "currentValue",
          "type": "uint256"
        },
        {
          "internalType": "uint256",
          "name": "tokenReward",
          "type": "uint256"
        },
        {
          "internalType": "bool",
          "name": "isAchieved",
          "type": "bool"
        }
      ],
      "stateMutability": "view",
      "type": "function"
    },
    {
      "inputs": [
        {
          "internalType": "uint256",
          "name": "",
          "type": "uint256"
        },
        {
          "internalType": "uint256",
          "name": "",
          "type": "uint256"
        }
      ],
      "name": "scheduleMilestones",
      "outputs": [
        {
          "internalType": "uint256",
          "name": "scheduleId",
          "type": "uint256"
        },
        {
          "internalType": "string",
          "name": "description",
          "type": "string"
        },
        {
          "internalType": "uint256",
          "name": "tokenAmount",
          "type": "uint256"
        },
        {
          "internalType": "bool",
          "name": "isCompleted",
          "type": "bool"
        },
        {
          "internalType": "uint256",
          "name": "completionTime",
          "type": "uint256"
        },
        {
          "internalType": "address",
          "name": "verifier",
          "type": "address"
        }
      ],
      "stateMutability": "view",
      "type": "function"
    },
    {
      "inputs": [
        {
          "internalType": "address",
          "name": "beneficiary",
          "type": "address"
        },
        {
          "internalType": "string",
          "name": "role",
          "type": "string"
        }
      ],
      "name": "setBeneficiaryRole",
      "outputs": [],
      "stateMutability": "nonpayable",
      "type": "function"
    },
    {
      "inputs": [],
      "name": "token",
      "outputs": [
        {
          "internalType": "contract IERC20Vesting",
          "name": "",
          "type": "address"
        }
      ],
      "stateMutability": "view",
      "type": "function"
    },
    {
      "inputs": [],
      "name": "totalTokensClaimed",
      "outputs": [
        {
          "internalType": "uint256",
          "name": "",
          "type": "uint256"
        }
      ],
      "stateMutability": "view",
      "type": "function"
    },
    {
      "inputs": [],
      "name": "totalTokensVesting",
      "outputs": [
        {
          "internalType": "uint256",
          "name": "",
          "type": "uint256"
        }
      ],
      "stateMutability": "view",
      "type": "function"
    },
    {
      "inputs": [
        {
          "internalType": "address",
          "name": "newOwner",
          "type": "address"
        }
      ],
      "name": "transferOwnership",
      "outputs": [],
      "stateMutability": "nonpayable",
      "type": "function"
    },
    {
      "inputs": [
        {
          "internalType": "uint256",
          "name": "scheduleId",
          "type": "uint256"
        },
        {
          "internalType": "uint256",
          "name": "metricIndex",
          "type": "uint256"
        },
        {
          "internalType": "uint256",
          "name": "newValue",
          "type": "uint256"
        }
      ],
      "name": "updatePerformanceMetric",
      "outputs": [],
      "stateMutability": "nonpayable",
      "type": "function"
    },
    {
      "inputs": [
        {
          "internalType": "uint256",
          "name": "",
          "type": "uint256"
        }
      ],
      "name": "vestingSchedules",
      "outputs": [
        {
          "internalType": "uint256",
          "name": "id",
          "type": "uint256"
        },
        {
          "internalType": "address",
          "name": "beneficiary",
          "type": "address"
        },
        {
          "internalType": "uint256",
          "name": "totalAmount",
          "type": "uint256"
        },
        {
          "internalType": "uint256",
          "name": "claimedAmount",
          "type": "uint256"
        },
        {
          "internalType": "uint256",
          "name": "startTime",
          "type": "uint256"
        },
        {
          "internalType": "uint256",
          "name": "cliffDuration",
          "type": "uint256"
        },
        {
          "internalType": "uint256",
          "name": "vestingDuration",
          "type": "uint256"
        },
        {
          "internalType": "bool",
          "name": "isRevocable",
          "type": "bool"
        },
        {
          "internalType": "bool",
          "name": "isRevoked",
          "type": "bool"
        },
        {
          "internalType": "enum VestingContract.VestingType",
          "name": "vestingType",
          "type": "uint8"
        },
        {
          "internalType": "string",
          "name": "description",
          "type": "string"
        }
      ],
      "stateMutability": "view",
      "type": "function"
    }
  ],
  "bytecode": "0x60a0346200011257601f6200333538819003918201601f19168301916001600160401b0383118484101762000117578084926020946040528339810103126200011257516001600160a01b0381169081900362000112578015620000cd57608052600080546001600160a01b03191633908117825581526005602052604090819020805460ff191660011790555161320790816200012e8239608051818181610171015281816104670152818161064b015281816113a5015281816115bc01528181611d6001526125210152f35b60405162461bcd60e51b815260206004820152601560248201527f496e76616c696420746f6b656e206164647265737300000000000000000000006044820152606490fd5b600080fd5b634e487b7160e01b600052604160045260246000fdfe6080604052600436101561001257600080fd5b60003560e01c806301567739146125bd5780631e4bd42c146123c4578063295f6d24146123a6578063366dc0831461223c57806337b3751514611eab57806346e04a2f14611c655780634d4afb0d14611af65780634f844cf9146115135780635312ea8e1461137357806356a89961146111cd5780635912c046146111af5780635fa8dca1146110725780636d3cbe2114610faa5780637362c8fd14610f8c5780637ab2453614610d765780637d8ca24214610d585780638da5cb5b14610d2f5780639000b3d614610ce0578063941c42a214610c475780639a89171614610c08578063ca2dfd0a14610bbc578063cafeedf614610b96578063d2a43c8b14610795578063dd128200146104fb578063dfe6b5d61461042f578063f2fde38b146103ab578063f326206b14610235578063f40efbb5146101a55763fc0c546a1461015b57600080fd5b346101a05760003660031901126101a0576040517f00000000000000000000000000000000000000000000000000000000000000006001600160a01b03168152602090f35b600080fd5b346101a0576101b3366129f0565b90600052600460205260406000209081548110156101a0576101d491612a06565b5080546101e3600183016126ec565b9160028101549060038101549060ff60056004830154920154169161021a604051968796875260c0602088015260c0870190612792565b93604086015260608501526080840152151560a08301520390f35b346101a057610243366129f0565b336000526020906005825260ff604060002054168015610397575b61026790612bce565b8215158061038b575b61027990612acb565b82600052600382526040600020548110156103465782600052600382526102a4816040600020612a06565b5060038101805460ff81166103015760ff1916600117905542600482015560050180546001600160a01b031916331790556040519081527f1b7218c0ac23ea9cbe4df603d2b340fbf469a115b73ea3d11460727f445d6be19190a2005b60405162461bcd60e51b815260048101869052601b60248201527f4d696c6573746f6e6520616c726561647920636f6d706c6574656400000000006044820152606490fd5b60405162461bcd60e51b815260048101839052601760248201527f496e76616c6964206d696c6573746f6e6520696e6465780000000000000000006044820152606490fd5b50600654831115610270565b506000546001600160a01b0316331461025e565b346101a05760203660031901126101a0576103c4612644565b600054906001600160a01b03906103de3383851614612a38565b169081156103f6576001600160a01b03191617600055005b60405162461bcd60e51b815260206004820152601160248201527024b73b30b634b2103732bb9037bbb732b960791b6044820152606490fd5b346101a05760003660031901126101a0576006546007546008546040516370a0823160e01b81523060048201529291906020846024817f00000000000000000000000000000000000000000000000000000000000000006001600160a01b03165afa9182156104ef576000926104bb575b60809450604051938452602084015260408301526060820152f35b91506020843d82116104e7575b816104d5602093836126cb565b810103126101a05760809351916104a0565b3d91506104c8565b6040513d6000823e3d90fd5b346101a0576020806003193601126101a057600054600435916001600160a01b039161052a9083163314612a38565b82151580610789575b61053c90612acb565b826000526001815260406000206007810180549160ff8316156107445760ff8360081c1661070d5761056d86612c1a565b91600282015460038301916101006105908661058b86548096612b65565b612b65565b9661ff001916179055836105db575b877fd95c9f570760a9370d7a1e142118ac8b79d4853b982a50311ab4613d2c60404287876105cf81600754612b65565b600755604051908152a2005b906105e98460019493612a75565b9055018481541660005260028452600360406000200161060a838254612a75565b905561061882600854612a75565b600855805460405163a9059cbb60e01b81529086166001600160a01b0316600482015260248101839052848160448160007f00000000000000000000000000000000000000000000000000000000000000008b165af180156104ef577fd95c9f570760a9370d7a1e142118ac8b79d4853b982a50311ab4613d2c6040429688936106cd88937f880f2ef2613b092f1a0a819f294155c98667eb294b7e6bf7a3810278142c1a1c956000916106e0575b50612b8a565b541693604051908152a38480808061059f565b6107009150853d8711610706575b6106f881836126cb565b810190612b72565b8c6106c7565b503d6106ee565b60405162461bcd60e51b815260048101859052600f60248201526e105b1c9958591e481c995d9bdad959608a1b6044820152606490fd5b60405162461bcd60e51b815260048101859052601860248201527f56657374696e67206973206e6f74207265766f6361626c6500000000000000006044820152606490fd5b50600654831115610533565b346101a05760803660031901126101a0576024356001600160401b0381116101a0576107c5903690600401612873565b6044356001600160401b0381116101a0576107e49036906004016128f3565b6064356001600160401b0381116101a0576108039036906004016128f3565b61081860018060a01b03600054163314612a38565b600435151580610b88575b61082c90612acb565b610843835183518091149081610b7d575b50612b0d565b600435600052600160205260ff60076040600020015460101c166004811015610b6757600303610b2257600090815b8451831015610ac257600435600052600460205260406000206108958487612b51565b51906108a18587612b51565b51906108ad8686612b51565b51604051926108bb84612694565b6004358452602084019485526040840152600060608401526080830152600060a08301528054600160401b811015610a96576108fc91600182018155612a06565b929092610aac5781518355518051906001600160401b038211610a9657610926600185015461265a565b601f8111610a4f575b50602090601f83116001146109cf5760a06109be9694846109a7956109b898956005956000926109c4575b50508160011b916000199060031b1c19161760018501555b6040810151600285015560608101516003850155608081015160048501550151151591019060ff801983541691151516179055565b6109b18585612b51565b5190612a75565b92612a98565b91610872565b015190508e8061095a565b906001850160005260206000209160005b601f1985168110610a3757506109be96946001856109b8989560059560a0956109a799601f19811610610a1e575b505050811b016001850155610972565b015160001960f88460031b161c191690558e8080610a0e565b919260206001819286850151815501940192016109e0565b600185016000526020600020601f840160051c810160208510610a8f575b601f830160051c82018110610a8357505061092f565b60008155600101610a6d565b5080610a6d565b634e487b7160e01b600052604160045260246000fd5b634e487b7160e01b600052600060045260246000fd5b600435600052600160205260026040600020015410610add57005b60405162461bcd60e51b815260206004820152601a60248201527f52657761726420746f6b656e732065786365656420746f74616c0000000000006044820152606490fd5b60405162461bcd60e51b815260206004820152601d60248201527f4e6f7420706572666f726d616e63652d62617365642076657374696e670000006044820152606490fd5b634e487b7160e01b600052602160045260246000fd5b90508251148561083d565b506006546004351115610823565b346101a05760203660031901126101a0576020610bb4600435612d26565b604051908152f35b346101a05760203660031901126101a057610bd5612644565b6000546001600160a01b039190610bef9083163314612a38565b166000908152600560205260409020805460ff19169055005b346101a05760203660031901126101a0576001600160a01b03610c29612644565b166000526005602052602060ff604060002054166040519015158152f35b346101a057610c55366129f0565b90600052600360205260406000209081548110156101a057610c7691612a06565b508054610c85600183016126ec565b9160028101549060ff60038201541690600481015490600560018060a01b039101541691610cc5604051968796875260c0602088015260c0870190612792565b93604086015215156060850152608084015260a08301520390f35b346101a05760203660031901126101a057610cf9612644565b6000546001600160a01b039190610d139083163314612a38565b166000908152600560205260409020805460ff19166001179055005b346101a05760003660031901126101a0576000546040516001600160a01b039091168152602090f35b346101a05760203660031901126101a0576020610bb4600435612c1a565b346101a0576020806003193601126101a05760043580151580610f80575b610d9d90612acb565b6000526004815260406000208054610db481612806565b91610dc260405193846126cb565b8183526000908152838120848085015b848410610f1e575084610de58151613155565b90610df0815161319f565b90610dfb815161319f565b610e05825161319f565b90610e10835161319f565b9360005b8451811015610eb9578088610e2c610eb49388612b51565b510151610e39828a612b51565b52610e448189612b51565b506040610e518288612b51565b510151610e5e8285612b51565b526060610e6b8288612b51565b510151610e788286612b51565b526080610e858288612b51565b510151610e928287612b51565b5260a0610e9f8288612b51565b5101511515610eae8289612b51565b52612a98565b610e14565b5084610f0c610ee394610efe8995610ef08c610f1a976040519a8b9a60a08c5260a08c0190612951565b918a8303908b01526127d2565b9087820360408901526127d2565b9085820360608701526127d2565b9083820360808501526129ad565b0390f35b600191600691604051610f3081612694565b85548152610f3f8587016126ec565b8382015260028601546040820152600386015460608201526004860154608082015260ff600587015416151560a08201528152019201920191908590610dd2565b50600654811115610d94565b346101a05760003660031901126101a0576020600654604051908152f35b346101a05760203660031901126101a057600435600052600160205260406000208054610f1a60018060a01b03600184015416926110606002820154916003810154600482015460058301549060068401549261100e6008600787015496016126ec565b966040519a8b9a8b5260208b015260408a01526060890152608088015260a087015260c086015260ff8116151560e086015260ff8160081c16151561010086015260ff61012086019160101c166129e3565b61016080610140850152830190612792565b346101a05760603660031901126101a05760043560243560443533600052600560205260ff60406000205416801561119b575b6110ae90612bce565b8215158061118f575b6110c090612acb565b826000526004602052604060002054821015611153578260005260046020526110ed826040600020612a06565b50908060038301556002820154111580611144575b61110857005b600501805460ff191660011790556040519081527f7271f66a9bb20c06506945eda098c7776ee880a2cdd17c28212fb23ffc8fc6a390602090a2005b5060ff60058201541615611102565b60405162461bcd60e51b8152602060048201526014602482015273092dcecc2d8d2c840dacae8e4d2c640d2dcc8caf60631b6044820152606490fd5b506006548311156110b7565b506000546001600160a01b031633146110a5565b346101a05760003660031901126101a0576020600854604051908152f35b346101a0576020806003193601126101a05760043580151580611367575b6111f490612acb565b600052600390818152604060002080549061120e82612806565b9361121c60405195866126cb565b828552600091825283822090848087015b8585106112ff5787826112408251613155565b61124a835161319f565b611254845161319f565b9160005b85518110156112c35780856112706112be9389612b51565b51015161127d8285612b51565b526112888184612b51565b5060406112958289612b51565b5101516112a28286612b51565b5260606112af8289612b51565b5101511515610eae8287612b51565b611258565b50916112f16112e494610f1a93604051968796606088526060880190612951565b91868303908701526127d2565b9083820360408501526129ad565b60019160069160405161131181612694565b865481526113208588016126ec565b838201526002870154604082015260ff86880154161515606082015260048701546080820152848060a01b0360058801541660a0820152815201930193019291859061122d565b506006548111156111eb565b346101a0576020806003193601126101a057600054600435906001600160a01b03908116906113a3338314612a38565b7f000000000000000000000000000000000000000000000000000000000000000016906040516370a0823160e01b81523060048201528481602481865afa80156104ef576000906114e4575b6113fd915060075490612b65565b83116114a15760405163a9059cbb60e01b81526001600160a01b0391909116600482015260248101929092528290829060449082906000905af19081156104ef57600091611484575b501561144e57005b6064906040519062461bcd60e51b82526004820152600f60248201526e151c985b9cd9995c8819985a5b1959608a1b6044820152fd5b61149b9150823d8411610706576106f881836126cb565b82611446565b6064846040519062461bcd60e51b825280600483015260248201527f416d6f756e74206578636565647320617661696c61626c652062616c616e63656044820152fd5b508481813d831161150c575b6114fa81836126cb565b810103126101a0576113fd90516113ef565b503d6114f0565b346101a0576101003660031901126101a05761152d612644565b60a4359081151582036101a057600460c43510156101a05760e4356001600160401b0381116101a05761156490369060040161281d565b61157960018060a01b03600054163314612a38565b6001600160a01b03821615611abb5760243515611a765760843515611a215742604435106119dd576040516370a0823160e01b81523060048201526020816024817f00000000000000000000000000000000000000000000000000000000000000006001600160a01b03165afa9081156104ef576000916119ab575b50611604602435600754612a75565b1161196657611614600654612a98565b908160065560405193611626856126af565b8285526001600160a01b03841660208601526024356040860152600060608601819052604435608087015260643560a087015260843560c087015290151560e086015261010085015261167f60c4356101208601612aa7565b6101408401526000526001602052604060002082518155600181019060018060a01b03602085015116916bffffffffffffffffffffffff60a01b928382541617905560408401516002820155606084015160038201556080840151600482015560a0840151600582015560c08401516006820155600781019061171460e08601511515839060ff801983541691151516179055565b610100850151151590825492610120870151926004841015610b67576101409461ff0062ff000060089660101b1692861b169062ffff00191617179055019301519283516001600160401b038111610a9657611770825461265a565b601f811161191e575b506020601f82116001146118b4578190600495966000926118a9575b50508160011b916000199060031b1c19161790555b60018060a01b03831660005260026020526040600020906005820190815460ff811615611886575b505050600281016117e66024358254612a75565b90550190600654825492600160401b841015610a96578361180e916001602096018155612ab3565b819291549060031b91821b91600019901b1916179055611832602435600754612a75565b60075560065490817f44e6ad705e21b15628d589fc574bc1de8eb800a1e4ee11765d3b3f03e708cd0d6040805193602435855261187387860160c4356129e3565b6001600160a01b031693a3604051908152f35b83549091166001600160a01b03861617835560ff191660011790558380806117d2565b015190508680611795565b601f198216958360005260206000209660005b81811061190657509160049697918460019594106118ed575b505050811b0190556117aa565b015160001960f88460031b161c191690558680806118e0565b838301518955600190980197602093840193016118c7565b826000526020600020601f830160051c8101916020841061195c575b601f0160051c01905b8181106119505750611779565b60008155600101611943565b909150819061193a565b60405162461bcd60e51b815260206004820152601d60248201527f496e73756666696369656e7420636f6e74726163742062616c616e63650000006044820152606490fd5b90506020813d6020116119d5575b816119c6602093836126cb565b810103126101a05751846115f5565b3d91506119b9565b606460405162461bcd60e51b815260206004820152602060248201527f53746172742074696d652063616e6e6f7420626520696e2074686520706173746044820152fd5b60405162461bcd60e51b815260206004820152602760248201527f56657374696e67206475726174696f6e206d75737420626520677265617465726044820152660207468616e20360cc1b6064820152608490fd5b60405162461bcd60e51b815260206004820152601d60248201527f416d6f756e74206d7573742062652067726561746572207468616e20300000006044820152606490fd5b60405162461bcd60e51b8152602060048201526013602482015272496e76616c69642062656e656669636961727960681b6044820152606490fd5b346101a05760403660031901126101a057611b0f612644565b6001600160401b036024358181116101a057611b2f90369060040161281d565b60005490926001600160a01b0391611b4a9083163314612a38565b166000526020906002825260019182604060002001938051928311610a9657611b73855461265a565b601f8111611c1c575b5081601f8411600114611bb95750928293918392600094611bae575b50501b916000199060031b1c1916179055600080f35b015192508580611b98565b919083601f1981168760005284600020946000905b88838310611c025750505010611be9575b505050811b019055005b015160001960f88460031b161c19169055838080611bdf565b858701518855909601959485019487935090810190611bce565b8560005282600020601f850160051c810191848610611c5b575b601f0160051c019085905b828110611c4f575050611b7c565b60008155018590611c41565b9091508190611c36565b346101a0576020806003193601126101a0576004359081151580611e9f575b611c8d90612acb565b8160005260018152604060002091600183019160018060a01b03808454163303611e645760ff600786015460081c16611e1f57611cc983612c1a565b938415611de5576003611d5994959601611ce4878254612a75565b9055611cf286600854612a75565b600855611d0186600754612b65565b60075581815416600052600283526003604060002001611d22878254612a75565b9055805460405163a9059cbb60e01b81529083166001600160a01b0316600482015260248101879052938390859081906044820190565b03816000867f0000000000000000000000000000000000000000000000000000000000000000165af19384156104ef577f880f2ef2613b092f1a0a819f294155c98667eb294b7e6bf7a3810278142c1a1c94611dbc91600091611dc85750612b8a565b541693604051908152a3005b611ddf9150853d8711610706576106f881836126cb565b886106c7565b60405162461bcd60e51b81526004810184905260126024820152714e6f20746f6b656e7320746f20636c61696d60701b6044820152606490fd5b60405162461bcd60e51b815260048101839052601860248201527f56657374696e6720686173206265656e207265766f6b656400000000000000006044820152606490fd5b60405162461bcd60e51b81526004810183905260136024820152724e6f74207468652062656e656669636961727960681b6044820152606490fd5b50600654821115611c84565b346101a05760603660031901126101a0576024356001600160401b0381116101a057611edb903690600401612873565b6044356001600160401b0381116101a057611efa9036906004016128f3565b611f0f60018060a01b03600054163314612a38565b60043515158061222e575b611f2390612acb565b611f308251825114612b0d565b600435600052600160205260ff60076040600020015460101c166004811015610b67576002036121e9576000805b83518210156121895760043560005260036020526040600020611f818386612b51565b51611f8c8486612b51565b519160405192611f9b84612694565b60043584526020840192835260408401526000606084015260006080840152600060a08401528054600160401b811015610a9657611fde91600182018155612a06565b919091610aac5782518255518051906001600160401b038211610a9657612008600184015461265a565b601f8111612142575b50602090601f83116001146120c75792826120b095936005936120b698966000926120bc575b50508160011b916000199060031b1c19161760018201555b6040830151600282015561207860608401511515600383019060ff801983541691151516179055565b60808301516004820155019060a0600180821b03910151166bffffffffffffffffffffffff60a01b8254161790556109b18486612b51565b91612a98565b90611f5e565b015190508b80612037565b906001840160005260206000209160005b601f198516811061212a5750836005936120b69896936001936120b09997601f19811610612111575b505050811b01600182015561204f565b015160001960f88460031b161c191690558b8080612101565b919260206001819286850151815501940192016120d8565b600184016000526020600020601f840160051c810160208510612182575b601f830160051c82018110612176575050612011565b60008155600101612160565b5080612160565b6004356000526001602052600260406000200154106121a457005b60405162461bcd60e51b815260206004820152601d60248201527f4d696c6573746f6e6520746f6b656e732065786365656420746f74616c0000006044820152606490fd5b60405162461bcd60e51b815260206004820152601b60248201527f4e6f74206d696c6573746f6e652d62617365642076657374696e6700000000006044820152606490fd5b506006546004351115611f1a565b346101a0576020806003193601126101a0576001600160a01b039081612260612644565b16600052600281526040600020906040519261227b84612694565b825416835260019261228e8484016126ec565b92828201938452600281015493604083019485526003820154926060810193845260048301926040518094859188825491828152019160005288600020908b60005b8b83821061239057505050505060a0926122f060ff9360059303886126cb565b608085019687520154161515910152600095806000915b61234f575b61233487610f1a88888c8989519551925190519260405197889760a0895260a0890190612792565b948701526040860152606085015283820360808501526127d2565b90968351805189101561238957612382916123766123708b61237c94612b51565b51612c1a565b90612a75565b97612a98565b9080612307565b509661230c565b845486528a9650909401939281019281016122d0565b346101a05760003660031901126101a0576020600754604051908152f35b346101a05760003660031901126101a0573360005260206002815260406000209060ff8060058401541615612584578290600092600060048401945b85548210156124b6576124138287612ab3565b929054600393841b1c92836000526001855260406000209086600783015460081c161561244e575b5050612448919250612a98565b90612400565b61245785612c1a565b9182612464575b5061243b565b612448946124819284920161247a838254612a75565b9055612a75565b936040519182527f880f2ef2613b092f1a0a819f294155c98667eb294b7e6bf7a3810278142c1a1c863393a38291888061245e565b905083816124c057005b61251b9160038492016124d4828254612a75565b90556124e281600854612a75565b6008556124f181600754612b65565b60075560405163a9059cbb60e01b8152336004820152602481019190915291829081906044820190565b038160007f00000000000000000000000000000000000000000000000000000000000000006001600160a01b03165af19081156104ef5761256592600092612567575b5050612b8a565b005b61257d9250803d10610706576106f881836126cb565b828061255e565b60405162461bcd60e51b81526004810183905260116024820152704e6f7420612062656e656669636961727960781b6044820152606490fd5b346101a05760203660031901126101a0576001600160a01b03806125df612644565b1660005260026020526040600020908154166125fd600183016126ec565b9160028101549060ff60056003830154920154169061262e604051958695865260a0602087015260a0860190612792565b9260408501526060840152151560808301520390f35b600435906001600160a01b03821682036101a057565b90600182811c9216801561268a575b602083101461267457565b634e487b7160e01b600052602260045260246000fd5b91607f1691612669565b60c081019081106001600160401b03821117610a9657604052565b61016081019081106001600160401b03821117610a9657604052565b90601f801991011681019081106001600160401b03821117610a9657604052565b90604051918260008254926127008461265a565b90818452600194858116908160001461276f575060011461272c575b505061272a925003836126cb565b565b9093915060005260209081600020936000915b81831061275757505061272a9350820101388061271c565b8554888401850152948501948794509183019161273f565b91505061272a94506020925060ff191682840152151560051b820101388061271c565b919082519283825260005b8481106127be575050826000602080949584010152601f8019910116010190565b60208183018101518483018201520161279d565b90815180825260208080930193019160005b8281106127f2575050505090565b8351855293810193928101926001016127e4565b6001600160401b038111610a965760051b60200190565b81601f820112156101a0578035906001600160401b038211610a965760405192612851601f8401601f1916602001856126cb565b828452602083830101116101a057816000926020809301838601378301015290565b9080601f830112156101a05781359061288b82612806565b9261289960405194856126cb565b828452602092838086019160051b830101928084116101a057848301915b8483106128c75750505050505090565b82356001600160401b0381116101a05786916128e88484809489010161281d565b8152019201916128b7565b81601f820112156101a05780359161290a83612806565b9261291860405194856126cb565b808452602092838086019260051b8201019283116101a0578301905b828210612942575050505090565b81358152908301908301612934565b908082519081815260208091019281808460051b8301019501936000915b84831061297f5750505050505090565b909192939495848061299d600193601f198682030187528a51612792565b980193019301919493929061296f565b90815180825260208080930193019160005b8281106129cd575050505090565b83511515855293810193928101926001016129bf565b906004821015610b675752565b60409060031901126101a0576004359060243590565b8054821015612a22576000526006602060002091020190600090565b634e487b7160e01b600052603260045260246000fd5b15612a3f57565b60405162461bcd60e51b815260206004820152600e60248201526d139bdd08185d5d1a1bdc9a5e995960921b6044820152606490fd5b91908201809211612a8257565b634e487b7160e01b600052601160045260246000fd5b6000198114612a825760010190565b6004821015610b675752565b8054821015612a225760005260206000200190600090565b15612ad257565b60405162461bcd60e51b8152602060048201526013602482015272125b9d985b1a59081cd8da19591d5b19481251606a1b6044820152606490fd5b15612b1457565b60405162461bcd60e51b8152602060048201526015602482015274082e4e4c2f240d8cadccee8d040dad2e6dac2e8c6d605b1b6044820152606490fd5b8051821015612a225760209160051b010190565b91908203918211612a8257565b908160209103126101a0575180151581036101a05790565b15612b9157565b60405162461bcd60e51b8152602060048201526015602482015274151bdad95b881d1c985b9cd9995c8819985a5b1959605a1b6044820152606490fd5b15612bd557565b60405162461bcd60e51b815260206004820152601760248201527f4e6f7420617574686f72697a65642076657269666965720000000000000000006044820152606490fd5b612c359080151580612c38575b612c3090612acb565b612c44565b90565b50600654811115612c27565b8060005260016020526040600020604051612c5e816126af565b8154815260018060a01b036001830154166020820152600282015460408201526003820154916060820192835260048101549160808101928352600582015460a0820152600682015460c0820152610140612ced600860078501549460ff8616151560e0860152612ce760ff6101008701978181861c161515895260101c166101208701612aa7565b016126ec565b910152511590811591612d1b575b50612d1457612d0c612c3592612d26565b905190612b65565b5050600090565b905051421038612cfb565b612c359080151580612d41575b612d3c90612acb565b612d4d565b50600654811115612d33565b806000526001602052604060002060405190612d68826126af565b8054825260018101546001600160a01b031660208301526002810154604083015260038101546060830152600481015460808301908152600582015460a0840152600682015460c0840152600782015460ff808216151560e0860152600882811c821615156101008701908152610120870195909493612df093612ce79160101c1687612aa7565b61014085015251421090811561306c575b506130645780516004811015610b6757612e205750612c3591506130aa565b80516004811015610b6757600103612e3d5750612c3591506130e8565b809150516004811015610b6757600203612f5a5750600052600360205260406000208054612e6a81612806565b91612e7860405193846126cb565b818352602083019060005260206000206000915b838310612ef2575050505060009060005b8151811015612eed576060612eb28284612b51565b510151612ec8575b612ec390612a98565b612e9d565b91612ee5612ec3916040612edc8686612b51565b51015190612a75565b929050612eba565b505090565b60066020600192604051612f0581612694565b85548152612f148587016126ec565b838201526002860154604082015260ff6003870154161515606082015260048601546080820152848060a01b0360058701541660a0820152815201920192019190612e8c565b516004811015610b6757600314612f715750600090565b600052600460205260406000208054612f8981612806565b91612f9760405193846126cb565b818352602083019060005260206000206000915b838310613003575050505060009060005b8151811015612eed5760a0612fd18284612b51565b510151612fe7575b612fe290612a98565b612fbc565b91612ffb612fe2916080612edc8686612b51565b929050612fd9565b6006602060019260405161301681612694565b855481526130258587016126ec565b8382015260028601546040820152600386015460608201526004860154608082015260ff600587015416151560a0820152815201920192019190612fab565b505050600090565b905051151538612e01565b81810292918115918404141715612a8257565b8115613094570490565b634e487b7160e01b600052601260045260246000fd5b6130b8608082015142612b65565b60c082019081518110156130df576130d7906040612c35940151613077565b90519061308a565b50506040015190565b6130f6608082015142612b65565b9060a08101805180841061314c5760c083019384518110156131405761313361313b93613129612c359794604094612b65565b9351905190612b65565b930151613077565b61308a565b50505060409150015190565b50505050600090565b9061315f82612806565b61316c60405191826126cb565b828152809261317d601f1991612806565b019060005b82811061318e57505050565b806060602080938501015201613182565b906131a982612806565b6131b660405191826126cb565b82815280926131c7601f1991612806565b019060203691013756fea264697066735822122025f1fd5e3942cdea727b22d7b1ea5c41fdd86274c18323122721b14003d820da64736f6c63430008130033",
  "linkReferences": {},
  "deployedLinkReferences": {}
}