{
  "_format": "hh-sol-artifact-1",
  "contractName": "NibertDAO",
  "sourceName": "contracts/governance/NibertDAO.sol",
  "abi": [
    {
      "inputs": [
        {
          "internalType": "address",
          "name": "_governanceToken",
          "type": "address"
        },
        {
          "internalType": "uint256",
          "name": "_totalTokenSupply",
          "type": "uint256"
        }
      ],
      "stateMutability": "nonpayable",
      "type": "constructor"
    },
    {
      "anonymous": false,
      "inputs": [
        {
          "indexed": true,
          "internalType": "address",
          "name": "delegator",
          "type": "address"
        },
        {
          "indexed": true,
          "internalType": "address",
          "name": "delegate",
          "type": "address"
        }
      ],
      "name": "DelegateChanged",
      "type": "event"
    },
    {
      "anonymous": false,
      "inputs": [
        {
          "indexed": true,
          "internalType": "uint256",
          "name": "proposalId",
          "type": "uint256"
        }
      ],
      "name": "ProposalCanceled",
      "type": "event"
    },
    {
      "anonymous": false,
      "inputs": [
        {
          "indexed": true,
          "internalType": "uint256",
          "name": "proposalId",
          "type": "uint256"
        },
        {
          "indexed": true,
          "internalType": "address",
          "name": "proposer",
          "type": "address"
        },
        {
          "indexed": false,
          "internalType": "string",
          "name": "title",
          "type": "string"
        },
        {
          "indexed": false,
          "internalType": "uint256",
          "name": "startTime",
          "type": "uint256"
        },
        {
          "indexed": false,
          "internalType": "uint256",
          "name": "endTime",
          "type": "uint256"
        }
      ],
      "name": "ProposalCreated",
      "type": "event"
    },
    {
      "anonymous": false,
      "inputs": [
        {
          "indexed": true,
          "internalType": "uint256",
          "name": "proposalId",
          "type": "uint256"
        }
      ],
      "name": "ProposalExecuted",
      "type": "event"
    },
    {
      "anonymous": false,
      "inputs": [
        {
          "indexed": true,
          "internalType": "address",
          "name": "voter",
          "type": "address"
        },
        {
          "indexed": true,
          "internalType": "uint256",
          "name": "proposalId",
          "type": "uint256"
        },
        {
          "indexed": false,
          "internalType": "enum NibertDAO.VoteType",
          "name": "vote",
          "type": "uint8"
        },
        {
          "indexed": false,
          "internalType": "uint256",
          "name": "weight",
          "type": "uint256"
        }
      ],
      "name": "VoteCast",
      "type": "event"
    },
    {
      "inputs": [],
      "name": "EXECUTION_DELAY",
      "outputs": [
        {
          "internalType": "uint256",
          "name": "",
          "type": "uint256"
        }
      ],
      "stateMutability": "view",
      "type": "function"
    },
    {
      "inputs": [],
      "name": "PROPOSAL_THRESHOLD",
      "outputs": [
        {
          "internalType": "uint256",
          "name": "",
          "type": "uint256"
        }
      ],
      "stateMutability": "view",
      "type": "function"
    },
    {
      "inputs": [],
      "name": "QUORUM_PERCENTAGE",
      "outputs": [
        {
          "internalType": "uint256",
          "name": "",
          "type": "uint256"
        }
      ],
      "stateMutability": "view",
      "type": "function"
    },
    {
      "inputs": [],
      "name": "VOTING_DELAY",
      "outputs": [
        {
          "internalType": "uint256",
          "name": "",
          "type": "uint256"
        }
      ],
      "stateMutability": "view",
      "type": "function"
    },
    {
      "inputs": [],
      "name": "VOTING_PERIOD",
      "outputs": [
        {
          "internalType": "uint256",
          "name": "",
          "type": "uint256"
        }
      ],
      "stateMutability": "view",
      "type": "function"
    },
    {
      "inputs": [],
      "name": "admin",
      "outputs": [
        {
          "internalType": "address",
          "name": "",
          "type": "address"
        }
      ],
      "stateMutability": "view",
      "type": "function"
    },
    {
      "inputs": [
        {
          "internalType": "uint256",
          "name": "proposalId",
          "type": "uint256"
        }
      ],
      "name": "cancel",
      "outputs": [],
      "stateMutability": "nonpayable",
      "type": "function"
    },
    {
      "inputs": [
        {
          "internalType": "address",
          "name": "delegatee",
          "type": "address"
        }
      ],
      "name": "delegate",
      "outputs": [],
      "stateMutability": "nonpayable",
      "type": "function"
    },
    {
      "inputs": [
        {
          "internalType": "address",
          "name": "",
          "type": "address"
        }
      ],
      "name": "delegatedVotes",
      "outputs": [
        {
          "internalType": "uint256",
          "name": "",
          "type": "uint256"
        }
      ],
      "stateMutability": "view",
      "type": "function"
    },
    {
      "inputs": [
        {
          "internalType": "address",
          "name": "",
          "type": "address"
        }
      ],
      "name": "delegates",
      "outputs": [
        {
          "internalType": "address",
          "name": "",
          "type": "address"
        }
      ],
      "stateMutability": "view",
      "type": "function"
    },
    {
      "inputs": [
        {
          "internalType": "address",
          "name": "token",
          "type": "address"
        },
        {
          "internalType": "uint256",
          "name": "amount",
          "type": "uint256"
        }
      ],
      "name": "emergencyWithdraw",
      "outputs": [],
      "stateMutability": "nonpayable",
      "type": "function"
    },
    {
      "inputs": [
        {
          "internalType": "uint256",
          "name": "proposalId",
          "type": "uint256"
        }
      ],
      "name": "execute",
      "outputs": [],
      "stateMutability": "nonpayable",
      "type": "function"
    },
    {
      "inputs": [
        {
          "internalType": "uint256",
          "name": "proposalId",
          "type": "uint256"
        }
      ],
      "name": "getProposal",
      "outputs": [
        {
          "internalType": "address",
          "name": "proposer",
          "type": "address"
        },
        {
          "internalType": "string",
          "name": "title",
          "type": "string"
        },
        {
          "internalType": "string",
          "name": "description",
          "type": "string"
        },
        {
          "internalType": "uint256",
          "name": "startTime",
          "type": "uint256"
        },
        {
          "internalType": "uint256",
          "name": "endTime",
          "type": "uint256"
        },
        {
          "internalType": "uint256",
          "name": "forVotes",
          "type": "uint256"
        },
        {
          "internalType": "uint256",
          "name": "againstVotes",
          "type": "uint256"
        },
        {
          "internalType": "uint256",
          "name": "abstainVotes",
          "type": "uint256"
        },
        {
          "internalType": "bool",
          "name": "executed",
          "type": "bool"
        },
        {
          "internalType": "bool",
          "name": "canceled",
          "type": "bool"
        },
        {
          "internalType": "enum NibertDAO.ProposalType",
          "name": "proposalType",
          "type": "uint8"
        }
      ],
      "stateMutability": "view",
      "type": "function"
    },
    {
      "inputs": [
        {
          "internalType": "uint256",
          "name": "proposalId",
          "type": "uint256"
        }
      ],
      "name": "getProposalStatus",
      "outputs": [
        {
          "internalType": "bool",
          "name": "isActive",
          "type": "bool"
        },
        {
          "internalType": "bool",
          "name": "canExecute",
          "type": "bool"
        },
        {
          "internalType": "bool",
          "name": "hasPassed",
          "type": "bool"
        },
        {
          "internalType": "uint256",
          "name": "totalVotes",
          "type": "uint256"
        },
        {
          "internalType": "uint256",
          "name": "quorumReached",
          "type": "uint256"
        }
      ],
      "stateMutability": "view",
      "type": "function"
    },
    {
      "inputs": [
        {
          "internalType": "address",
          "name": "account",
          "type": "address"
        }
      ],
      "name": "getVotingPower",
      "outputs": [
        {
          "internalType": "uint256",
          "name": "",
          "type": "uint256"
        }
      ],
      "stateMutability": "view",
      "type": "function"
    },
    {
      "inputs": [],
      "name": "governanceToken",
      "outputs": [
        {
          "internalType": "contract IGovernanceToken",
          "name": "",
          "type": "address"
        }
      ],
      "stateMutability": "view",
      "type": "function"
    },
    {
      "inputs": [
        {
          "internalType": "uint256",
          "name": "",
          "type": "uint256"
        },
        {
          "internalType": "address",
          "name": "",
          "type": "address"
        }
      ],
      "name": "hasVoted",
      "outputs": [
        {
          "internalType": "bool",
          "name": "",
          "type": "bool"
        }
      ],
      "stateMutability": "view",
      "type": "function"
    },
    {
      "inputs": [],
      "name": "proposalCount",
      "outputs": [
        {
          "internalType": "uint256",
          "name": "",
          "type": "uint256"
        }
      ],
      "stateMutability": "view",
      "type": "function"
    },
    {
      "inputs": [
        {
          "internalType": "uint256",
          "name": "",
          "type": "uint256"
        }
      ],
      "name": "proposals",
      "outputs": [
        {
          "internalType": "uint256",
          "name": "id",
          "type": "uint256"
        },
        {
          "internalType": "address",
          "name": "proposer",
          "type": "address"
        },
        {
          "internalType": "string",
          "name": "title",
          "type": "string"
        },
        {
          "internalType": "string",
          "name": "description",
          "type": "string"
        },
        {
          "internalType": "address",
          "name": "target",
          "type": "address"
        },
        {
          "internalType": "bytes",
          "name": "callData",
          "type": "bytes"
        },
        {
          "internalType": "uint256",
          "name": "value",
          "type": "uint256"
        },
        {
          "internalType": "uint256",
          "name": "startTime",
          "type": "uint256"
        },
        {
          "internalType": "uint256",
          "name": "endTime",
          "type": "uint256"
        },
        {
          "internalType": "uint256",
          "name": "forVotes",
          "type": "uint256"
        },
        {
          "internalType": "uint256",
          "name": "againstVotes",
          "type": "uint256"
        },
        {
          "internalType": "uint256",
          "name": "abstainVotes",
          "type": "uint256"
        },
        {
          "internalType": "bool",
          "name": "executed",
          "type": "bool"
        },
        {
          "internalType": "bool",
          "name": "canceled",
          "type": "bool"
        },
        {
          "internalType": "enum NibertDAO.ProposalType",
          "name": "proposalType",
          "type": "uint8"
        }
      ],
      "stateMutability": "view",
      "type": "function"
    },
    {
      "inputs": [
        {
          "internalType": "string",
          "name": "title",
          "type": "string"
        },
        {
          "internalType": "string",
          "name": "description",
          "type": "string"
        },
        {
          "internalType": "address",
          "name": "target",
          "type": "address"
        },
        {
          "internalType": "bytes",
          "name": "callData",
          "type": "bytes"
        },
        {
          "internalType": "uint256",
          "name": "value",
          "type": "uint256"
        },
        {
          "internalType": "enum NibertDAO.ProposalType",
          "name": "proposalType",
          "type": "uint8"
        }
      ],
      "name": "propose",
      "outputs": [
        {
          "internalType": "uint256",
          "name": "",
          "type": "uint256"
        }
      ],
      "stateMutability": "nonpayable",
      "type": "function"
    },
    {
      "inputs": [],
      "name": "totalTokenSupply",
      "outputs": [
        {
          "internalType": "uint256",
          "name": "",
          "type": "uint256"
        }
      ],
      "stateMutability": "view",
      "type": "function"
    },
    {
      "inputs": [
        {
          "internalType": "address",
          "name": "newAdmin",
          "type": "address"
        }
      ],
      "name": "updateAdmin",
      "outputs": [],
      "stateMutability": "nonpayable",
      "type": "function"
    },
    {
      "inputs": [
        {
          "internalType": "uint256",
          "name": "proposalId",
          "type": "uint256"
        },
        {
          "internalType": "enum NibertDAO.VoteType",
          "name": "voteType",
          "type": "uint8"
        }
      ],
      "name": "vote",
      "outputs": [],
      "stateMutability": "nonpayable",
      "type": "function"
    },
    {
      "inputs": [
        {
          "internalType": "uint256",
          "name": "",
          "type": "uint256"
        },
        {
          "internalType": "address",
          "name": "",
          "type": "address"
        }
      ],
      "name": "votes",
      "outputs": [
        {
          "internalType": "enum NibertDAO.VoteType",
          "name": "",
          "type": "uint8"
        }
      ],
      "stateMutability": "view",
      "type": "function"
    },
    {
      "stateMutability": "payable",
      "type": "receive"
    }
  ],
  "bytecode": "0x60a0346100e057601f611f2838819003918201601f19168301916001600160401b038311848410176100e55780849260409485528339810103126100e05780516001600160a01b03811691908290036100e0576020015190801561009b57608052600655600780546001600160a01b03191633179055604051611e2c90816100fc82396080518181816104770152818161122a0152611bfc0152f35b60405162461bcd60e51b815260206004820152601560248201527f496e76616c696420746f6b656e206164647265737300000000000000000000006044820152606490fd5b600080fd5b634e487b7160e01b600052604160045260246000fdfe608080604052600436101561001d575b50361561001b57600080fd5b005b60003560e01c908163013cf08b14611776575080631ca8b6cb1461175857806337f135d71461173a578063401853b71461151757806340e58ee5146113cf5780634385963214611382578063587cde1e146113475780635c19a95c146111ba578063943e821614610fb557806395ccea6714610edf578063a6c2660314610eba578063b1610d7e14610e9c578063bb4d443614610e71578063c7f758a814610c78578063d23254b414610c26578063d364d4d414610bec578063d6159fe514610bce578063da35c66414610bb0578063de11292614610573578063e2f273bd146104eb578063ee8a7c15146104cf578063f851a440146104a6578063f96dae0a146104615763fe0d94c114610132573861000f565b3461045c5760208060031936011261045c576004359081151580610450575b61015a90611b43565b816000526000815260406000206008810154908142111561041557600c81019081549260ff84166103dd5760ff8460081c166103a4576202a300810180911161038e574210610349576101ac85611c7f565b1561030c57600160ff19938416811790925560048101546001600160a01b031692836101fb575b857f712ae1383f79ac853f8d882153778e0260ef8f03b504e2866e0593e04d2b291f600080a2005b60056006830154920190604051936000928054610217816118d0565b938184169182156102f55750506001146102ba575b505050916000939181859403925af13d156102b5573d61024b81611a65565b9061025960405192836119bd565b81526000833d92013e5b1561027157808080806101d3565b6064906040519062461bcd60e51b82526004820152601960248201527f50726f706f73616c20657865637574696f6e206661696c6564000000000000006044820152fd5b610263565b909192506000528560002090866000925b8484106102e35750505090830190508183600061022c565b805487850152920191879082016102cb565b16875250505080151502830190508183600061022c565b60405162461bcd60e51b815260048101859052601560248201527450726f706f73616c20646964206e6f74207061737360581b6044820152606490fd5b60405162461bcd60e51b815260048101859052601760248201527f457865637574696f6e2064656c6179206e6f74206d65740000000000000000006044820152606490fd5b634e487b7160e01b600052601160045260246000fd5b60405162461bcd60e51b8152600481018690526011602482015270141c9bdc1bdcd85b0818d85b98d95b1959607a1b6044820152606490fd5b60405162461bcd60e51b815260048101869052601060248201526f105b1c9958591e48195e1958dd5d195960821b6044820152606490fd5b60405162461bcd60e51b8152600481018490526013602482015272566f74696e67207374696c6c2061637469766560681b6044820152606490fd5b50600554821115610151565b600080fd5b3461045c57600036600319011261045c576040517f00000000000000000000000000000000000000000000000000000000000000006001600160a01b03168152602090f35b3461045c57600036600319011261045c576007546040516001600160a01b039091168152602090f35b3461045c57600036600319011261045c576020604051600a8152f35b3461045c57602036600319011261045c57610504611a42565b600754906001600160a01b039061051e3383851614611dbd565b16908115610536576001600160a01b03191617600755005b60405162461bcd60e51b8152602060048201526015602482015274496e76616c69642061646d696e206164647265737360581b6044820152606490fd5b3461045c5760c036600319011261045c5760043567ffffffffffffffff811161045c576105a4903690600401611ab8565b60243567ffffffffffffffff811161045c576105c4903690600401611ab8565b90604435906001600160a01b038216820361045c5760643567ffffffffffffffff811161045c573660238201121561045c5761060a903690602481600401359101611a81565b600560a435101561045c5769021e19e0c9bab240000061062933611bce565b10610b6b57815115610b2e57835115610ae95760055492600019841461038e5760018401600555620151804201421161038e57620a8c0042016201518042011161038e576040519461067a866119a0565b600185018652336020870152836040870152606086015260018060a01b0316608085015260a084015260843560c084015262015180420160e0840152620a8c004201610100840152600061012084015260006101408401526000610160840152600061018084015260006101a08401526106fa60a4356101c08501611ae3565b6001820160005260006020526040600020835181556001810160018060a01b036020860151166001600160601b0360a01b8254161790556040840151805167ffffffffffffffff81116109e5578060028401926107618261075b86546118d0565b86611aef565b602090601f8311600114610a8357600092610a78575b50508160011b916000199060031b1c19161790555b606084015180519067ffffffffffffffff82116109e55781906107bf826107b660038701546118d0565b60038701611aef565b602090601f8311600114610a06576000926109fb575b50508160011b916000199060031b1c19161760038201555b6004810160018060a01b036080860151166001600160601b0360a01b82541617905560a0840151805167ffffffffffffffff81116109e557600583019161083e8261083885546118d0565b85611aef565b602090601f831160011461097957600c949392916000918361096e575b50508160011b916000199060031b1c19161790555b60c0850151600682015560e0850151600782015561010085015160088201556101208501516009820155610140850151600a820155610160850151600b8201550161018084015115158154946101c06101a0820151151560081b91015160058110156109585760209660ff62ff000061ff009360101b1694169062ffffff19161791161717905561090c604051916060835260608301906119df565b62015180420184830152620a8c00420160408301527f6c98a8c940418b35614f0cd02412d5c9606faff474cbb6cdd6640ba5d1a9f06b33928060018601930390a3600160405191018152f35b634e487b7160e01b600052602160045260246000fd5b01519050888061085b565b90601f198316918460005260206000209260005b8181106109cd5750916001939185600c98979694106109b4575b505050811b019055610870565b015160001960f88460031b161c191690558880806109a7565b9293602060018192878601518155019501930161098d565b634e487b7160e01b600052604160045260246000fd5b0151905086806107d5565b9250600384016000526020600020906000935b601f1984168510610a5d576001945083601f19811610610a44575b505050811b0160038201556107ed565b015160001960f88460031b161c19169055868080610a34565b81810151835560209485019460019093019290910190610a19565b015190508780610777565b6000858152602081209350601f198516905b818110610ad15750908460019594939210610ab8575b505050811b01905561078c565b015160001960f88460031b161c19169055878080610aab565b92936020600181928786015181550195019301610a95565b60405162461bcd60e51b815260206004820152601b60248201527f4465736372697074696f6e2063616e6e6f7420626520656d70747900000000006044820152606490fd5b60405162461bcd60e51b81526020600482015260156024820152745469746c652063616e6e6f7420626520656d70747960581b6044820152606490fd5b60405162461bcd60e51b815260206004820152601e60248201527f496e73756666696369656e7420746f6b656e7320746f2070726f706f736500006044820152606490fd5b3461045c57600036600319011261045c576020600554604051908152f35b3461045c57600036600319011261045c576020604051620151808152f35b3461045c57602036600319011261045c576001600160a01b03610c0d611a42565b1660005260036020526020604060002054604051908152f35b3461045c57604036600319011261045c57610c3f611a2c565b600435600052600160205260406000209060018060a01b0316600052602052602060ff60406000205416610c766040518092611a58565bf35b3461045c57602036600319011261045c5760043580151580610e65575b610c9e90611b43565b60005260006020526040600020610da460ff600c60405193610cbf856119a0565b8054855260018101546001600160a01b03166020860152604051610cf181610cea816002860161190a565b03826119bd565b6040860152604051610d0a81610cea816003860161190a565b606086015260048101546001600160a01b03166080860152604051610d3681610cea816005860161190a565b60a0860152600681015460c0860152600781015460e086015260088101546101008601526009810154610120860152600a810154610140860152600b81015461016086015201548181161515610180850152818160081c1615156101a085015260101c166101c08301611ae3565b60018060a01b03602082015116604082015191606081015160e08201519161010081015190610120810151610140820151610160830151906101808401511515926101c06101a0860151151595015195600587101561095857610e30610e6198610e226101609d6040519e8f9e8f90815281602082015201906119df565b8c810360408e0152906119df565b9860608b015260808a015260a089015260c088015260e0870152610100860152610120850152610140840190611a1f565b0390f35b50600554811115610c95565b3461045c57602036600319011261045c576020610e94610e8f611a42565b611bce565b604051908152f35b3461045c57600036600319011261045c57602060405162093a808152f35b3461045c57600036600319011261045c57602060405169021e19e0c9bab24000008152f35b3461045c57604036600319011261045c57610ef8611a42565b60243560018060a01b0380806007541693610f14853314611dbd565b169283610f4e575060008093508092819260075416828215610f45575bf115610f3957005b6040513d6000823e3d90fd5b506108fc610f31565b60209291506044906000604051958694859363a9059cbb60e01b8552600485015260248401525af18015610f3957610f8257005b6020813d8211610fad575b81610f9a602093836119bd565b8101031261045c57518015150361045c57005b3d9150610f8d565b3461045c57604036600319011261045c57600435602435600381101561045c57811515806111ae575b610fe790611b43565b8160005260206000815260406000209060078201544210611171576110126008830154421115611b8f565b8360005260028152604060002033600052815260ff6040600020541661113d5761103b33611bce565b9182156111065784600052600282526040600020336000528252604060002060ff19906001828254161790558560005260018352604060002033600052835260406000209081541660ff8616179055600184146000146110de576009016110a3838254611ad6565b90555b6110b36040518094611a58565b8201527f2c9deb38f462962eadbd85a9d3a4120503ee091f1582eaaa10aa8c6797651d2960403392a3005b836110f857600a016110f1838254611ad6565b90556110a6565b600b016110f1838254611ad6565b60405162461bcd60e51b815260048101839052600f60248201526e2737903b37ba34b733903837bbb2b960891b6044820152606490fd5b6064906040519062461bcd60e51b82526004820152600d60248201526c105b1c9958591e481d9bdd1959609a1b6044820152fd5b6064906040519062461bcd60e51b825260048201526016602482015275159bdd1a5b99c81a185cc81b9bdd081cdd185c9d195960521b6044820152fd5b50600554821115610fde565b3461045c5760208060031936011261045c576001600160a01b0390816111de611a42565b1691338314611302579060249133600052600482528160406000209182549286828516946001600160601b0360a01b16179055604051948580926370a0823160e01b82523360048301527f0000000000000000000000000000000000000000000000000000000000000000165afa928315610f39576000936112d3575b50806112b3575b5082611292575b82337fef9fc1dee6010109e6e3b21e51d44028e246dbad8a5a71ea192a30b19e1f457f600080a3005b60039083600052526112aa6040600020918254611ad6565b90558180611269565b60005260038152604060002080549083820391821161038e575583611262565b9092508181813d83116112fb575b6112eb81836119bd565b8101031261045c5751918461125b565b503d6112e1565b60405162461bcd60e51b815260048101839052601760248201527f43616e6e6f742064656c656761746520746f2073656c660000000000000000006044820152606490fd5b3461045c57602036600319011261045c5760206001600160a01b038061136b611a42565b166000526004825260406000205416604051908152f35b3461045c57604036600319011261045c5761139b611a2c565b600435600052600260205260406000209060018060a01b0316600052602052602060ff604060002054166040519015158152f35b3461045c57602036600319011261045c576004358015158061150b575b6113f590611b43565b6000818152602081905260409020600754336001600160a01b03918216149081156114fb575b50156114b657600c810190815460ff81166114715761144260086101009301544210611b8f565b61ff0019161790557f789cf55be980739dad1d0699b93b58e806b51c9d96619bfa8fe0a28abaa7b30c600080a2005b60405162461bcd60e51b815260206004820152601f60248201527f43616e6e6f742063616e63656c2065786563757465642070726f706f73616c006044820152606490fd5b60405162461bcd60e51b815260206004820152601860248201527f4e6f7420617574686f72697a656420746f2063616e63656c00000000000000006044820152606490fd5b905060018201541633148361141b565b506005548111156113ec565b3461045c57602036600319011261045c576004358015158061172e575b61153d90611b43565b806000526000602052604060002060405191611558836119a0565b8154835260018201546001600160a01b03908116602085015260405161158581610cea816002880161190a565b604085015260405161159e81610cea816003880161190a565b606085015260048301541660808401526040516115c281610cea816005870161190a565b60a0840152600682015460c084015260078201549260e0810193845260088301549261010082019384526009810154946101208301958652600a820154906101408401918252600c600b84015493610160860194855201549061164c61018086019560ff8416151587526101c060ff6101a0830195818160081c161515875260101c169101611ae3565b514210159586611722575b86611718575b516202a300810180911161038e574211938461170e575b5083611704575b50826116e5575b61169d906116936116a59495611c7f565b9651905190611ad6565b905190611ad6565b60065490600a820291808304600a149015171561038e5760a094606493604051951515865215156020860152151560408501526060840152046080820152f35b6116a5925061169d906116936116fa86611c7f565b9450509050611682565b511592508661167b565b5115935087611674565b815115965061165d565b80514211159650611657565b50600554811115611534565b3461045c57600036600319011261045c5760206040516202a3008152f35b3461045c57600036600319011261045c576020600654604051908152f35b3461045c57602036600319011261045c576004356000908152602081905260409020805460018201546001600160a01b03908116939192909190816117be816002840161190a565b036117c990836119bd565b60405192836117db816003850161190a565b036117e690856119bd565b6004820154604051949116846117ff816005860161190a565b0361180a90866119bd565b6006830154946007840154600885015491600986015493600a87015495600b88015497600c0154986040519c8d9c8d5260208d01528b6101e06040819201528c01611854916119df565b8b810360608d0152611865916119df565b9060808b015289810360a08b015261187c916119df565b9660c089015260e088015261010087015261012086015261014085015261016084015260ff811615156101808401528060081c60ff1615156101a08401526101c083019060101c60ff1690610e6191611a1f565b90600182811c92168015611900575b60208310146118ea57565b634e487b7160e01b600052602260045260246000fd5b91607f16916118df565b906000929180549161191b836118d0565b91828252600193848116908160001461197d575060011461193d575b50505050565b90919394506000526020928360002092846000945b838610611969575050505001019038808080611937565b805485870183015294019385908201611952565b9294505050602093945060ff191683830152151560051b01019038808080611937565b6101e0810190811067ffffffffffffffff8211176109e557604052565b90601f8019910116810190811067ffffffffffffffff8211176109e557604052565b919082519283825260005b848110611a0b575050826000602080949584010152601f8019910116010190565b6020818301810151848301820152016119ea565b9060058210156109585752565b602435906001600160a01b038216820361045c57565b600435906001600160a01b038216820361045c57565b9060038210156109585752565b67ffffffffffffffff81116109e557601f01601f191660200190565b929192611a8d82611a65565b91611a9b60405193846119bd565b82948184528183011161045c578281602093846000960137010152565b9080601f8301121561045c57816020611ad393359101611a81565b90565b9190820180921161038e57565b60058210156109585752565b90601f8111611afd57505050565b600091825260208220906020601f850160051c83019410611b39575b601f0160051c01915b828110611b2e57505050565b818155600101611b22565b9092508290611b19565b15611b4a57565b60405162461bcd60e51b815260206004820152601760248201527f50726f706f73616c20646f6573206e6f742065786973740000000000000000006044820152606490fd5b15611b9657565b60405162461bcd60e51b815260206004820152601060248201526f159bdd1a5b99c81a185cc8195b99195960821b6044820152606490fd5b6040516370a0823160e01b81526001600160a01b0391821660048201819052909291602090849060249082907f0000000000000000000000000000000000000000000000000000000000000000165afa928315610f3957600093611c48575b5091611ad39192600052600360205260406000205490611ad6565b6020813d8211611c77575b81611c60602093836119bd565b81010312611c7357519250611ad3611c2d565b8380fd5b3d9150611c53565b600052600060205260408060002090805190611c9a826119a0565b8254825260018301546001600160a01b0390811660208401528151611cc681610cea816002890161190a565b828401528151611cdd81610cea816003890161190a565b6060840152600484015416608083015251611cff81610cea816005870161190a565b60a0820152600682015460c0820152600782015460e08201526008820154610100820152611d8d6009830154926101208301938452611d80600a8201549361014081019485526101c060ff600c600b86015495610160850196875201548181161515610180850152818160081c1615156101a085015260101c169101611ae3565b61169d8451845190611ad6565b600654600a810290808204600a149015171561038e576064900411159182611db457505090565b51905110919050565b15611dc457565b60405162461bcd60e51b815260206004820152600a60248201526927b7363c9030b236b4b760b11b6044820152606490fdfea26469706673582212201ea69bcb21683e4dba852a9cc43256dd2177acbdd9ad45f02eacee490b48ad8164736f6c63430008130033",
  "linkReferences": {},
  "deployedLinkReferences": {}
}