{
  "_format": "hh-sol-artifact-1",
  "contractName": "PriceOracle",
  "sourceName": "contracts/core/PriceOracle.sol",
  "abi": [
    {
      "inputs": [],
      "stateMutability": "nonpayable",
      "type": "constructor"
    },
    {
      "anonymous": false,
      "inputs": [
        {
          "indexed": true,
          "internalType": "string",
          "name": "asset",
          "type": "string"
        }
      ],
      "name": "AssetAdded",
      "type": "event"
    },
    {
      "anonymous": false,
      "inputs": [
        {
          "indexed": true,
          "internalType": "string",
          "name": "asset",
          "type": "string"
        },
        {
          "indexed": false,
          "internalType": "string",
          "name": "reason",
          "type": "string"
        }
      ],
      "name": "EmergencyPause",
      "type": "event"
    },
    {
      "anonymous": false,
      "inputs": [
        {
          "indexed": true,
          "internalType": "string",
          "name": "asset",
          "type": "string"
        },
        {
          "indexed": true,
          "internalType": "address",
          "name": "oracle",
          "type": "address"
        },
        {
          "indexed": false,
          "internalType": "string",
          "name": "name",
          "type": "string"
        }
      ],
      "name": "OracleAdded",
      "type": "event"
    },
    {
      "anonymous": false,
      "inputs": [
        {
          "indexed": true,
          "internalType": "string",
          "name": "asset",
          "type": "string"
        },
        {
          "indexed": true,
          "internalType": "address",
          "name": "oracle",
          "type": "address"
        }
      ],
      "name": "OracleRemoved",
      "type": "event"
    },
    {
      "anonymous": false,
      "inputs": [
        {
          "indexed": true,
          "internalType": "string",
          "name": "asset",
          "type": "string"
        },
        {
          "indexed": true,
          "internalType": "address",
          "name": "oracle",
          "type": "address"
        },
        {
          "indexed": false,
          "internalType": "uint256",
          "name": "deviation",
          "type": "uint256"
        }
      ],
      "name": "PriceDeviation",
      "type": "event"
    },
    {
      "anonymous": false,
      "inputs": [
        {
          "indexed": true,
          "internalType": "string",
          "name": "asset",
          "type": "string"
        },
        {
          "indexed": false,
          "internalType": "uint256",
          "name": "price",
          "type": "uint256"
        },
        {
          "indexed": false,
          "internalType": "uint256",
          "name": "timestamp",
          "type": "uint256"
        },
        {
          "indexed": false,
          "internalType": "uint256",
          "name": "confidence",
          "type": "uint256"
        }
      ],
      "name": "PriceUpdated",
      "type": "event"
    },
    {
      "inputs": [],
      "name": "MAX_DEVIATION_THRESHOLD",
      "outputs": [
        {
          "internalType": "uint256",
          "name": "",
          "type": "uint256"
        }
      ],
      "stateMutability": "view",
      "type": "function"
    },
    {
      "inputs": [],
      "name": "MIN_ORACLES_REQUIRED",
      "outputs": [
        {
          "internalType": "uint256",
          "name": "",
          "type": "uint256"
        }
      ],
      "stateMutability": "view",
      "type": "function"
    },
    {
      "inputs": [],
      "name": "PRICE_VALIDITY_PERIOD",
      "outputs": [
        {
          "internalType": "uint256",
          "name": "",
          "type": "uint256"
        }
      ],
      "stateMutability": "view",
      "type": "function"
    },
    {
      "inputs": [
        {
          "internalType": "string",
          "name": "asset",
          "type": "string"
        }
      ],
      "name": "addAsset",
      "outputs": [],
      "stateMutability": "nonpayable",
      "type": "function"
    },
    {
      "inputs": [
        {
          "internalType": "string",
          "name": "asset",
          "type": "string"
        },
        {
          "internalType": "address",
          "name": "oracle",
          "type": "address"
        },
        {
          "internalType": "string",
          "name": "name",
          "type": "string"
        },
        {
          "internalType": "uint256",
          "name": "weight",
          "type": "uint256"
        },
        {
          "internalType": "uint256",
          "name": "deviationThreshold",
          "type": "uint256"
        }
      ],
      "name": "addOracleSource",
      "outputs": [],
      "stateMutability": "nonpayable",
      "type": "function"
    },
    {
      "inputs": [
        {
          "internalType": "uint256",
          "name": "",
          "type": "uint256"
        }
      ],
      "name": "assetList",
      "outputs": [
        {
          "internalType": "string",
          "name": "",
          "type": "string"
        }
      ],
      "stateMutability": "view",
      "type": "function"
    },
    {
      "inputs": [
        {
          "internalType": "string",
          "name": "",
          "type": "string"
        },
        {
          "internalType": "uint256",
          "name": "",
          "type": "uint256"
        }
      ],
      "name": "assetOracles",
      "outputs": [
        {
          "internalType": "address",
          "name": "oracle",
          "type": "address"
        },
        {
          "internalType": "string",
          "name": "name",
          "type": "string"
        },
        {
          "internalType": "uint256",
          "name": "weight",
          "type": "uint256"
        },
        {
          "internalType": "bool",
          "name": "isActive",
          "type": "bool"
        },
        {
          "internalType": "uint256",
          "name": "lastUpdate",
          "type": "uint256"
        },
        {
          "internalType": "uint256",
          "name": "deviationThreshold",
          "type": "uint256"
        }
      ],
      "stateMutability": "view",
      "type": "function"
    },
    {
      "inputs": [
        {
          "internalType": "string",
          "name": "",
          "type": "string"
        }
      ],
      "name": "assetPrices",
      "outputs": [
        {
          "internalType": "uint256",
          "name": "currentPrice",
          "type": "uint256"
        },
        {
          "internalType": "uint256",
          "name": "lastPrice",
          "type": "uint256"
        },
        {
          "internalType": "uint256",
          "name": "lastUpdate",
          "type": "uint256"
        },
        {
          "internalType": "uint256",
          "name": "priceChange24h",
          "type": "uint256"
        },
        {
          "internalType": "uint256",
          "name": "volatility",
          "type": "uint256"
        },
        {
          "internalType": "bool",
          "name": "isStable",
          "type": "bool"
        },
        {
          "internalType": "uint256",
          "name": "confidence",
          "type": "uint256"
        }
      ],
      "stateMutability": "view",
      "type": "function"
    },
    {
      "inputs": [
        {
          "internalType": "address",
          "name": "",
          "type": "address"
        }
      ],
      "name": "authorizedOracles",
      "outputs": [
        {
          "internalType": "bool",
          "name": "",
          "type": "bool"
        }
      ],
      "stateMutability": "view",
      "type": "function"
    },
    {
      "inputs": [
        {
          "internalType": "string",
          "name": "asset",
          "type": "string"
        },
        {
          "internalType": "string",
          "name": "reason",
          "type": "string"
        }
      ],
      "name": "emergencyPause",
      "outputs": [],
      "stateMutability": "nonpayable",
      "type": "function"
    },
    {
      "inputs": [
        {
          "internalType": "string",
          "name": "asset",
          "type": "string"
        }
      ],
      "name": "getAssetDetails",
      "outputs": [
        {
          "internalType": "uint256",
          "name": "currentPrice",
          "type": "uint256"
        },
        {
          "internalType": "uint256",
          "name": "lastPrice",
          "type": "uint256"
        },
        {
          "internalType": "uint256",
          "name": "priceChange24h",
          "type": "uint256"
        },
        {
          "internalType": "uint256",
          "name": "volatility",
          "type": "uint256"
        },
        {
          "internalType": "bool",
          "name": "isStable",
          "type": "bool"
        },
        {
          "internalType": "uint256",
          "name": "confidence",
          "type": "uint256"
        },
        {
          "internalType": "uint256",
          "name": "lastUpdate",
          "type": "uint256"
        }
      ],
      "stateMutability": "view",
      "type": "function"
    },
    {
      "inputs": [
        {
          "internalType": "string",
          "name": "asset",
          "type": "string"
        }
      ],
      "name": "getOracleSources",
      "outputs": [
        {
          "internalType": "address[]",
          "name": "oracles",
          "type": "address[]"
        },
        {
          "internalType": "string[]",
          "name": "names",
          "type": "string[]"
        },
        {
          "internalType": "bool[]",
          "name": "active",
          "type": "bool[]"
        }
      ],
      "stateMutability": "view",
      "type": "function"
    },
    {
      "inputs": [
        {
          "internalType": "string",
          "name": "asset",
          "type": "string"
        }
      ],
      "name": "getPrice",
      "outputs": [
        {
          "internalType": "uint256",
          "name": "price",
          "type": "uint256"
        },
        {
          "internalType": "uint256",
          "name": "timestamp",
          "type": "uint256"
        },
        {
          "internalType": "uint256",
          "name": "confidence",
          "type": "uint256"
        },
        {
          "internalType": "bool",
          "name": "isStale",
          "type": "bool"
        }
      ],
      "stateMutability": "view",
      "type": "function"
    },
    {
      "inputs": [],
      "name": "getSupportedAssets",
      "outputs": [
        {
          "internalType": "string[]",
          "name": "",
          "type": "string[]"
        }
      ],
      "stateMutability": "view",
      "type": "function"
    },
    {
      "inputs": [
        {
          "internalType": "string",
          "name": "",
          "type": "string"
        },
        {
          "internalType": "address",
          "name": "",
          "type": "address"
        }
      ],
      "name": "oraclePrices",
      "outputs": [
        {
          "internalType": "uint256",
          "name": "price",
          "type": "uint256"
        },
        {
          "internalType": "uint256",
          "name": "timestamp",
          "type": "uint256"
        },
        {
          "internalType": "uint256",
          "name": "confidence",
          "type": "uint256"
        },
        {
          "internalType": "bool",
          "name": "isActive",
          "type": "bool"
        }
      ],
      "stateMutability": "view",
      "type": "function"
    },
    {
      "inputs": [],
      "name": "owner",
      "outputs": [
        {
          "internalType": "address",
          "name": "",
          "type": "address"
        }
      ],
      "stateMutability": "view",
      "type": "function"
    },
    {
      "inputs": [
        {
          "internalType": "string",
          "name": "asset",
          "type": "string"
        },
        {
          "internalType": "address",
          "name": "oracle",
          "type": "address"
        }
      ],
      "name": "removeOracleSource",
      "outputs": [],
      "stateMutability": "nonpayable",
      "type": "function"
    },
    {
      "inputs": [
        {
          "internalType": "string",
          "name": "",
          "type": "string"
        }
      ],
      "name": "supportedAssets",
      "outputs": [
        {
          "internalType": "bool",
          "name": "",
          "type": "bool"
        }
      ],
      "stateMutability": "view",
      "type": "function"
    },
    {
      "inputs": [
        {
          "internalType": "address",
          "name": "newOwner",
          "type": "address"
        }
      ],
      "name": "transferOwnership",
      "outputs": [],
      "stateMutability": "nonpayable",
      "type": "function"
    },
    {
      "inputs": [
        {
          "internalType": "string",
          "name": "asset",
          "type": "string"
        },
        {
          "internalType": "uint256",
          "name": "price",
          "type": "uint256"
        },
        {
          "internalType": "uint256",
          "name": "confidence",
          "type": "uint256"
        }
      ],
      "name": "updatePrice",
      "outputs": [],
      "stateMutability": "nonpayable",
      "type": "function"
    }
  ],
  "bytecode": "0x6080806040523461002857600580546001600160a01b031916331790556125b7908161002e8239f35b600080fdfe6080604052600436101561001257600080fd5b60003560e01c80631cd1f15214611bab5780631fc6b0e414611b8f57806351cac6b614611abc578063524f3889146119e857806361c992a3146119a95780636301a1431461198c57806368fbe23e146118995780638da5cb5b14611870578063925d81ae14611617578063a0b4b301146115cc578063a7c6b52e14611388578063ad089ff71461136b578063b08923fb14610a2c578063bfb9ffac146109de578063c2c95960146108f1578063c621d66b146105a3578063dc5f8e32146102bf578063e5406dbf14610224578063f2fde38b146101a05763f9172888146100f857600080fd5b3461019b57602036600319011261019b576004356001600160401b03811161019b57610142602061012f60e0933690600401611ca3565b8160405193828580945193849201611d50565b8101600081520301902080549060018101549060028101546003820154600483015491600660ff600586015416940154946040519687526020870152604086015260608501526080840152151560a083015260c0820152f35b600080fd5b3461019b57602036600319011261019b576101b9611cf9565b600554906001600160a01b03906101d33383851614611f3d565b169081156101eb576001600160a01b03191617600555005b60405162461bcd60e51b815260206004820152601160248201527024b73b30b634b2103732bb9037bbb732b960791b6044820152606490fd5b3461019b57600036600319011261019b576006546102418161210e565b9061024f6040519283611c82565b80825260209081830160066000527ff652222313e28459528d920b65115c16c04f3efc82aaedc97be59f3f377c0d3f836000925b8484106102a1576040518281528061029d8185018a611ee1565b0390f35b60019182916102af85611ddf565b8152019201920191908490610283565b3461019b5760208060031936011261019b576004356001600160401b03811161019b576102f0903690600401611ca3565b90604051908251926103228282019461030a818688611d50565b840160048152848460ff9687930301902054166120bd565b61033460405194859251928391611d50565b83019281816001958681520301902080549061034f8261210e565b9361035d6040519586611c82565b8285526000918252838220908486015b84841061053c5786868982519161039c6103868461210e565b936103946040519586611c82565b80855261210e565b93818401601f198096013682378151866103ce6103b88361210e565b926103c66040519485611c82565b80845261210e565b0160005b81811061052d5750508251926104006103ea8561210e565b946103f86040519687611c82565b80865261210e565b84860198013689376000865b61049b575b5050604051956060870190606088525180915260808701929060005b81811061047f5750505081610449918786940384890152611ee1565b918583036040870152519182815201949160005b82811061046a5785870386f35b8351151587529581019592810192840161045d565b82516001600160a01b031685529386019391860191870161042d565b9086989691819695965181101561052157610515906001600160a01b036104c28285612157565b5151166104cf828c612157565b52866104db8285612157565b5101516104e88287612157565b526104f38186612157565b5060606105008285612157565b510151151561050f828a612157565b526120ff565b9091969895949561040c565b50979597949394610411565b606083820187015285016103d2565b600686899260405161054d81611c67565b86546001600160a01b03168152610565858801611ddf565b8382015260028701546040820152856003880154161515606082015260048701546080820152600587015460a082015281520193019301929161036d565b3461019b5760a036600319011261019b576001600160401b0360043581811161019b576105d4903690600401611ca3565b6001600160a01b0360248035828116949293919085900361019b57604492833590811161019b57610609903690600401611ca3565b9260648035916084359261062288600554163314611f3d565b60405197865161065260ff60209b8c81818d0195610641818389611d50565b8101600481520301902054166120bd565b8a156108b657821515806108ac575b15610879576103e88611610837578961068591604051809381928c51928391611d50565b81016001815203019020936000938554945b8581106107dc57505050604051906106ae82611c67565b8a8252898201918983526040810193845260608101946001865260808201966000885260a08301988952600160401b8210156107c757906106f491600182018155611d73565b9890986107b35750937f322f1cf31a2d7611d461c8f27b868e0c1deb69982979aecfb1781d958aae0b40999896936107546107999997946107729460059851166bffffffffffffffffffffffff60a01b8a54161789555160018901611fd6565b516002870155511515600386019060ff801983541691151516179055565b5160048401555191015585600052600385526040600020600160ff1982541617905561209d565b926107ae604051928284938452830190611e85565b0390a3005b634e487b7160e01b60005260006004526000fd5b89634e487b7160e01b60005260416004526000fd5b8c846107e8838a611d73565b505416146107fe576107f9906120ff565b610697565b50744f7261636c6520616c72656164792065786973747360581b8b9160158a6040519462461bcd60e51b86526004860152840152820152fd5b60405162461bcd60e51b8152600481018b9052601c818901527f446576696174696f6e207468726573686f6c6420746f6f206869676800000000818601528590fd5b60405162461bcd60e51b8152600481018b9052600e818901526d125b9d985b1a59081dd95a59da1d60921b818601528590fd5b5084831115610661565b60405162461bcd60e51b8152600481018b905260168189015275496e76616c6964206f7261636c65206164647265737360501b818601528590fd5b3461019b57604036600319011261019b576001600160401b0360043581811161019b57610922903690600401611ca3565b9060243590811161019b576109d96109c46109627fb960e673d9efa7e5a679e7e2969eb10967f3339127d77706c99fc70518dfa194933690600401611ca3565b9361097860018060a01b03600554163314611f3d565b60056109ac602060405161099b60ff8651928481818a0195610641818389611d50565b604051809381928751928391611d50565b810160008152030190200160ff19815416905561209d565b92604051918291602083526020830190611e85565b0390a2005b3461019b57602036600319011261019b576004356001600160401b03811161019b5760ff610a16602061012f81943690600401611ca3565b8101600481520301902054166040519015158152f35b3461019b57606036600319011261019b576004356001600160401b03811161019b57610a5c903690600401611ca3565b6024356044359033600052600360205260ff604060002054161561132e57610a9460ff60405160208187516106418183858c01611d50565b80156112f957811515806112ee575b156112b457610b2c9160405191610ab983611c4c565b82524260208301526040820152600160608201526040516020818551610ae28183858a01611d50565b8101600281520301902033600052602052600360606040600020928051845560208101516001850155604081015160028501550151151591019060ff801983541691151516179055565b6040516020818351610b418183858801611d50565b8101600181520301902060005b81548110156112ad57610b618183611d73565b50546001600160a01b03163314610b8057610b7b906120ff565b610b4e565b610b8991611d73565b506004429101555b6040516020818351610ba68183858801611d50565b810160018152030190208054610bbb8161210e565b91610bc96040519384611c82565b818352602083019060005260206000206000915b838310611245578585600381511061120057610bf98151612125565b90610c048151612125565b6000906000805b8451811015610d36576060610c208287612157565b51015115610d2d5760405160208181610c3f8b83815193849201611d50565b6002908201908152030190206001600160a01b03610c5d8388612157565b515116600052602052604060002060405190610c7882611c4c565b80548252610e10610caf60ff600360018501549485602088015260028101546040880152015416926060850193151584524261216b565b11159081610d22575b50610ccd575b50610cc8906120ff565b610c0b565b610d15610cc8929593610d1b9251610ce5868b612157565b526040610cf2888a612157565b510151610cff8688612157565b526040610d0c888a612157565b51015190612178565b926120ff565b9390610cbe565b905051151589610cb8565b610cc8906120ff565b5084868492600384106111bc57610d4d84846121b8565b6040516020818551610d628183858a01611d50565b81016001815203019020908154610d788161210e565b92610d866040519485611c82565b818452602084019060005260206000206000915b838310611154575050505060005b868110610fb9575050506000805b858110610f81575090610dc891612198565b91610dd384826122bf565b936040516020818551610de98183858a01611d50565b81016000815203019020918254600184019080825586855542600286015587600686015580610e82575b877fb9eff63454e8f3e7e3a0591926665ec3da6f4d9d4072630ddac1bb0b9836d506606089610e6d8a610e688b60056064610e4e8e8e6123cc565b8060048501551091019060ff801983541691151516179055565b61209d565b936040519182524260208301526040820152a2005b80879596939711600014610f1957505491610e9d838561216b565b9461271095868102968188041490151715610f035760056064610e4e610e68947fb9eff63454e8f3e7e3a0591926665ec3da6f4d9d4072630ddac1bb0b9836d5069a610eee610e6d9960609c612198565b60038701555b96995096505050509395610e13565b634e487b7160e01b600052601160045260246000fd5b929050610f26848461216b565b9461271095868102968188041490151715610f035760056064610e4e610e68947fb9eff63454e8f3e7e3a0591926665ec3da6f4d9d4072630ddac1bb0b9836d5069a610f77610e6d9960609c612198565b6003870155610ef4565b90610fae610fb491610fa8610f968589612157565b51610fa1868c612157565b5190612185565b90612178565b916120ff565b610db6565b81610fc48288612157565b51111561111c57610fdf82610fd98389612157565b5161216b565b612710908082810204821481151715610f0357610ffe91849102612198565b60a061100a8386612157565b5101518111611023575b5061101e906120ff565b610da8565b6001600160a01b03906103e8908261103b8588612157565b5151166110478961209d565b7f5856d3020bde4cb057744e8328426d30bcf897c999a9720f02a2bfde678368466020604051858152a311156110145797929590969193948861108a8989612157565b5151169560405160208184516110a38183858901611d50565b810160018152030190209760005b895481101561110757888c6110c6838d611d73565b505416146110dc576110d7906120ff565b6110b1565b6110f691969b5060039297959a93985061101e9499611d73565b5001805460ff191690555b90611014565b5094995094929790955061101e919650611101565b6111306111298288612157565b518361216b565b612710908082810204821481151715610f035761114f91849102612198565b610ffe565b6006602060019260405161116781611c67565b848060a01b03865416815261117d858701611ddf565b838201526002860154604082015260ff6003870154161515606082015260048601546080820152600586015460a0820152815201920192019190610d9a565b606460405162461bcd60e51b815260206004820152602060248201527f496e73756666696369656e742076616c6964206f7261636c65207072696365736044820152fd5b60405162461bcd60e51b815260206004820152601b60248201527f496e73756666696369656e74206f7261636c6520736f757263657300000000006044820152606490fd5b6006602060019260405161125881611c67565b848060a01b03865416815261126e858701611ddf565b838201526002860154604082015260ff6003870154161515606082015260048601546080820152600586015460a0820152815201920192019190610bdd565b5050610b91565b60405162461bcd60e51b8152602060048201526012602482015271496e76616c696420636f6e666964656e636560701b6044820152606490fd5b506064821115610aa3565b60405162461bcd60e51b815260206004820152600d60248201526c496e76616c696420707269636560981b6044820152606490fd5b60405162461bcd60e51b81526020600482015260156024820152744e6f7420617574686f72697a6564206f7261636c6560581b6044820152606490fd5b3461019b57600036600319011261019b5760206040516103e88152f35b3461019b5760208060031936011261019b576004356001600160401b03811161019b576113b9903690600401611ca3565b6113ce60018060a01b03600554163314611f3d565b6040519160ff8251938281818601966113e881838a611d50565b8101600481520301902054166115885781511561154f5760405181818451611411818389611d50565b81016004815203019020600160ff19825416179055600654600160401b811015611539578060016114459201600655611eaa565b611523576114fc9361145984600693611fd6565b6114f36040519361146985611c31565b600085528085016000815260408601600081526060870190600082526080880192600084526114b560a08a01956001875260c08b019860008a528c604051938492839251928391611d50565b8101600081520301902098518955516001890155516002880155516003870155516004860155511515600585019060ff801983541691151516179055565b5191015561209d565b7f724df0596d75f7cca867e95fdadd6c1397e175dc9a54f0a3f46167ec8577ecae600080a2005b634e487b7160e01b600052600060045260246000fd5b634e487b7160e01b600052604160045260246000fd5b6064906040519062461bcd60e51b825260048201526012602482015271496e76616c6964206173736574206e616d6560701b6044820152fd5b6064906040519062461bcd60e51b82526004820152601760248201527f417373657420616c726561647920737570706f727465640000000000000000006044820152fd5b3461019b57602036600319011261019b5760043560065481101561019b576115f390611eaa565b6115235761160361029d91611ddf565b604051918291602083526020830190611e85565b3461019b5761168861162836611d0f565b6005805491926001600160a01b03926116449084163314611f3d565b6040519281519060209161167883850191611660818985611d50565b870160048152878560ff998a930301902054166120bd565b6040519788918551928391611d50565b8701948783600199888b809a5203019020916000985b6116a457005b8254808a101561186e57816116b98b86611d73565b50541690828a168092146116e25750506116d8879899979596976120ff565b989796959461169e565b93949597969850989160001993848101908111610f035761170661170e9187611d73565b509386611d73565b939093611523578992818503611808575b5050505050815480156117f25701906117388282611d73565b9490946115235761178d966000918287558087016117568154611da5565b806117b4575b50505081600287015560039582878201558260048201550155558460005252604060002060ff19815416905561209d565b7fb2e6642ce17b2a48851ea5daf94f434d26f2d9bb7854a410487cb4588c118375600080a3005b8492601f8083116001146117cf57505050555b89808061175c565b83916117eb9186949585528b85209501871c8501908501611f7a565b55556117c7565b634e487b7160e01b600052603160045260246000fd5b815485546001600160a01b031916911617845582916118559061182f8a84018b88016124a5565b6002808401549087015560039081840154169086019060ff801983541691151516179055565b600481015460048501550154910155878681808061171f565b005b3461019b57600036600319011261019b576005546040516001600160a01b039091168152602090f35b3461019b5760208060031936011261019b57600435906001600160401b03821161019b576118ff816118d160e0943690600401611ca3565b604051906118ee60ff82519385818186019661064181838a611d50565b604051938492839251928391611d50565b810160008152030190209060c06040519261191984611c31565b8054938481526001820154938481830152600283015494856040840152600384015491826060850152600485015493846080820152600660ff6005880154161515968760a08401520154968791015260405197885287015260408601526060850152608084015260a083015260c0820152f35b3461019b57600036600319011261019b576020604051610e108152f35b3461019b57602036600319011261019b576001600160a01b036119ca611cf9565b166000526003602052602060ff604060002054166040519015158152f35b3461019b57602036600319011261019b576004356001600160401b03811161019b5760206118d1611a1d923690600401611ca3565b8101600081520301902060405190611a3482611c31565b805482526001810154602083015261029d600282015492610e10611a8e60066040840195878752600381015460608601526004810154608086015260ff600582015416151560a086015201549560c084019687524261216b565b1190519251935160405194859485926060929594919560808501968552602085015260408401521515910152565b3461019b57604036600319011261019b576004356001600160401b03811161019b57611aec903690600401611ca3565b611b086020602435928160405193828580945193849201611d50565b8101600181520301902090815481101561019b57611b2591611d73565b5080546001600160a01b0316611b3d60018301611ddf565b9160028101549060ff600382015416906005600482015491015491611b74604051968796875260c0602088015260c0870190611e85565b93604086015215156060850152608084015260a08301520390f35b3461019b57600036600319011261019b57602060405160038152f35b3461019b576020611bd3611bbe36611d0f565b92908160405193828580945193849201611d50565b810160028152030190209060018060a01b03166000526020526040600020805461029d60018301549260ff60036002830154920154169060405194859485926060929594919560808501968552602085015260408401521515910152565b60e081019081106001600160401b0382111761153957604052565b608081019081106001600160401b0382111761153957604052565b60c081019081106001600160401b0382111761153957604052565b90601f801991011681019081106001600160401b0382111761153957604052565b81601f8201121561019b578035906001600160401b0382116115395760405192611cd7601f8401601f191660200185611c82565b8284526020838301011161019b57816000926020809301838601378301015290565b600435906001600160a01b038216820361019b57565b604060031982011261019b57600435906001600160401b03821161019b57611d3991600401611ca3565b906024356001600160a01b038116810361019b5790565b60005b838110611d635750506000910152565b8181015183820152602001611d53565b8054821015611d8f576000526006602060002091020190600090565b634e487b7160e01b600052603260045260246000fd5b90600182811c92168015611dd5575b6020831014611dbf57565b634e487b7160e01b600052602260045260246000fd5b91607f1691611db4565b9060405191826000825492611df384611da5565b908184526001948581169081600014611e625750600114611e1f575b5050611e1d92500383611c82565b565b9093915060005260209081600020936000915b818310611e4a575050611e1d93508201013880611e0f565b85548884018501529485019487945091830191611e32565b915050611e1d94506020925060ff191682840152151560051b8201013880611e0f565b90602091611e9e81518092818552858086019101611d50565b601f01601f1916010190565b600654811015611d8f5760066000527ff652222313e28459528d920b65115c16c04f3efc82aaedc97be59f3f377c0d3f0190600090565b908082519081815260208091019281808460051b8301019501936000915b848310611f0f5750505050505090565b9091929394958480611f2d600193601f198682030187528a51611e85565b9801930193019194939290611eff565b15611f4457565b60405162461bcd60e51b815260206004820152600e60248201526d139bdd08185d5d1a1bdc9a5e995960921b6044820152606490fd5b818110611f85575050565b60008155600101611f7a565b9190601f8111611fa057505050565b611e1d926000526020600020906020601f840160051c83019310611fcc575b601f0160051c0190611f7a565b9091508190611fbf565b91909182516001600160401b03811161153957611ffd81611ff78454611da5565b84611f91565b602080601f831160011461203957508192939460009261202e575b50508160011b916000199060031b1c1916179055565b015190503880612018565b90601f198316958460005282600020926000905b8882106120855750508360019596971061206c575b505050811b019055565b015160001960f88460031b161c19169055388080612062565b8060018596829496860151815501950193019061204d565b6120b590602060405192828480945193849201611d50565b810103902090565b156120c457565b60405162461bcd60e51b8152602060048201526013602482015272105cdcd95d081b9bdd081cdd5c1c1bdc9d1959606a1b6044820152606490fd5b6000198114610f035760010190565b6001600160401b0381116115395760051b60200190565b9061212f8261210e565b61213c6040519182611c82565b828152809261214d601f199161210e565b0190602036910137565b8051821015611d8f5760209160051b010190565b91908203918211610f0357565b91908201809211610f0357565b81810292918115918404141715610f0357565b81156121a2570490565b634e487b7160e01b600052601260045260246000fd5b916000905b60001990838201848111610f035783101561226b5760005b6121df848661216b565b838101908111610f0357811015612259576121fa8187612157565b519060018101808211610f035761222292612215828a612157565b5110612227575b506120ff565b6121d5565b612252612234838a612157565b5191612240818b612157565b5161224b858c612157565b5289612157565b523861221c565b509161226591506120ff565b906121bd565b9392915050600181166122ad5760011c906000198201828111610f03576122a7926122996122a09284612157565b5192612157565b5190612178565b60011c90565b906122bb9160011c90612157565b5190565b9190600381106123c5576122d381846121b8565b60009384915b83861061231d5750506122ed929350612198565b600181111561231757600581111561231157600a101561230c57603290565b604b90565b50605a90565b50606490565b90918161232a8785612157565b5111600090600014612377575061234582610fd98886612157565b606490818102918183041490151715610f035761236f91610fa88461236993612198565b956120ff565b9491906122d9565b61238b6123848886612157565b518461216b565b906064918281029281840414901517156123b1575061236f91610fa88461236993612198565b634e487b7160e01b81526011600452602490fd5b5060009150565b906002811061249e57600081815b818310612483576123eb9250612198565b9160009081905b83821061242f5750509061240591612198565b61271090818102918183041490151715610f03576124268261242c93612185565b90612198565b90565b9091610d1561246191866124438686612157565b51111561246757610fa861245b88610fd98888612157565b80612185565b906123f2565b610fa861247e6124778787612157565b518961216b565b61245b565b6124969150610fae906122a08487612157565b9082906123da565b5050600090565b9080821461257d576124b78154611da5565b906001600160401b0382116115395781906124dc826124d68654611da5565b86611f91565b600090601f8311600114612512576000926125075750508160011b916000199060031b1c1916179055565b015490503880612018565b81526020808220858352818320935090601f1985169083905b82821061256457505090846001959493921061254b57505050811b019055565b015460001960f88460031b161c19169055388080612062565b849581929585015481556001809101960194019061252b565b505056fea2646970667358221220ff7b69207f117f2a47abc6a716001fcd337cfc8f93d933fe862eb5e52f1619e264736f6c63430008130033",
  "linkReferences": {},
  "deployedLinkReferences": {}
}