{"abi":[{"type":"constructor","inputs":[{"name":"feeCollector_","type":"address","internalType":"address"}],"stateMutability":"nonpayable"},{"type":"receive","stateMutability":"payable"},{"type":"function","name":"DEFAULT_FEE_RATE","inputs":[],"outputs":[{"name":"","type":"uint256","internalType":"uint256"}],"stateMutability":"view"},{"type":"function","name":"MAX_BATCH_SIZE","inputs":[],"outputs":[{"name":"","type":"uint256","internalType":"uint256"}],"stateMutability":"view"},{"type":"function","name":"MAX_FEE_RATE","inputs":[],"outputs":[{"name":"","type":"uint256","internalType":"uint256"}],"stateMutability":"view"},{"type":"function","name":"PRECISION","inputs":[],"outputs":[{"name":"","type":"uint256","internalType":"uint256"}],"stateMutability":"view"},{"type":"function","name":"authorizeMerchant","inputs":[{"name":"merchant","type":"address","internalType":"address"},{"name":"feeRate","type":"uint256","internalType":"uint256"}],"outputs":[],"stateMutability":"nonpayable"},{"type":"function","name":"batchProcessPayments","inputs":[{"name":"paymentIds","type":"bytes32[]","internalType":"bytes32[]"}],"outputs":[],"stateMutability":"nonpayable"},{"type":"function","name":"cancelPayment","inputs":[{"name":"paymentId","type":"bytes32","internalType":"bytes32"},{"name":"reason","type":"string","internalType":"string"}],"outputs":[],"stateMutability":"nonpayable"},{"type":"function","name":"completePayment","inputs":[{"name":"paymentId","type":"bytes32","internalType":"bytes32"}],"outputs":[],"stateMutability":"nonpayable"},{"type":"function","name":"createPayment","inputs":[{"name":"payee","type":"address","internalType":"address"},{"name":"amount","type":"uint256","internalType":"uint256"},{"name":"ref","type":"bytes32","internalType":"bytes32"}],"outputs":[{"name":"","type":"bytes32","internalType":"bytes32"}],"stateMutability":"payable"},{"type":"function","name":"emergencyWithdraw","inputs":[],"outputs":[],"stateMutability":"nonpayable"},{"type":"function","name":"escrowBalance","inputs":[{"name":"account","type":"address","internalType":"address"}],"outputs":[{"name":"","type":"uint256","internalType":"uint256"}],"stateMutability":"view"},{"type":"function","name":"feeCollector","inputs":[],"outputs":[{"name":"","type":"address","internalType":"address"}],"stateMutability":"view"},{"type":"function","name":"getMerchantFeeRate","inputs":[{"name":"merchant","type":"address","internalType":"address"}],"outputs":[{"name":"","type":"uint256","internalType":"uint256"}],"stateMutability":"view"},{"type":"function","name":"getPayment","inputs":[{"name":"paymentId","type":"bytes32","internalType":"bytes32"}],"outputs":[{"name":"","type":"tuple","internalType":"struct ModularPaymentProcessor.Payment","components":[{"name":"payer","type":"address","internalType":"address"},{"name":"payee","type":"address","internalType":"address"},{"name":"amount","type":"uint256","internalType":"uint256"},{"name":"fee","type":"uint256","internalType":"uint256"},{"name":"status","type":"uint8","internalType":"enum ModularPaymentProcessor.PaymentStatus"},{"name":"timestamp","type":"uint256","internalType":"uint256"},{"name":"ref","type":"bytes32","internalType":"bytes32"}]}],"stateMutability":"view"},{"type":"function","name":"isAuthorizedMerchant","inputs":[{"name":"merchant","type":"address","internalType":"address"}],"outputs":[{"name":"","type":"bool","internalType":"bool"}],"stateMutability":"view"},{"type":"function","name":"owner","inputs":[],"outputs":[{"name":"","type":"address","internalType":"address"}],"stateMutability":"view"},{"type":"function","name":"pause","inputs":[],"outputs":[],"stateMutability":"nonpayable"},{"type":"function","name":"paused","inputs":[],"outputs":[{"name":"","type":"bool","internalType":"bool"}],"stateMutability":"view"},{"type":"function","name":"renounceOwnership","inputs":[],"outputs":[],"stateMutability":"nonpayable"},{"type":"function","name":"setFeeCollector","inputs":[{"name":"newCollector","type":"address","internalType":"address"}],"outputs":[],"stateMutability":"nonpayable"},{"type":"function","name":"totalFees","inputs":[],"outputs":[{"name":"","type":"uint256","internalType":"uint256"}],"stateMutability":"view"},{"type":"function","name":"totalProcessed","inputs":[],"outputs":[{"name":"","type":"uint256","internalType":"uint256"}],"stateMutability":"view"},{"type":"function","name":"transferOwnership","inputs":[{"name":"newOwner","type":"address","internalType":"address"}],"outputs":[],"stateMutability":"nonpayable"},{"type":"function","name":"unpause","inputs":[],"outputs":[],"stateMutability":"nonpayable"},{"type":"event","name":"BatchPaymentProcessed","inputs":[{"name":"count","type":"uint256","indexed":false,"internalType":"uint256"},{"name":"totalAmount","type":"uint256","indexed":false,"internalType":"uint256"}],"anonymous":false},{"type":"event","name":"EscrowDeposit","inputs":[{"name":"account","type":"address","indexed":true,"internalType":"address"},{"name":"amount","type":"uint256","indexed":false,"internalType":"uint256"}],"anonymous":false},{"type":"event","name":"EscrowWithdraw","inputs":[{"name":"account","type":"address","indexed":true,"internalType":"address"},{"name":"amount","type":"uint256","indexed":false,"internalType":"uint256"}],"anonymous":false},{"type":"event","name":"MerchantAuthorized","inputs":[{"name":"merchant","type":"address","indexed":true,"internalType":"address"},{"name":"feeRate","type":"uint256","indexed":false,"internalType":"uint256"}],"anonymous":false},{"type":"event","name":"OwnershipTransferred","inputs":[{"name":"previousOwner","type":"address","indexed":true,"internalType":"address"},{"name":"newOwner","type":"address","indexed":true,"internalType":"address"}],"anonymous":false},{"type":"event","name":"Paused","inputs":[{"name":"account","type":"address","indexed":false,"internalType":"address"}],"anonymous":false},{"type":"event","name":"PaymentCancelled","inputs":[{"name":"paymentId","type":"bytes32","indexed":true,"internalType":"bytes32"},{"name":"reason","type":"string","indexed":false,"internalType":"string"}],"anonymous":false},{"type":"event","name":"PaymentCompleted","inputs":[{"name":"paymentId","type":"bytes32","indexed":true,"internalType":"bytes32"},{"name":"fee","type":"uint256","indexed":false,"internalType":"uint256"}],"anonymous":false},{"type":"event","name":"PaymentCreated","inputs":[{"name":"paymentId","type":"bytes32","indexed":true,"internalType":"bytes32"},{"name":"payer","type":"address","indexed":true,"internalType":"address"},{"name":"payee","type":"address","indexed":true,"internalType":"address"},{"name":"amount","type":"uint256","indexed":false,"internalType":"uint256"}],"anonymous":false},{"type":"event","name":"Unpaused","inputs":[{"name":"account","type":"address","indexed":false,"internalType":"address"}],"anonymous":false},{"type":"error","name":"EnforcedPause","inputs":[]},{"type":"error","name":"ExpectedPause","inputs":[]},{"type":"error","name":"OwnableInvalidOwner","inputs":[{"name":"owner","type":"address","internalType":"address"}]},{"type":"error","name":"OwnableUnauthorizedAccount","inputs":[{"name":"account","type":"address","internalType":"address"}]},{"type":"error","name":"ReentrancyGuardReentrantCall","inputs":[]}],"bytecode":{"object":"0x608060405234801561000f575f5ffd5b50604051612fa8380380612fa8833981810160405281019061003191906102b8565b3360015f819055505f73ffffffffffffffffffffffffffffffffffffffff168173ffffffffffffffffffffffffffffffffffffffff16036100a9575f6040517f1e4fbdf70000000000000000000000000000000000000000000000000000000081526004016100a091906102f2565b60405180910390fd5b6100b88161019760201b60201c565b508060085f6101000a81548173ffffffffffffffffffffffffffffffffffffffff021916908373ffffffffffffffffffffffffffffffffffffffff160217905550600160045f3373ffffffffffffffffffffffffffffffffffffffff1673ffffffffffffffffffffffffffffffffffffffff1681526020019081526020015f205f6101000a81548160ff02191690831515021790555060fa60055f3373ffffffffffffffffffffffffffffffffffffffff1673ffffffffffffffffffffffffffffffffffffffff1681526020019081526020015f20819055505061030b565b5f60015f9054906101000a900473ffffffffffffffffffffffffffffffffffffffff1690508160015f6101000a81548173ffffffffffffffffffffffffffffffffffffffff021916908373ffffffffffffffffffffffffffffffffffffffff1602179055508173ffffffffffffffffffffffffffffffffffffffff168173ffffffffffffffffffffffffffffffffffffffff167f8be0079c531659141344cd1fd0a4f28419497f9722a3daafe3b4186f6b6457e060405160405180910390a35050565b5f5ffd5b5f73ffffffffffffffffffffffffffffffffffffffff82169050919050565b5f6102878261025e565b9050919050565b6102978161027d565b81146102a1575f5ffd5b50565b5f815190506102b28161028e565b92915050565b5f602082840312156102cd576102cc61025a565b5b5f6102da848285016102a4565b91505092915050565b6102ec8161027d565b82525050565b5f6020820190506103055f8301846102e3565b92915050565b612c90806103185f395ff3fe60806040526004361061014e575f3560e01c80638456cb59116100b5578063c415b95c1161006e578063c415b95c146104d2578063cfdbf254146104fc578063db2e21bc14610526578063e66eefc81461053c578063f2fde38b14610578578063fbc958fd146105a0576101f6565b80638456cb59146103ee5780638da5cb5b1461040457806392f6576e1461042e578063a204a40214610458578063a42dce8014610480578063aaf5eb68146104a8576101f6565b8063498ae70411610107578063498ae704146102dc5780634e564d621461030c57806355af6353146103485780635c975abb14610384578063715018a6146103ae57806384411d65146103c4576101f6565b806313114a9d146101fa5780631ecfca921461022457806328a0b42c1461024e5780633450b414146102765780633f4ba83a1461029e57806347ca8a8b146102b4576101f6565b366101f6573460035f3373ffffffffffffffffffffffffffffffffffffffff1673ffffffffffffffffffffffffffffffffffffffff1681526020019081526020015f205f82825461019f9190611f98565b925050819055503373ffffffffffffffffffffffffffffffffffffffff167fc9030f4276aa9a54d2f20e78ab66876119c07f7bc8bff21fb4762855efdecd2f346040516101ec9190611fda565b60405180910390a2005b5f5ffd5b348015610205575f5ffd5b5061020e6105dc565b60405161021b9190611fda565b60405180910390f35b34801561022f575f5ffd5b506102386105e5565b6040516102459190611fda565b60405180910390f35b348015610259575f5ffd5b50610274600480360381019061026f919061208f565b6105ea565b005b348015610281575f5ffd5b5061029c60048036038101906102979190612170565b610963565b005b3480156102a9575f5ffd5b506102b2610b07565b005b3480156102bf575f5ffd5b506102da60048036038101906102d591906121ae565b610b19565b005b6102f660048036038101906102f191906121d9565b610f7d565b6040516103039190612238565b60405180910390f35b348015610317575f5ffd5b50610332600480360381019061032d9190612251565b6113a7565b60405161033f9190611fda565b60405180910390f35b348015610353575f5ffd5b5061036e60048036038101906103699190612251565b6113ed565b60405161037b9190611fda565b60405180910390f35b34801561038f575f5ffd5b50610398611433565b6040516103a59190612296565b60405180910390f35b3480156103b9575f5ffd5b506103c2611449565b005b3480156103cf575f5ffd5b506103d861145c565b6040516103e59190611fda565b60405180910390f35b3480156103f9575f5ffd5b50610402611465565b005b34801561040f575f5ffd5b50610418611477565b60405161042591906122be565b60405180910390f35b348015610439575f5ffd5b5061044261149f565b60405161044f9190611fda565b60405180910390f35b348015610463575f5ffd5b5061047e6004803603810190610479919061232c565b6114a5565b005b34801561048b575f5ffd5b506104a660048036038101906104a19190612251565b6117ec565b005b3480156104b3575f5ffd5b506104bc6118a5565b6040516104c99190611fda565b60405180910390f35b3480156104dd575f5ffd5b506104e66118b1565b6040516104f391906122be565b60405180910390f35b348015610507575f5ffd5b506105106118d9565b60405161051d9190611fda565b60405180910390f35b348015610531575f5ffd5b5061053a6118de565b005b348015610547575f5ffd5b50610562600480360381019061055d91906121ae565b611933565b60405161056f91906124a3565b60405180910390f35b348015610583575f5ffd5b5061059e60048036038101906105999190612251565b611a69565b005b3480156105ab575f5ffd5b506105c660048036038101906105c19190612251565b611aed565b6040516105d39190612296565b60405180910390f35b5f600754905090565b60fa81565b6105f2611b3f565b6105fa611b83565b825f73ffffffffffffffffffffffffffffffffffffffff1660025f8381526020019081526020015f205f015f9054906101000a900473ffffffffffffffffffffffffffffffffffffffff1673ffffffffffffffffffffffffffffffffffffffff160361069b576040517f08c379a000000000000000000000000000000000000000000000000000000000815260040161069290612516565b60405180910390fd5b5f60025f8681526020019081526020015f2090505f60048111156106c2576106c1612395565b5b816004015f9054906101000a900460ff1660048111156106e5576106e4612395565b5b14610725576040517f08c379a000000000000000000000000000000000000000000000000000000000815260040161071c9061257e565b60405180910390fd5b805f015f9054906101000a900473ffffffffffffffffffffffffffffffffffffffff1673ffffffffffffffffffffffffffffffffffffffff163373ffffffffffffffffffffffffffffffffffffffff1614806107b35750610784611477565b73ffffffffffffffffffffffffffffffffffffffff163373ffffffffffffffffffffffffffffffffffffffff16145b6107f2576040517f08c379a00000000000000000000000000000000000000000000000000000000081526004016107e9906125e6565b60405180910390fd5b6002816004015f6101000a81548160ff0219169083600481111561081957610818612395565b5b0217905550805f015f9054906101000a900473ffffffffffffffffffffffffffffffffffffffff1673ffffffffffffffffffffffffffffffffffffffff166108fc8260030154836002015461086e9190611f98565b90811502906040515f60405180830381858888f19350505050158015610896573d5f5f3e3d5ffd5b50847f6dc43c89e39efe1e75738eef3ec46154ac3d849ffe76d4ed17184f94fa1fd87485856040516108c992919061264e565b60405180910390a2805f015f9054906101000a900473ffffffffffffffffffffffffffffffffffffffff1673ffffffffffffffffffffffffffffffffffffffff167f5f8f8d9def8256789b7cf99031d7974645b0e479107040c86c996877685e9b568260030154836002015461093f9190611f98565b60405161094c9190611fda565b60405180910390a2505061095e611bc4565b505050565b61096b611bcd565b5f73ffffffffffffffffffffffffffffffffffffffff168273ffffffffffffffffffffffffffffffffffffffff16036109d9576040517f08c379a00000000000000000000000000000000000000000000000000000000081526004016109d0906126ba565b60405180910390fd5b6103e8811115610a1e576040517f08c379a0000000000000000000000000000000000000000000000000000000008152600401610a1590612722565b60405180910390fd5b600160045f8473ffffffffffffffffffffffffffffffffffffffff1673ffffffffffffffffffffffffffffffffffffffff1681526020019081526020015f205f6101000a81548160ff0219169083151502179055508060055f8473ffffffffffffffffffffffffffffffffffffffff1673ffffffffffffffffffffffffffffffffffffffff1681526020019081526020015f20819055508173ffffffffffffffffffffffffffffffffffffffff167f0c1d12f8dcf0691595280738ad358e50f609e45b754b56bb8214431b7e0661bb82604051610afb9190611fda565b60405180910390a25050565b610b0f611bcd565b610b17611c54565b565b610b21611b3f565b610b29611b83565b805f73ffffffffffffffffffffffffffffffffffffffff1660025f8381526020019081526020015f205f015f9054906101000a900473ffffffffffffffffffffffffffffffffffffffff1673ffffffffffffffffffffffffffffffffffffffff1603610bca576040517f08c379a0000000000000000000000000000000000000000000000000000000008152600401610bc190612516565b60405180910390fd5b5f60025f8481526020019081526020015f2090505f6004811115610bf157610bf0612395565b5b816004015f9054906101000a900460ff166004811115610c1457610c13612395565b5b14610c54576040517f08c379a0000000000000000000000000000000000000000000000000000000008152600401610c4b9061257e565b60405180910390fd5b805f015f9054906101000a900473ffffffffffffffffffffffffffffffffffffffff1673ffffffffffffffffffffffffffffffffffffffff163373ffffffffffffffffffffffffffffffffffffffff161480610cfe5750806001015f9054906101000a900473ffffffffffffffffffffffffffffffffffffffff1673ffffffffffffffffffffffffffffffffffffffff163373ffffffffffffffffffffffffffffffffffffffff16145b80610d3b5750610d0c611477565b73ffffffffffffffffffffffffffffffffffffffff163373ffffffffffffffffffffffffffffffffffffffff16145b610d7a576040517f08c379a0000000000000000000000000000000000000000000000000000000008152600401610d719061278a565b60405180910390fd5b6001816004015f6101000a81548160ff02191690836004811115610da157610da0612395565b5b0217905550806001015f9054906101000a900473ffffffffffffffffffffffffffffffffffffffff1673ffffffffffffffffffffffffffffffffffffffff166108fc826002015490811502906040515f60405180830381858888f19350505050158015610e10573d5f5f3e3d5ffd5b505f81600301541115610ea35760085f9054906101000a900473ffffffffffffffffffffffffffffffffffffffff1673ffffffffffffffffffffffffffffffffffffffff166108fc826003015490811502906040515f60405180830381858888f19350505050158015610e85573d5f5f3e3d5ffd5b50806003015460075f828254610e9b9190611f98565b925050819055505b806002015460065f828254610eb89190611f98565b92505081905550827fb30ca7228fcab8e38097d53b9b06cf96837e6892836a6419fb7890a32984a3738260030154604051610ef39190611fda565b60405180910390a2806001015f9054906101000a900473ffffffffffffffffffffffffffffffffffffffff1673ffffffffffffffffffffffffffffffffffffffff167f5f8f8d9def8256789b7cf99031d7974645b0e479107040c86c996877685e9b568260020154604051610f689190611fda565b60405180910390a25050610f7a611bc4565b50565b5f610f86611b3f565b610f8e611b83565b825f8111610fd1576040517f08c379a0000000000000000000000000000000000000000000000000000000008152600401610fc8906127f2565b60405180910390fd5b5f73ffffffffffffffffffffffffffffffffffffffff168573ffffffffffffffffffffffffffffffffffffffff160361103f576040517f08c379a00000000000000000000000000000000000000000000000000000000081526004016110369061285a565b60405180910390fd5b83341015611082576040517f08c379a0000000000000000000000000000000000000000000000000000000008152600401611079906128c2565b60405180910390fd5b5f338686428760405160200161109c959493929190612965565b6040516020818303038152906040528051906020012090505f6110bf3387611cb6565b905080866110cd9190611f98565b34101561110f576040517f08c379a000000000000000000000000000000000000000000000000000000000815260040161110690612a33565b60405180910390fd5b6040518060e001604052803373ffffffffffffffffffffffffffffffffffffffff1681526020018873ffffffffffffffffffffffffffffffffffffffff1681526020018781526020018281526020015f600481111561117157611170612395565b5b81526020014281526020018681525060025f8481526020019081526020015f205f820151815f015f6101000a81548173ffffffffffffffffffffffffffffffffffffffff021916908373ffffffffffffffffffffffffffffffffffffffff1602179055506020820151816001015f6101000a81548173ffffffffffffffffffffffffffffffffffffffff021916908373ffffffffffffffffffffffffffffffffffffffff16021790555060408201518160020155606082015181600301556080820151816004015f6101000a81548160ff0219169083600481111561125957611258612395565b5b021790555060a0820151816005015560c0820151816006015590505080866112819190611f98565b60035f3073ffffffffffffffffffffffffffffffffffffffff1673ffffffffffffffffffffffffffffffffffffffff1681526020019081526020015f205f8282546112cc9190611f98565b925050819055508673ffffffffffffffffffffffffffffffffffffffff163373ffffffffffffffffffffffffffffffffffffffff16837fbfeae722deab5b34e41d6867882cfdbe3e53c6fa2701c3d62fe607cfb90482ce896040516113319190611fda565b60405180910390a43373ffffffffffffffffffffffffffffffffffffffff167fc9030f4276aa9a54d2f20e78ab66876119c07f7bc8bff21fb4762855efdecd2f828861137d9190611f98565b60405161138a9190611fda565b60405180910390a28193505050506113a0611bc4565b9392505050565b5f60055f8373ffffffffffffffffffffffffffffffffffffffff1673ffffffffffffffffffffffffffffffffffffffff1681526020019081526020015f20549050919050565b5f60035f8373ffffffffffffffffffffffffffffffffffffffff1673ffffffffffffffffffffffffffffffffffffffff1681526020019081526020015f20549050919050565b5f600160149054906101000a900460ff16905090565b611451611bcd565b61145a5f611d82565b565b5f600654905090565b61146d611bcd565b611475611e45565b565b5f60015f9054906101000a900473ffffffffffffffffffffffffffffffffffffffff16905090565b6103e881565b6114ad611b3f565b6114b5611b83565b6114bd611bcd565b6064828290501115611504576040517f08c379a00000000000000000000000000000000000000000000000000000000081526004016114fb90612a9b565b60405180910390fd5b5f5f90505f5f90505f5f90505b8484905081101561178c575f60025f87878581811061153357611532612ab9565b5b9050602002013581526020019081526020015f2090505f73ffffffffffffffffffffffffffffffffffffffff16815f015f9054906101000a900473ffffffffffffffffffffffffffffffffffffffff1673ffffffffffffffffffffffffffffffffffffffff16141580156115da57505f60048111156115b5576115b4612395565b5b816004015f9054906101000a900460ff1660048111156115d8576115d7612395565b5b145b1561177e576001816004015f6101000a81548160ff0219169083600481111561160657611605612395565b5b0217905550806001015f9054906101000a900473ffffffffffffffffffffffffffffffffffffffff1673ffffffffffffffffffffffffffffffffffffffff166108fc826002015490811502906040515f60405180830381858888f19350505050158015611675573d5f5f3e3d5ffd5b505f816003015411156117085760085f9054906101000a900473ffffffffffffffffffffffffffffffffffffffff1673ffffffffffffffffffffffffffffffffffffffff166108fc826003015490811502906040515f60405180830381858888f193505050501580156116ea573d5f5f3e3d5ffd5b50806003015460075f8282546117009190611f98565b925050819055505b8060020154846117189190611f98565b9350828061172590612ae6565b93505085858381811061173b5761173a612ab9565b5b905060200201357fb30ca7228fcab8e38097d53b9b06cf96837e6892836a6419fb7890a32984a37382600301546040516117759190611fda565b60405180910390a25b508080600101915050611511565b508160065f82825461179e9190611f98565b925050819055507fa0f05dcbac978bf7d991be40e9d81851753abbcd36c012e8d65441c73e7b1cd381836040516117d6929190612b2d565b60405180910390a150506117e8611bc4565b5050565b6117f4611bcd565b5f73ffffffffffffffffffffffffffffffffffffffff168173ffffffffffffffffffffffffffffffffffffffff1603611862576040517f08c379a000000000000000000000000000000000000000000000000000000000815260040161185990612b9e565b60405180910390fd5b8060085f6101000a81548173ffffffffffffffffffffffffffffffffffffffff021916908373ffffffffffffffffffffffffffffffffffffffff16021790555050565b670de0b6b3a764000081565b5f60085f9054906101000a900473ffffffffffffffffffffffffffffffffffffffff16905090565b606481565b6118e6611bcd565b6118ee611477565b73ffffffffffffffffffffffffffffffffffffffff166108fc4790811502906040515f60405180830381858888f19350505050158015611930573d5f5f3e3d5ffd5b50565b61193b611eee565b60025f8381526020019081526020015f206040518060e00160405290815f82015f9054906101000a900473ffffffffffffffffffffffffffffffffffffffff1673ffffffffffffffffffffffffffffffffffffffff1673ffffffffffffffffffffffffffffffffffffffff168152602001600182015f9054906101000a900473ffffffffffffffffffffffffffffffffffffffff1673ffffffffffffffffffffffffffffffffffffffff1673ffffffffffffffffffffffffffffffffffffffff1681526020016002820154815260200160038201548152602001600482015f9054906101000a900460ff166004811115611a3857611a37612395565b5b6004811115611a4a57611a49612395565b5b8152602001600582015481526020016006820154815250509050919050565b611a71611bcd565b5f73ffffffffffffffffffffffffffffffffffffffff168173ffffffffffffffffffffffffffffffffffffffff1603611ae1575f6040517f1e4fbdf7000000000000000000000000000000000000000000000000000000008152600401611ad891906122be565b60405180910390fd5b611aea81611d82565b50565b5f60045f8373ffffffffffffffffffffffffffffffffffffffff1673ffffffffffffffffffffffffffffffffffffffff1681526020019081526020015f205f9054906101000a900460ff169050919050565b60025f5403611b7a576040517f3ee5aeb500000000000000000000000000000000000000000000000000000000815260040160405180910390fd5b60025f81905550565b611b8b611433565b15611bc2576040517fd93c066500000000000000000000000000000000000000000000000000000000815260040160405180910390fd5b565b60015f81905550565b611bd5611ea7565b73ffffffffffffffffffffffffffffffffffffffff16611bf3611477565b73ffffffffffffffffffffffffffffffffffffffff1614611c5257611c16611ea7565b6040517f118cdaa7000000000000000000000000000000000000000000000000000000008152600401611c4991906122be565b60405180910390fd5b565b611c5c611eae565b5f600160146101000a81548160ff0219169083151502179055507f5db9ee0a495bf2e6ff9c91a7834c1ba4fdd244a5e8aa4e537bd38aeae4b073aa611c9f611ea7565b604051611cac91906122be565b60405180910390a1565b5f5f60045f8573ffffffffffffffffffffffffffffffffffffffff1673ffffffffffffffffffffffffffffffffffffffff1681526020019081526020015f205f9054906101000a900460ff16611d0d5760fa611d4c565b60055f8573ffffffffffffffffffffffffffffffffffffffff1673ffffffffffffffffffffffffffffffffffffffff1681526020019081526020015f20545b9050670de0b6b3a76400006064611d639190612bbc565b8184611d6f9190612bbc565b611d799190612c2a565b91505092915050565b5f60015f9054906101000a900473ffffffffffffffffffffffffffffffffffffffff1690508160015f6101000a81548173ffffffffffffffffffffffffffffffffffffffff021916908373ffffffffffffffffffffffffffffffffffffffff1602179055508173ffffffffffffffffffffffffffffffffffffffff168173ffffffffffffffffffffffffffffffffffffffff167f8be0079c531659141344cd1fd0a4f28419497f9722a3daafe3b4186f6b6457e060405160405180910390a35050565b611e4d611b83565b60018060146101000a81548160ff0219169083151502179055507f62e78cea01bee320cd4e420270b5ea74000d11b0c9f74754ebdbfc544b05a258611e90611ea7565b604051611e9d91906122be565b60405180910390a1565b5f33905090565b611eb6611433565b611eec576040517f8dfc202b00000000000000000000000000000000000000000000000000000000815260040160405180910390fd5b565b6040518060e001604052805f73ffffffffffffffffffffffffffffffffffffffff1681526020015f73ffffffffffffffffffffffffffffffffffffffff1681526020015f81526020015f81526020015f6004811115611f5057611f4f612395565b5b81526020015f81526020015f81525090565b5f819050919050565b7f4e487b71000000000000000000000000000000000000000000000000000000005f52601160045260245ffd5b5f611fa282611f62565b9150611fad83611f62565b9250828201905080821115611fc557611fc4611f6b565b5b92915050565b611fd481611f62565b82525050565b5f602082019050611fed5f830184611fcb565b92915050565b5f5ffd5b5f5ffd5b5f819050919050565b61200d81611ffb565b8114612017575f5ffd5b50565b5f8135905061202881612004565b92915050565b5f5ffd5b5f5ffd5b5f5ffd5b5f5f83601f84011261204f5761204e61202e565b5b8235905067ffffffffffffffff81111561206c5761206b612032565b5b60208301915083600182028301111561208857612087612036565b5b9250929050565b5f5f5f604084860312156120a6576120a5611ff3565b5b5f6120b38682870161201a565b935050602084013567ffffffffffffffff8111156120d4576120d3611ff7565b5b6120e08682870161203a565b92509250509250925092565b5f73ffffffffffffffffffffffffffffffffffffffff82169050919050565b5f612115826120ec565b9050919050565b6121258161210b565b811461212f575f5ffd5b50565b5f813590506121408161211c565b92915050565b61214f81611f62565b8114612159575f5ffd5b50565b5f8135905061216a81612146565b92915050565b5f5f6040838503121561218657612185611ff3565b5b5f61219385828601612132565b92505060206121a48582860161215c565b9150509250929050565b5f602082840312156121c3576121c2611ff3565b5b5f6121d08482850161201a565b91505092915050565b5f5f5f606084860312156121f0576121ef611ff3565b5b5f6121fd86828701612132565b935050602061220e8682870161215c565b925050604061221f8682870161201a565b9150509250925092565b61223281611ffb565b82525050565b5f60208201905061224b5f830184612229565b92915050565b5f6020828403121561226657612265611ff3565b5b5f61227384828501612132565b91505092915050565b5f8115159050919050565b6122908161227c565b82525050565b5f6020820190506122a95f830184612287565b92915050565b6122b88161210b565b82525050565b5f6020820190506122d15f8301846122af565b92915050565b5f5f83601f8401126122ec576122eb61202e565b5b8235905067ffffffffffffffff81111561230957612308612032565b5b60208301915083602082028301111561232557612324612036565b5b9250929050565b5f5f6020838503121561234257612341611ff3565b5b5f83013567ffffffffffffffff81111561235f5761235e611ff7565b5b61236b858286016122d7565b92509250509250929050565b6123808161210b565b82525050565b61238f81611f62565b82525050565b7f4e487b71000000000000000000000000000000000000000000000000000000005f52602160045260245ffd5b600581106123d3576123d2612395565b5b50565b5f8190506123e3826123c2565b919050565b5f6123f2826123d6565b9050919050565b612402816123e8565b82525050565b61241181611ffb565b82525050565b60e082015f82015161242b5f850182612377565b50602082015161243e6020850182612377565b5060408201516124516040850182612386565b5060608201516124646060850182612386565b50608082015161247760808501826123f9565b5060a082015161248a60a0850182612386565b5060c082015161249d60c0850182612408565b50505050565b5f60e0820190506124b65f830184612417565b92915050565b5f82825260208201905092915050565b7f496e76616c6964207061796d656e7420494400000000000000000000000000005f82015250565b5f6125006012836124bc565b915061250b826124cc565b602082019050919050565b5f6020820190508181035f83015261252d816124f4565b9050919050565b7f5061796d656e74206e6f742070656e64696e67000000000000000000000000005f82015250565b5f6125686013836124bc565b915061257382612534565b602082019050919050565b5f6020820190508181035f8301526125958161255c565b9050919050565b7f4e6f7420617574686f72697a656420746f2063616e63656c00000000000000005f82015250565b5f6125d06018836124bc565b91506125db8261259c565b602082019050919050565b5f6020820190508181035f8301526125fd816125c4565b9050919050565b828183375f83830152505050565b5f601f19601f8301169050919050565b5f61262d83856124bc565b935061263a838584612604565b61264383612612565b840190509392505050565b5f6020820190508181035f830152612667818486612622565b90509392505050565b7f496e76616c6964206d65726368616e74000000000000000000000000000000005f82015250565b5f6126a46010836124bc565b91506126af82612670565b602082019050919050565b5f6020820190508181035f8301526126d181612698565b9050919050565b7f466565207261746520746f6f20686967680000000000000000000000000000005f82015250565b5f61270c6011836124bc565b9150612717826126d8565b602082019050919050565b5f6020820190508181035f83015261273981612700565b9050919050565b7f4e6f7420617574686f72697a656420746f20636f6d706c6574650000000000005f82015250565b5f612774601a836124bc565b915061277f82612740565b602082019050919050565b5f6020820190508181035f8301526127a181612768565b9050919050565b7f496e76616c696420616d6f756e740000000000000000000000000000000000005f82015250565b5f6127dc600e836124bc565b91506127e7826127a8565b602082019050919050565b5f6020820190508181035f830152612809816127d0565b9050919050565b7f496e76616c6964207061796565000000000000000000000000000000000000005f82015250565b5f612844600d836124bc565b915061284f82612810565b602082019050919050565b5f6020820190508181035f83015261287181612838565b9050919050565b7f496e73756666696369656e74207061796d656e740000000000000000000000005f82015250565b5f6128ac6014836124bc565b91506128b782612878565b602082019050919050565b5f6020820190508181035f8301526128d9816128a0565b9050919050565b5f8160601b9050919050565b5f6128f6826128e0565b9050919050565b5f612907826128ec565b9050919050565b61291f61291a8261210b565b6128fd565b82525050565b5f819050919050565b61293f61293a82611f62565b612925565b82525050565b5f819050919050565b61295f61295a82611ffb565b612945565b82525050565b5f612970828861290e565b601482019150612980828761290e565b601482019150612990828661292e565b6020820191506129a0828561292e565b6020820191506129b0828461294e565b6020820191508190509695505050505050565b7f496e73756666696369656e74207061796d656e7420696e636c7564696e6720665f8201527f6565000000000000000000000000000000000000000000000000000000000000602082015250565b5f612a1d6022836124bc565b9150612a28826129c3565b604082019050919050565b5f6020820190508181035f830152612a4a81612a11565b9050919050565b7f426174636820746f6f206c6172676500000000000000000000000000000000005f82015250565b5f612a85600f836124bc565b9150612a9082612a51565b602082019050919050565b5f6020820190508181035f830152612ab281612a79565b9050919050565b7f4e487b71000000000000000000000000000000000000000000000000000000005f52603260045260245ffd5b5f612af082611f62565b91507fffffffffffffffffffffffffffffffffffffffffffffffffffffffffffffffff8203612b2257612b21611f6b565b5b600182019050919050565b5f604082019050612b405f830185611fcb565b612b4d6020830184611fcb565b9392505050565b7f496e76616c696420636f6c6c6563746f720000000000000000000000000000005f82015250565b5f612b886011836124bc565b9150612b9382612b54565b602082019050919050565b5f6020820190508181035f830152612bb581612b7c565b9050919050565b5f612bc682611f62565b9150612bd183611f62565b9250828202612bdf81611f62565b91508282048414831517612bf657612bf5611f6b565b5b5092915050565b7f4e487b71000000000000000000000000000000000000000000000000000000005f52601260045260245ffd5b5f612c3482611f62565b9150612c3f83611f62565b925082612c4f57612c4e612bfd565b5b82820490509291505056fea264697066735822122061d40744fac81aa0c8809e2a3de0050462ea7977d207d8a2f2f038836f4f6e4564736f6c634300081e0033","linkReferences":{}},"methodIdentifiers":{"DEFAULT_FEE_RATE()":"1ecfca92","MAX_BATCH_SIZE()":"cfdbf254","MAX_FEE_RATE()":"92f6576e","PRECISION()":"aaf5eb68","authorizeMerchant(address,uint256)":"3450b414","batchProcessPayments(bytes32[])":"a204a402","cancelPayment(bytes32,string)":"28a0b42c","completePayment(bytes32)":"47ca8a8b","createPayment(address,uint256,bytes32)":"498ae704","emergencyWithdraw()":"db2e21bc","escrowBalance(address)":"55af6353","feeCollector()":"c415b95c","getMerchantFeeRate(address)":"4e564d62","getPayment(bytes32)":"e66eefc8","isAuthorizedMerchant(address)":"fbc958fd","owner()":"8da5cb5b","pause()":"8456cb59","paused()":"5c975abb","renounceOwnership()":"715018a6","setFeeCollector(address)":"a42dce80","totalFees()":"13114a9d","totalProcessed()":"84411d65","transferOwnership(address)":"f2fde38b","unpause()":"3f4ba83a"},"id":4}