{
  "_format": "hh-sol-artifact-1",
  "contractName": "InsurancePool",
  "sourceName": "contracts/defi/InsurancePool.sol",
  "abi": [
    {
      "inputs": [
        {
          "internalType": "address",
          "name": "_stablecoin",
          "type": "address"
        }
      ],
      "stateMutability": "nonpayable",
      "type": "constructor"
    },
    {
      "anonymous": false,
      "inputs": [
        {
          "indexed": true,
          "internalType": "uint256",
          "name": "claimId",
          "type": "uint256"
        },
        {
          "indexed": false,
          "internalType": "bool",
          "name": "approved",
          "type": "bool"
        },
        {
          "indexed": false,
          "internalType": "uint256",
          "name": "payout",
          "type": "uint256"
        }
      ],
      "name": "ClaimProcessed",
      "type": "event"
    },
    {
      "anonymous": false,
      "inputs": [
        {
          "indexed": true,
          "internalType": "uint256",
          "name": "claimId",
          "type": "uint256"
        },
        {
          "indexed": true,
          "internalType": "uint256",
          "name": "policyId",
          "type": "uint256"
        },
        {
          "indexed": false,
          "internalType": "uint256",
          "name": "amount",
          "type": "uint256"
        }
      ],
      "name": "ClaimSubmitted",
      "type": "event"
    },
    {
      "anonymous": false,
      "inputs": [
        {
          "indexed": true,
          "internalType": "uint256",
          "name": "claimId",
          "type": "uint256"
        },
        {
          "indexed": true,
          "internalType": "address",
          "name": "voter",
          "type": "address"
        },
        {
          "indexed": false,
          "internalType": "bool",
          "name": "vote",
          "type": "bool"
        }
      ],
      "name": "ClaimVoted",
      "type": "event"
    },
    {
      "anonymous": false,
      "inputs": [
        {
          "indexed": true,
          "internalType": "address",
          "name": "provider",
          "type": "address"
        },
        {
          "indexed": false,
          "internalType": "uint256",
          "name": "amount",
          "type": "uint256"
        }
      ],
      "name": "LiquidityAdded",
      "type": "event"
    },
    {
      "anonymous": false,
      "inputs": [
        {
          "indexed": true,
          "internalType": "address",
          "name": "provider",
          "type": "address"
        },
        {
          "indexed": false,
          "internalType": "uint256",
          "name": "amount",
          "type": "uint256"
        }
      ],
      "name": "LiquidityRemoved",
      "type": "event"
    },
    {
      "anonymous": false,
      "inputs": [
        {
          "indexed": true,
          "internalType": "uint256",
          "name": "policyId",
          "type": "uint256"
        },
        {
          "indexed": true,
          "internalType": "address",
          "name": "policyholder",
          "type": "address"
        },
        {
          "indexed": false,
          "internalType": "uint256",
          "name": "coverage",
          "type": "uint256"
        }
      ],
      "name": "PolicyCreated",
      "type": "event"
    },
    {
      "anonymous": false,
      "inputs": [
        {
          "indexed": true,
          "internalType": "uint256",
          "name": "policyId",
          "type": "uint256"
        },
        {
          "indexed": false,
          "internalType": "uint256",
          "name": "amount",
          "type": "uint256"
        }
      ],
      "name": "PremiumPaid",
      "type": "event"
    },
    {
      "inputs": [],
      "name": "CLAIM_THRESHOLD",
      "outputs": [
        {
          "internalType": "uint256",
          "name": "",
          "type": "uint256"
        }
      ],
      "stateMutability": "view",
      "type": "function"
    },
    {
      "inputs": [],
      "name": "CLAIM_VOTING_PERIOD",
      "outputs": [
        {
          "internalType": "uint256",
          "name": "",
          "type": "uint256"
        }
      ],
      "stateMutability": "view",
      "type": "function"
    },
    {
      "inputs": [],
      "name": "MAX_COVERAGE_RATIO",
      "outputs": [
        {
          "internalType": "uint256",
          "name": "",
          "type": "uint256"
        }
      ],
      "stateMutability": "view",
      "type": "function"
    },
    {
      "inputs": [],
      "name": "MIN_STAKE_AMOUNT",
      "outputs": [
        {
          "internalType": "uint256",
          "name": "",
          "type": "uint256"
        }
      ],
      "stateMutability": "view",
      "type": "function"
    },
    {
      "inputs": [
        {
          "internalType": "uint256",
          "name": "amount",
          "type": "uint256"
        }
      ],
      "name": "addLiquidity",
      "outputs": [],
      "stateMutability": "nonpayable",
      "type": "function"
    },
    {
      "inputs": [],
      "name": "claimCounter",
      "outputs": [
        {
          "internalType": "uint256",
          "name": "",
          "type": "uint256"
        }
      ],
      "stateMutability": "view",
      "type": "function"
    },
    {
      "inputs": [
        {
          "internalType": "uint256",
          "name": "",
          "type": "uint256"
        }
      ],
      "name": "claims",
      "outputs": [
        {
          "internalType": "uint256",
          "name": "id",
          "type": "uint256"
        },
        {
          "internalType": "uint256",
          "name": "policyId",
          "type": "uint256"
        },
        {
          "internalType": "address",
          "name": "claimant",
          "type": "address"
        },
        {
          "internalType": "uint256",
          "name": "amount",
          "type": "uint256"
        },
        {
          "internalType": "uint256",
          "name": "timestamp",
          "type": "uint256"
        },
        {
          "internalType": "string",
          "name": "evidence",
          "type": "string"
        },
        {
          "internalType": "enum InsurancePool.ClaimStatus",
          "name": "status",
          "type": "uint8"
        },
        {
          "internalType": "uint256",
          "name": "votesFor",
          "type": "uint256"
        },
        {
          "internalType": "uint256",
          "name": "votesAgainst",
          "type": "uint256"
        }
      ],
      "stateMutability": "view",
      "type": "function"
    },
    {
      "inputs": [
        {
          "internalType": "uint256",
          "name": "coverageAmount",
          "type": "uint256"
        },
        {
          "internalType": "uint256",
          "name": "duration",
          "type": "uint256"
        },
        {
          "internalType": "uint256",
          "name": "riskCategory",
          "type": "uint256"
        },
        {
          "internalType": "string",
          "name": "description",
          "type": "string"
        }
      ],
      "name": "createPolicy",
      "outputs": [
        {
          "internalType": "uint256",
          "name": "",
          "type": "uint256"
        }
      ],
      "stateMutability": "nonpayable",
      "type": "function"
    },
    {
      "inputs": [],
      "name": "emergencyPause",
      "outputs": [],
      "stateMutability": "nonpayable",
      "type": "function"
    },
    {
      "inputs": [
        {
          "internalType": "uint256",
          "name": "claimId",
          "type": "uint256"
        }
      ],
      "name": "getClaim",
      "outputs": [
        {
          "internalType": "uint256",
          "name": "policyId",
          "type": "uint256"
        },
        {
          "internalType": "address",
          "name": "claimant",
          "type": "address"
        },
        {
          "internalType": "uint256",
          "name": "amount",
          "type": "uint256"
        },
        {
          "internalType": "enum InsurancePool.ClaimStatus",
          "name": "status",
          "type": "uint8"
        },
        {
          "internalType": "uint256",
          "name": "votesFor",
          "type": "uint256"
        },
        {
          "internalType": "uint256",
          "name": "votesAgainst",
          "type": "uint256"
        },
        {
          "internalType": "string",
          "name": "evidence",
          "type": "string"
        }
      ],
      "stateMutability": "view",
      "type": "function"
    },
    {
      "inputs": [
        {
          "internalType": "uint256",
          "name": "policyId",
          "type": "uint256"
        }
      ],
      "name": "getPolicy",
      "outputs": [
        {
          "internalType": "address",
          "name": "policyholder",
          "type": "address"
        },
        {
          "internalType": "uint256",
          "name": "coverageAmount",
          "type": "uint256"
        },
        {
          "internalType": "uint256",
          "name": "premium",
          "type": "uint256"
        },
        {
          "internalType": "uint256",
          "name": "startTime",
          "type": "uint256"
        },
        {
          "internalType": "uint256",
          "name": "duration",
          "type": "uint256"
        },
        {
          "internalType": "bool",
          "name": "isActive",
          "type": "bool"
        },
        {
          "internalType": "string",
          "name": "description",
          "type": "string"
        }
      ],
      "stateMutability": "view",
      "type": "function"
    },
    {
      "inputs": [],
      "name": "getPoolStats",
      "outputs": [
        {
          "internalType": "uint256",
          "name": "totalFunds",
          "type": "uint256"
        },
        {
          "internalType": "uint256",
          "name": "activeCoverage",
          "type": "uint256"
        },
        {
          "internalType": "uint256",
          "name": "utilizationRate",
          "type": "uint256"
        },
        {
          "internalType": "uint256",
          "name": "totalClaimsPaid",
          "type": "uint256"
        },
        {
          "internalType": "uint256",
          "name": "availableCapacity",
          "type": "uint256"
        }
      ],
      "stateMutability": "view",
      "type": "function"
    },
    {
      "inputs": [
        {
          "internalType": "address",
          "name": "user",
          "type": "address"
        }
      ],
      "name": "getUserPolicies",
      "outputs": [
        {
          "internalType": "uint256[]",
          "name": "",
          "type": "uint256[]"
        }
      ],
      "stateMutability": "view",
      "type": "function"
    },
    {
      "inputs": [],
      "name": "owner",
      "outputs": [
        {
          "internalType": "address",
          "name": "",
          "type": "address"
        }
      ],
      "stateMutability": "view",
      "type": "function"
    },
    {
      "inputs": [
        {
          "internalType": "uint256",
          "name": "",
          "type": "uint256"
        }
      ],
      "name": "policies",
      "outputs": [
        {
          "internalType": "uint256",
          "name": "id",
          "type": "uint256"
        },
        {
          "internalType": "address",
          "name": "policyholder",
          "type": "address"
        },
        {
          "internalType": "uint256",
          "name": "coverageAmount",
          "type": "uint256"
        },
        {
          "internalType": "uint256",
          "name": "premium",
          "type": "uint256"
        },
        {
          "internalType": "uint256",
          "name": "startTime",
          "type": "uint256"
        },
        {
          "internalType": "uint256",
          "name": "duration",
          "type": "uint256"
        },
        {
          "internalType": "uint256",
          "name": "riskCategory",
          "type": "uint256"
        },
        {
          "internalType": "bool",
          "name": "isActive",
          "type": "bool"
        },
        {
          "internalType": "bool",
          "name": "hasClaimed",
          "type": "bool"
        },
        {
          "internalType": "string",
          "name": "description",
          "type": "string"
        }
      ],
      "stateMutability": "view",
      "type": "function"
    },
    {
      "inputs": [],
      "name": "policyCounter",
      "outputs": [
        {
          "internalType": "uint256",
          "name": "",
          "type": "uint256"
        }
      ],
      "stateMutability": "view",
      "type": "function"
    },
    {
      "inputs": [
        {
          "internalType": "uint256",
          "name": "claimId",
          "type": "uint256"
        }
      ],
      "name": "processClaim",
      "outputs": [],
      "stateMutability": "nonpayable",
      "type": "function"
    },
    {
      "inputs": [
        {
          "internalType": "address",
          "name": "",
          "type": "address"
        }
      ],
      "name": "providers",
      "outputs": [
        {
          "internalType": "uint256",
          "name": "stakedAmount",
          "type": "uint256"
        },
        {
          "internalType": "uint256",
          "name": "rewardsEarned",
          "type": "uint256"
        },
        {
          "internalType": "uint256",
          "name": "stakingTime",
          "type": "uint256"
        },
        {
          "internalType": "uint256",
          "name": "votingPower",
          "type": "uint256"
        }
      ],
      "stateMutability": "view",
      "type": "function"
    },
    {
      "inputs": [
        {
          "internalType": "uint256",
          "name": "amount",
          "type": "uint256"
        }
      ],
      "name": "removeLiquidity",
      "outputs": [],
      "stateMutability": "nonpayable",
      "type": "function"
    },
    {
      "inputs": [
        {
          "internalType": "uint256",
          "name": "",
          "type": "uint256"
        }
      ],
      "name": "riskCategories",
      "outputs": [
        {
          "internalType": "string",
          "name": "name",
          "type": "string"
        },
        {
          "internalType": "uint256",
          "name": "basePremiumRate",
          "type": "uint256"
        },
        {
          "internalType": "uint256",
          "name": "maxCoverage",
          "type": "uint256"
        },
        {
          "internalType": "bool",
          "name": "isActive",
          "type": "bool"
        }
      ],
      "stateMutability": "view",
      "type": "function"
    },
    {
      "inputs": [],
      "name": "stablecoin",
      "outputs": [
        {
          "internalType": "contract IERC20Insurance",
          "name": "",
          "type": "address"
        }
      ],
      "stateMutability": "view",
      "type": "function"
    },
    {
      "inputs": [
        {
          "internalType": "uint256",
          "name": "policyId",
          "type": "uint256"
        },
        {
          "internalType": "uint256",
          "name": "amount",
          "type": "uint256"
        },
        {
          "internalType": "string",
          "name": "evidence",
          "type": "string"
        }
      ],
      "name": "submitClaim",
      "outputs": [
        {
          "internalType": "uint256",
          "name": "",
          "type": "uint256"
        }
      ],
      "stateMutability": "nonpayable",
      "type": "function"
    },
    {
      "inputs": [],
      "name": "totalClaims",
      "outputs": [
        {
          "internalType": "uint256",
          "name": "",
          "type": "uint256"
        }
      ],
      "stateMutability": "view",
      "type": "function"
    },
    {
      "inputs": [],
      "name": "totalCoverage",
      "outputs": [
        {
          "internalType": "uint256",
          "name": "",
          "type": "uint256"
        }
      ],
      "stateMutability": "view",
      "type": "function"
    },
    {
      "inputs": [],
      "name": "totalPoolFunds",
      "outputs": [
        {
          "internalType": "uint256",
          "name": "",
          "type": "uint256"
        }
      ],
      "stateMutability": "view",
      "type": "function"
    },
    {
      "inputs": [
        {
          "internalType": "address",
          "name": "",
          "type": "address"
        },
        {
          "internalType": "uint256",
          "name": "",
          "type": "uint256"
        }
      ],
      "name": "userPolicies",
      "outputs": [
        {
          "internalType": "uint256",
          "name": "",
          "type": "uint256"
        }
      ],
      "stateMutability": "view",
      "type": "function"
    },
    {
      "inputs": [
        {
          "internalType": "uint256",
          "name": "claimId",
          "type": "uint256"
        },
        {
          "internalType": "bool",
          "name": "approve",
          "type": "bool"
        }
      ],
      "name": "voteClaim",
      "outputs": [],
      "stateMutability": "nonpayable",
      "type": "function"
    }
  ],
  "bytecode": "0x6080346200096057601f6200291f38819003918201601f19168301916001600160401b0383118484101762000634578084926020946040528339810103126200096057516001600160a01b03811690819003620009605780156200091b5760018060a01b03199081600054161760005533906001541617600155604051620000878162000981565b6013908181527f536d61727420436f6e7472616374204275677300000000000000000000000000602082015260405160005b8381106200090557506103e89192600060338301528152620000db8162000981565b602081519101200660405191620000f28362000965565b82526101f4602083015269d3c21bcecceda100000060408301526001606083015260005260056020526040600020815180519060018060401b03821162000634578254600181811c91168015620008fa575b60208210146200061357601f8111620008b1575b50602090601f83116001146200083e5791806060949260039460009262000832575b50508160011b9160001990851b1c19161781555b602084015160018201556040840151600282015501910151151560ff80198354169116179055604051620001c28162000981565b600e908181526d4f7261636c65204661696c75726560901b602082015260405160005b8381106200081c57506103e891926000602e8301528152620002078162000981565b6020815191012006604051916200021e8362000965565b825261012c60208301526969e10de76676d080000060408301526001606083015260005260056020526040600020815180519060018060401b03821162000634578254600181811c9116801562000811575b60208210146200061357601f8111620007c8575b50602090601f8311600114620007555791806060949260039460009262000749575b50508160011b9160001990851b1c19161781555b602084015160018201556040840151600282015501910151151560ff80198354169116179055604051620002ee8162000981565b6010908181526f496d7065726d616e656e74204c6f737360801b602082015260405160005b8381106200073357506103e89192600060308301528152620003358162000981565b6020815191012006604051916200034c8362000965565b825260c8602083015269152d02c7e14af680000060408301526001606083015260005260056020526040600020815180519060018060401b03821162000634578254600181811c9116801562000728575b60208210146200061357601f8111620006df575b50602090601f83116001146200066c5791806060949260039460009262000660575b50508160011b9160001990851b1c19161781555b602084015160018201556040840151600282015501910151151560ff801983541691161790556040516200041b8162000981565b600d908181526c45786368616e6765204861636b60981b602082015260405160005b8381106200064a57506103e891926000602d83015281526200045f8162000981565b602081519101200660405191620004768362000965565b825261032060208301526a01a784379d99db4200000060408301526001606083015260005260056020526040600020815180519060018060401b03821162000634578254600181811c9116801562000629575b60208210146200061357601f8111620005c6575b50602090601f8311600114620005555791806060949260039460009262000549575b50508160011b9160001990851b1c19161781555b602084015160018201556040840151600282015501910151151560ff80198354169116179055604051611f8190816200099e8239f35b015190503880620004ff565b90601f198316918460005260206000209260005b818110620005ad5750926001928592600396606098961062000594575b505050811b01815562000513565b015160001983871b60f8161c1916905538808062000586565b9293602060018192878601518155019501930162000569565b836000526020600020601f840160051c8101916020851062000608575b601f0160051c01905b818110620005fb5750620004dd565b60008155600101620005ec565b9091508190620005e3565b634e487b7160e01b600052602260045260246000fd5b90607f1690620004c9565b634e487b7160e01b600052604160045260246000fd5b806020809285010151828285010152016200043d565b015190503880620003d3565b908360005260206000209160005b601f1985168110620006c65750926060949260019260039583601f19811610620006ad575b505050811b018155620003e7565b015160001983871b60f8161c191690553880806200069f565b919260206001819286850151815501940192016200067a565b836000526020600020601f840160051c81016020851062000720575b601f830160051c8201811062000713575050620003b1565b60008155600101620006fb565b5080620006fb565b90607f16906200039d565b8060208092850101518282850101520162000313565b015190503880620002a6565b908360005260206000209160005b601f1985168110620007af5750926060949260019260039583601f1981161062000796575b505050811b018155620002ba565b015160001983871b60f8161c1916905538808062000788565b9192602060018192868501518155019401920162000763565b836000526020600020601f840160051c81016020851062000809575b601f830160051c82018110620007fc57505062000284565b60008155600101620007e4565b5080620007e4565b90607f169062000270565b80602080928501015182828501015201620001e5565b0151905038806200017a565b908360005260206000209160005b601f1985168110620008985750926060949260019260039583601f198116106200087f575b505050811b0181556200018e565b015160001983871b60f8161c1916905538808062000871565b919260206001819286850151815501940192016200084c565b836000526020600020601f840160051c810160208510620008f2575b601f830160051c82018110620008e557505062000158565b60008155600101620008cd565b5080620008cd565b90607f169062000144565b80602080928501015182828501015201620000b9565b60405162461bcd60e51b815260206004820152601a60248201527f496e76616c696420737461626c65636f696e20616464726573730000000000006044820152606490fd5b600080fd5b608081019081106001600160401b038211176200063457604052565b604081019081106001600160401b03821117620006345760405256fe6080604052600436101561001257600080fd5b60003560e01c806306964de71461154e5780630787bc27146114f257806319ac46141461143e57806323acf5091461142257806327ed7188146113fe5780632b07fce3146112e45780633d36adc51461128c57806341c613831461126e5780634efa8f171461125057806351858e27146111f557806351c6590a146110db5780635aef2447146110265780637257dfc914610f595780638267098614610f3d5780638da5cb5b14610f145780639c8f9f2314610d12578063a888c2cd14610c63578063b7c8994d14610a26578063bbb851881461098a578063d3e89483146108d4578063d51942e2146108b6578063d52c1bea14610898578063e89166391461087a578063e9cbd82214610851578063f1139d0f14610833578063f6b707f1146101b65763fdc72bf91461014557600080fd5b346101b15760203660031901126101b157600435600052600560205261019b604060002061017281611a4f565b9060018101549060ff60036002830154920154169060405194859460808652608086019061199a565b9260208501526040840152151560608301520390f35b600080fd5b346101b15760803660031901126101b15760643567ffffffffffffffff81116101b1576101e790369060040161192d565b600435156107ee5762278d006024351015806107de575b156107a657604435600052600560205260ff60036040600020015416156107695760443560005260056020526002604060002001546004351161073057600a5461024a60043582611b4b565b9060095491605083028381046050148415171561058d5760649004106106eb57604435600052600560205264496cebb8006102d2604060002060405161028f816118ef565b61029882611a4f565b8152606060ff60036001850154948560208601526002810154604086015201541615159101526102cd60243591600435611b65565b611b65565b049160648202918083046064149015171561058d576102f091611b78565b606401908160641161058d5760649161030891611b65565b600080546040516323b872dd60e01b815233600482015230602482015293909204604484018190529291602091839160649183916001600160a01b03165af19081156106df576000916106b0575b501561067257610367600754611b98565b8060075560405192610378846118d2565b818452336020850152600435604085015282606085015242608085015260243560a085015260443560c0850152600160e08501526000610100850152610120840152600052600260205261012060086040600020845181556001810160018060a01b036020870151166bffffffffffffffffffffffff60a01b82541617905560408501516002820155606085015160038201556080850151600482015560a0850151600582015560c085015160068201556007810160e08601511515815460ff61ff006101008a01511515871b1692169061ffff1916171790550192015191825167ffffffffffffffff81116105a3576104728254611a15565b601f811161062a575b506020601f82116001146105c457819293946000926105b9575b50508160011b916000199060031b1c19161790555b3360005260066020526040600020600754908054680100000000000000008110156105a3576104de916001820181556119da565b819291549060031b91821b91600019901b1916179055610502600435600a54611b4b565b600a5561051181600954611b4b565b6009558060508102046050148115171561058d57602080917f7d285524823001f1a9e0eec4efb8c6350708012b991049fd6dd9250f89c8b2586007549283926040516004358152847f601882301d3e3fce7fe3a99d4bb17ef5b6699b417bdd29f2bfb82e19fcbcb660843393a3604051908152a2604051908152f35b634e487b7160e01b600052601160045260246000fd5b634e487b7160e01b600052604160045260246000fd5b015190508480610495565b601f198216908360005260206000209160005b818110610612575095836001959697106105f9575b505050811b0190556104aa565b015160001960f88460031b161c191690558480806105ec565b9192602060018192868b0151815501940192016105d7565b826000526020600020601f830160051c81019160208410610668575b601f0160051c01905b81811061065c575061047b565b6000815560010161064f565b9091508190610646565b60405162461bcd60e51b8152602060048201526016602482015275141c995b5a5d5b481c185e5b595b9d0819985a5b195960521b6044820152606490fd5b6106d2915060203d6020116106d8575b6106ca818361190b565b810190611af5565b83610356565b503d6106c0565b6040513d6000823e3d90fd5b60405162461bcd60e51b815260206004820152601a60248201527f496e73756666696369656e7420706f6f6c2063617061636974790000000000006044820152606490fd5b60405162461bcd60e51b8152602060048201526011602482015270086deeccae4c2ceca40e8dede40d0d2ced607b1b6044820152606490fd5b60405162461bcd60e51b8152602060048201526015602482015274496e76616c6964207269736b2063617465676f727960581b6044820152606490fd5b60405162461bcd60e51b815260206004820152601060248201526f24b73b30b634b210323ab930ba34b7b760811b6044820152606490fd5b506301e1338060243511156101fe565b60405162461bcd60e51b815260206004820152601760248201527f496e76616c696420636f76657261676520616d6f756e740000000000000000006044820152606490fd5b346101b15760003660031901126101b1576020600954604051908152f35b346101b15760003660031901126101b1576000546040516001600160a01b039091168152602090f35b346101b15760003660031901126101b157602060405162093a808152f35b346101b15760003660031901126101b1576020600754604051908152f35b346101b15760003660031901126101b1576020600a54604051908152f35b346101b15760203660031901126101b15760043560005260026020526040600020805461098660018060a01b036001840154169260ff60028201549160038101546004820154600583015490600684015492610937600860078701549601611a4f565b966040519a8b9a8b5260208b015260408a01526060890152608088015260a087015260c0860152818116151560e086015260081c1615156101008401526101408061012085015283019061199a565b0390f35b346101b15760003660031901126101b15760095480159081610a1f57600a5460648102908082046064149015171561058d57816109c691611b78565b6050820292828404605014171561058d57600a5460a093606490048180821115610a15576109f391611b58565b915b600b54916040519485526020850152604084015260608301526080820152f35b50506000916109f5565b60006109c6565b346101b15760403660031901126101b15760043560248035908115158083036101b15783151580610c57575b610a5b90611be7565b836000526020906003825260406000209160ff6006840154166004811015610c4257610a879015611c26565b60098301943360005285825260ff60406000205416610c0e57336000526004825260036040600020015415610bd857600484019384549662093a8097888101809111610bc3574211610b8957918893917fa1e955912100c483315820679942eee328fcd8cb60cede1485dc4c03ed7c428e933360005283526040600020600160ff198254161790556004835260036040600020015491600014610b73576007610b339101918254611b4b565b90555b6040519384523393a354918201809211610b5f5750421015610b5457005b610b5d90611c66565b005b634e487b7160e01b60009081526011600452fd5b6008610b829101918254611b4b565b9055610b36565b60405162461bcd60e51b81526004810185905260138189015272159bdd1a5b99c81c195c9a5bd908195b991959606a1b6044820152606490fd5b87634e487b7160e01b60005260116004526000fd5b60405162461bcd60e51b815260048101839052600f818701526e2737903b37ba34b733903837bbb2b960891b6044820152606490fd5b60405162461bcd60e51b815260048101839052600d818701526c105b1c9958591e481d9bdd1959609a1b6044820152606490fd5b84634e487b7160e01b60005260216004526000fd5b50600854841115610a52565b346101b15760203660031901126101b15760043560005260036020526040600020805460018201549160018060a01b03600282015416600382015491610d03610cf86004830154610cb660058501611a4f565b9060ff6006860154169660086007870154960154966040519a8b9a8b5260208b015260408a0152606089015260808801526101208060a089015287019061199a565b9360c0860190611a08565b60e08401526101008301520390f35b346101b1576020806003193601126101b15760043590336000526004815260406000208054838110610ecf57600282015462278d00810180911161058d574210610e9457610d6284600954611b58565b600a549060508102908082046050149015171561058d576064900410610e435783610d8c91611b58565b81556003610d9933611ebf565b910155610da882600954611b58565b6009556000805460405163a9059cbb60e01b8152336004820152602481018590529291829184916044918391906001600160a01b03165af19182156106df577fc2c3f06e49b9f15e7b4af9055e183b0d73362e033ad82a07dec9bf984017171992610e1b91600091610e26575b50611b0d565b6040519283523392a2005b610e3d9150833d85116106d8576106ca818361190b565b85610e15565b60405162461bcd60e51b815260048101849052602360248201527f576f756c6420657863656564206d6178696d756d20636f76657261676520726160448201526274696f60e81b6064820152608490fd5b60405162461bcd60e51b8152600481018490526013602482015272131bd8dac81c195c9a5bd9081b9bdd081b595d606a1b6044820152606490fd5b60405162461bcd60e51b815260048101849052601a60248201527f496e73756666696369656e74207374616b656420616d6f756e740000000000006044820152606490fd5b346101b15760003660031901126101b1576001546040516001600160a01b039091168152602090f35b346101b15760003660031901126101b157602060405160508152f35b346101b15760203660031901126101b1576004358015158061101a575b610f7f90611be7565b806000526003602052604060002060ff60068201541690600482101561100457610fab60049215611c26565b015462093a80810180911161058d574210610fc957610b5d90611c66565b60405162461bcd60e51b8152602060048201526013602482015272566f74696e67207374696c6c2061637469766560681b6044820152606490fd5b634e487b7160e01b600052602160045260246000fd5b50600854811115610f76565b346101b15760203660031901126101b157600435801515806110cf575b61104c90611be7565b60005260036020526040600020600181015461098660018060a01b036002840154169260038101549060ff6006820154166110b4600783015491611097600560088601549501611a4f565b946040519889988952602089015260408801526060870190611a08565b608085015260a084015260e060c084015260e083019061199a565b50600854811115611043565b346101b1576020806003193601126101b15760043590683635c9adc5dea0000082106111be57600080546040516323b872dd60e01b8152336004820152306024820152604481018590529291829184916064918391906001600160a01b03165af19182156106df577fc17cea59c2955cb181b03393209566960365771dbba9dc3d510180e7cb3120889261117691600091610e265750611b0d565b3360005260048152604060002061118e848254611b4b565b815542600282015560036111a133611ebf565b9101556111b083600954611b4b565b6009556040519283523392a2005b6064906040519062461bcd60e51b82526004820152601060248201526f105b5bdd5b9d081d1bdbc81cdb585b1b60821b6044820152fd5b346101b15760003660031901126101b1576001546001600160a01b0316330361121a57005b60405162461bcd60e51b815260206004820152600e60248201526d139bdd08185d5d1a1bdc9a5e995960921b6044820152606490fd5b346101b15760003660031901126101b1576020600854604051908152f35b346101b15760003660031901126101b1576020600b54604051908152f35b346101b15760403660031901126101b1576112a5611984565b6001600160a01b03166000908152600660205260409020805460243591908210156101b1576020916112d6916119da565b90546040519160031b1c8152f35b346101b15760203660031901126101b157600435801515806113f2575b61130a90611ba7565b60005260026020526040600020604051611323816118d2565b8154815261098661012060018060a01b039384600182015416906020850191825260028101549460408101958652600382015496606082019788526004830154936080830194855260058401549260a08101938452600685015460c08201526113ac600860078701549660ff60e085019881811615158a52831c16151561010085015201611a4f565b96879101525116955196519251905191511515926040519788978852602088015260408701526060860152608085015260a084015260e060c084015260e083019061199a565b50600754811115611301565b346101b15760003660031901126101b1576020604051683635c9adc5dea000008152f35b346101b15760003660031901126101b1576020604051603c8152f35b346101b1576020806003193601126101b1576001600160a01b03611460611984565b1660005260068152604060002060405190818382549182815201908192600052846000209060005b868282106114de57868661149e8288038361190b565b604051928392818401908285525180915260408401929160005b8281106114c757505050500390f35b8351855286955093810193928101926001016114b8565b835485529093019260019283019201611488565b346101b15760203660031901126101b1576001600160a01b03611513611984565b166000526004602052608060406000208054906001810154906003600282015491015491604051938452602084015260408301526060820152f35b346101b15760603660031901126101b1576044602467ffffffffffffffff600435823584358381116101b15761158890369060040161192d565b92821515806118c6575b61159b90611ba7565b826000526020946002865260406000209660019760018060a01b038982015416330361188f57600781015460ff8116156118585760081c60ff16611823576115ec6004820154600583015490611b4b565b42116117ef576002015484116117ad5750611608600854611b98565b918260085582600052600387526040600020928355848884015560028301336bffffffffffffffffffffffff60a01b8254161790558360038401554260048401556005830191865191821161179957506116628254611a15565b601f8111611754575b5086976000979697508697601f83116001146116ef57829160069697989983926000946116e4575b50501b916000199060031b1c19161790555b0160ff1981541690557fcf394f7701f2b1dae6f328cbc70c1f155122b124431f95bbf4a483bba6854555600854938492604051908152a3604051908152f35b015192508b80611693565b601f9291921982169884600052886000209160005b8b811061173f575083600698999a9b10611726575b505050811b0190556116a5565b015160001960f88460031b161c19169055898080611719565b81830151845592850192918a01918a01611704565b8260005287600020601f830160051c81019189841061178f575b601f0160051c01905b818110611784575061166b565b600081558901611777565b909150819061176e565b634e487b7160e01b60009081526041600452fd5b7f416d6f756e74206578636565647320636f766572616765000000000000000000879160176064946040519462461bcd60e51b86526004860152840152820152fd5b60405162461bcd60e51b815260048101899052600e818501526d141bdb1a58de48195e1c1a5c995960921b81840152606490fd5b60405162461bcd60e51b815260048101899052600f818501526e105b1c9958591e4818db185a5b5959608a1b81840152606490fd5b60405162461bcd60e51b8152600481018a905260118186015270506f6c696379206e6f742061637469766560781b81850152606490fd5b60405162461bcd60e51b815260048101899052601181850152702737ba103837b634b1bc903437b63232b960791b81840152606490fd5b50600754831115611592565b610140810190811067ffffffffffffffff8211176105a357604052565b6080810190811067ffffffffffffffff8211176105a357604052565b90601f8019910116810190811067ffffffffffffffff8211176105a357604052565b81601f820112156101b15780359067ffffffffffffffff82116105a35760405192611962601f8401601f19166020018561190b565b828452602083830101116101b157816000926020809301838601378301015290565b600435906001600160a01b03821682036101b157565b919082519283825260005b8481106119c6575050826000602080949584010152601f8019910116010190565b6020818301810151848301820152016119a5565b80548210156119f25760005260206000200190600090565b634e487b7160e01b600052603260045260246000fd5b9060048210156110045752565b90600182811c92168015611a45575b6020831014611a2f57565b634e487b7160e01b600052602260045260246000fd5b91607f1691611a24565b9060405191826000825492611a6384611a15565b908184526001948581169081600014611ad25750600114611a8f575b5050611a8d9250038361190b565b565b9093915060005260209081600020936000915b818310611aba575050611a8d93508201013880611a7f565b85548884018501529485019487945091830191611aa2565b915050611a8d94506020925060ff191682840152151560051b8201013880611a7f565b908160209103126101b1575180151581036101b15790565b15611b1457565b60405162461bcd60e51b815260206004820152600f60248201526e151c985b9cd9995c8819985a5b1959608a1b6044820152606490fd5b9190820180921161058d57565b9190820391821161058d57565b8181029291811591840414171561058d57565b8115611b82570490565b634e487b7160e01b600052601260045260246000fd5b600019811461058d5760010190565b15611bae57565b60405162461bcd60e51b8152602060048201526011602482015270125b9d985b1a59081c1bdb1a58de481251607a1b6044820152606490fd5b15611bee57565b60405162461bcd60e51b815260206004820152601060248201526f125b9d985b1a590818db185a5b48125160821b6044820152606490fd5b15611c2d57565b60405162461bcd60e51b8152602060048201526011602482015270436c61696d206e6f742070656e64696e6760781b6044820152606490fd5b906000918083526020600381526040908185206007810154611c8c600883015482611b4b565b908115611e7e57606481029080820460641490151715611e6a57603c91611cb291611b78565b101580611e5a575b15611e1b576006810160ff19966001888354161782556001830154815260028452611d6e84868320946007860161010061ffff19825416179055611d1860026003830197611d0b8954600954611b58565b6009550154600a54611b58565b600a55611d288654600b54611b4b565b600b558354600291909101548654895163a9059cbb60e01b81526001600160a01b0392831660048201526024810191909152938492909116908290869082906044820190565b03925af1918215611e105791611df3575b5015611dbf5760037fbb92f6f5b9e3996f250b4077e113320be5e290fb3a17e3893c2e56d881d2122b9596978254161790555482519160018352820152a2565b835162461bcd60e51b815260048101849052600d60248201526c14185e5bdd5d0819985a5b1959609a1b6044820152606490fd5b611e0a9150843d86116106d8576106ca818361190b565b38611d7f565b8651903d90823e3d90fd5b9460067fbb92f6f5b9e3996f250b4077e113320be5e290fb3a17e3893c2e56d881d2122b94959601600260ff19825416179055825191818352820152a2565b5060095460038201541115611cba565b634e487b7160e01b88526011600452602488fd5b50509460067fbb92f6f5b9e3996f250b4077e113320be5e290fb3a17e3893c2e56d881d2122b94959601600260ff19825416179055825191818352820152a2565b60018060a01b031660005260046020526040600020604051611ee0816118ef565b815490818152600183015460208201526060600360028501549485604085015201549101528015611f445762278d00611f1c611f399342611b58565b04600c8111611f3c575b611f3260649183611b65565b0490611b4b565b90565b50600c611f26565b505060009056fea2646970667358221220bf5611573944acb9a71a3ffbc5d37720090d9aba44024b5c009a1b5b2827fad064736f6c63430008130033",
  "linkReferences": {},
  "deployedLinkReferences": {}
}