{
  "_format": "hh-sol-artifact-1",
  "contractName": "NibertToken",
  "sourceName": "contracts/tokens/NibertToken.sol",
  "abi": [
    {
      "inputs": [],
      "stateMutability": "nonpayable",
      "type": "constructor"
    },
    {
      "anonymous": false,
      "inputs": [
        {
          "indexed": true,
          "internalType": "address",
          "name": "owner",
          "type": "address"
        },
        {
          "indexed": true,
          "internalType": "address",
          "name": "spender",
          "type": "address"
        },
        {
          "indexed": false,
          "internalType": "uint256",
          "name": "value",
          "type": "uint256"
        }
      ],
      "name": "Approval",
      "type": "event"
    },
    {
      "anonymous": false,
      "inputs": [
        {
          "indexed": true,
          "internalType": "address",
          "name": "account",
          "type": "address"
        },
        {
          "indexed": false,
          "internalType": "bool",
          "name": "status",
          "type": "bool"
        }
      ],
      "name": "BlacklistUpdated",
      "type": "event"
    },
    {
      "anonymous": false,
      "inputs": [
        {
          "indexed": true,
          "internalType": "address",
          "name": "from",
          "type": "address"
        },
        {
          "indexed": false,
          "internalType": "uint256",
          "name": "amount",
          "type": "uint256"
        }
      ],
      "name": "Burn",
      "type": "event"
    },
    {
      "anonymous": false,
      "inputs": [
        {
          "indexed": true,
          "internalType": "address",
          "name": "to",
          "type": "address"
        },
        {
          "indexed": false,
          "internalType": "uint256",
          "name": "amount",
          "type": "uint256"
        }
      ],
      "name": "Mint",
      "type": "event"
    },
    {
      "anonymous": false,
      "inputs": [
        {
          "indexed": true,
          "internalType": "address",
          "name": "previousOwner",
          "type": "address"
        },
        {
          "indexed": true,
          "internalType": "address",
          "name": "newOwner",
          "type": "address"
        }
      ],
      "name": "OwnershipTransferred",
      "type": "event"
    },
    {
      "anonymous": false,
      "inputs": [],
      "name": "Pause",
      "type": "event"
    },
    {
      "anonymous": false,
      "inputs": [
        {
          "indexed": true,
          "internalType": "address",
          "name": "from",
          "type": "address"
        },
        {
          "indexed": true,
          "internalType": "address",
          "name": "to",
          "type": "address"
        },
        {
          "indexed": false,
          "internalType": "uint256",
          "name": "value",
          "type": "uint256"
        }
      ],
      "name": "Transfer",
      "type": "event"
    },
    {
      "anonymous": false,
      "inputs": [],
      "name": "Unpause",
      "type": "event"
    },
    {
      "inputs": [],
      "name": "MAX_SUPPLY",
      "outputs": [
        {
          "internalType": "uint256",
          "name": "",
          "type": "uint256"
        }
      ],
      "stateMutability": "view",
      "type": "function"
    },
    {
      "inputs": [
        {
          "internalType": "address",
          "name": "owner_",
          "type": "address"
        },
        {
          "internalType": "address",
          "name": "spender",
          "type": "address"
        }
      ],
      "name": "allowance",
      "outputs": [
        {
          "internalType": "uint256",
          "name": "",
          "type": "uint256"
        }
      ],
      "stateMutability": "view",
      "type": "function"
    },
    {
      "inputs": [
        {
          "internalType": "address",
          "name": "spender",
          "type": "address"
        },
        {
          "internalType": "uint256",
          "name": "amount",
          "type": "uint256"
        }
      ],
      "name": "approve",
      "outputs": [
        {
          "internalType": "bool",
          "name": "",
          "type": "bool"
        }
      ],
      "stateMutability": "nonpayable",
      "type": "function"
    },
    {
      "inputs": [
        {
          "internalType": "address",
          "name": "account",
          "type": "address"
        }
      ],
      "name": "balanceOf",
      "outputs": [
        {
          "internalType": "uint256",
          "name": "",
          "type": "uint256"
        }
      ],
      "stateMutability": "view",
      "type": "function"
    },
    {
      "inputs": [
        {
          "internalType": "uint256",
          "name": "amount",
          "type": "uint256"
        }
      ],
      "name": "burn",
      "outputs": [],
      "stateMutability": "nonpayable",
      "type": "function"
    },
    {
      "inputs": [],
      "name": "decimals",
      "outputs": [
        {
          "internalType": "uint8",
          "name": "",
          "type": "uint8"
        }
      ],
      "stateMutability": "view",
      "type": "function"
    },
    {
      "inputs": [
        {
          "internalType": "address",
          "name": "",
          "type": "address"
        }
      ],
      "name": "isBlacklisted",
      "outputs": [
        {
          "internalType": "bool",
          "name": "",
          "type": "bool"
        }
      ],
      "stateMutability": "view",
      "type": "function"
    },
    {
      "inputs": [
        {
          "internalType": "address",
          "name": "to",
          "type": "address"
        },
        {
          "internalType": "uint256",
          "name": "amount",
          "type": "uint256"
        }
      ],
      "name": "mint",
      "outputs": [],
      "stateMutability": "nonpayable",
      "type": "function"
    },
    {
      "inputs": [],
      "name": "minter",
      "outputs": [
        {
          "internalType": "address",
          "name": "",
          "type": "address"
        }
      ],
      "stateMutability": "view",
      "type": "function"
    },
    {
      "inputs": [],
      "name": "name",
      "outputs": [
        {
          "internalType": "string",
          "name": "",
          "type": "string"
        }
      ],
      "stateMutability": "view",
      "type": "function"
    },
    {
      "inputs": [],
      "name": "owner",
      "outputs": [
        {
          "internalType": "address",
          "name": "",
          "type": "address"
        }
      ],
      "stateMutability": "view",
      "type": "function"
    },
    {
      "inputs": [],
      "name": "pause",
      "outputs": [],
      "stateMutability": "nonpayable",
      "type": "function"
    },
    {
      "inputs": [],
      "name": "paused",
      "outputs": [
        {
          "internalType": "bool",
          "name": "",
          "type": "bool"
        }
      ],
      "stateMutability": "view",
      "type": "function"
    },
    {
      "inputs": [
        {
          "internalType": "address",
          "name": "newMinter",
          "type": "address"
        }
      ],
      "name": "setMinter",
      "outputs": [],
      "stateMutability": "nonpayable",
      "type": "function"
    },
    {
      "inputs": [],
      "name": "symbol",
      "outputs": [
        {
          "internalType": "string",
          "name": "",
          "type": "string"
        }
      ],
      "stateMutability": "view",
      "type": "function"
    },
    {
      "inputs": [],
      "name": "totalSupply",
      "outputs": [
        {
          "internalType": "uint256",
          "name": "",
          "type": "uint256"
        }
      ],
      "stateMutability": "view",
      "type": "function"
    },
    {
      "inputs": [
        {
          "internalType": "address",
          "name": "to",
          "type": "address"
        },
        {
          "internalType": "uint256",
          "name": "amount",
          "type": "uint256"
        }
      ],
      "name": "transfer",
      "outputs": [
        {
          "internalType": "bool",
          "name": "",
          "type": "bool"
        }
      ],
      "stateMutability": "nonpayable",
      "type": "function"
    },
    {
      "inputs": [
        {
          "internalType": "address",
          "name": "from",
          "type": "address"
        },
        {
          "internalType": "address",
          "name": "to",
          "type": "address"
        },
        {
          "internalType": "uint256",
          "name": "amount",
          "type": "uint256"
        }
      ],
      "name": "transferFrom",
      "outputs": [
        {
          "internalType": "bool",
          "name": "",
          "type": "bool"
        }
      ],
      "stateMutability": "nonpayable",
      "type": "function"
    },
    {
      "inputs": [
        {
          "internalType": "address",
          "name": "newOwner",
          "type": "address"
        }
      ],
      "name": "transferOwnership",
      "outputs": [],
      "stateMutability": "nonpayable",
      "type": "function"
    },
    {
      "inputs": [],
      "name": "unpause",
      "outputs": [],
      "stateMutability": "nonpayable",
      "type": "function"
    },
    {
      "inputs": [
        {
          "internalType": "address",
          "name": "account",
          "type": "address"
        },
        {
          "internalType": "bool",
          "name": "status",
          "type": "bool"
        }
      ],
      "name": "updateBlacklist",
      "outputs": [],
      "stateMutability": "nonpayable",
      "type": "function"
    }
  ],
  "bytecode": "0x6080806040523461007f5760018060a01b031933816004541617600455339060055416176005556a084595161401484a0000008060005533600052600160205280604060002055815260007fddf252ad1be2c89b69c2b068fc378daa952ba7f163c4a11628f55a4df523b3ef60203393a3604051610f0090816100858239f35b600080fdfe608060408181526004918236101561001657600080fd5b600092833560e01c91826306fdde0314610a64575081630754617214610a3b578163095ea7b3146109e957816318160ddd146109cc57816323b872dd146108c7578163313ce567146108ab57816332cb6b0c146108855781633f4ba83a1461082a57816340c10f191461064957816342966c681461054c5781635c975abb1461052557816370a08231146104ed5781638456cb591461048c5781638da5cb5b146104645781639155e083146103de57816395d89b4114610379578163a9059cbb14610301578163dd62ed3e146102b8578163f2fde38b146101f8578163fca3b5aa1461014c575063fe575a871461010c57600080fd5b346101485760203660031901126101485760209160ff9082906001600160a01b03610135610b15565b1681526003855220541690519015158152f35b5080fd5b9050346101f45760203660031901126101f457610167610b15565b81546001600160a01b0391906101809083163314610c0d565b169182156101a55750506bffffffffffffffffffffffff60a01b600554161760055580f35b906020608492519162461bcd60e51b8352820152602360248201527f4e49543a206e6577206d696e74657220697320746865207a65726f206164647260448201526265737360e81b6064820152fd5b8280fd5b9050346101f45760203660031901126101f457610213610b15565b81546001600160a01b03808216939261022d338614610c0d565b1693841561026b57506001600160a01b031916831790557f8be0079c531659141344cd1fd0a4f28419497f9722a3daafe3b4186f6b6457e08380a380f35b5162461bcd60e51b8152602081840152602260248201527f4e49543a206e6577206f776e657220697320746865207a65726f206164647265604482015261737360f01b6064820152608490fd5b505034610148578060031936011261014857806020926102d6610b15565b6102de610b30565b6001600160a01b0391821683526002865283832091168252845220549051908152f35b50503461014857806003193601126101485761037260209261036860ff84610327610b15565b936103398360055460a01c1615610b46565b3381526003885261034f83838320541615610b91565b6001600160a01b03851681526003885220541615610b91565b6024359033610c59565b5160018152f35b8383346101485781600319360112610148578051918183019083821067ffffffffffffffff8311176103cb57506103c793508152600382526213925560ea1b60208301525191829182610acc565b0390f35b634e487b7160e01b815260418552602490fd5b9050346101f457816003193601126101f4576103f8610b15565b602435801515809103610460577f6a12b3df6cba4203bd7fd06b816789f87de8c594299aed5717ae070fac781bac9260209261043f60018060a01b03809354163314610c0d565b16938486526003835280862060ff1981541660ff841617905551908152a280f35b8480fd5b9050346101f457826003193601126101f4575490516001600160a01b03909116815260209150f35b839034610148578160031936011261014857546104b3906001600160a01b03163314610c0d565b6005805460ff60a01b1916600160a01b1790557f6985a02210a168e66602d3235cb6db0e70f92b3ba4d376a33c0f3d9434bff6258180a180f35b5050346101485760203660031901126101485760209181906001600160a01b03610515610b15565b1681526001845220549051908152f35b50503461014857816003193601126101485760209060ff60055460a01c1690519015158152f35b919050346101f457602090816003193601126106455782359261057760ff60055460a01c1615610b46565b338552600183528382862054106106055750907fcc16f5dbb4873280815c1ee09dbd06736cffcc184412cf7a71a0fdb75d397ca591338552600182528085206105c1858254610bdd565b90556105ce848654610bdd565b85558481518581527fddf252ad1be2c89b69c2b068fc378daa952ba7f163c4a11628f55a4df523b3ef843392a3519283523392a280f35b8280606493519262461bcd60e51b845283015260248201527f4e49543a206275726e20616d6f756e7420657863656564732062616c616e63656044820152fd5b8380fd5b9050346101f457816003193601126101f457610663610b15565b600554602435916001600160a01b039182163314801561081e575b156107cd5716928385526020926003845261069f60ff838820541615610b91565b841561078c578554906a52b7d2dcc80cd2e40000006106be8584610c00565b1161073d5750906106f2837f0f6798a560793a54c3bcfe86a93cde1e73087d944c0ea20544137d4121396885959493610c00565b865584865260018352808620610709838254610c00565b905584867fddf252ad1be2c89b69c2b068fc378daa952ba7f163c4a11628f55a4df523b3ef858451868152a351908152a280f35b825162461bcd60e51b81529081018590526024808201527f4e49543a206d696e74696e6720776f756c6420657863656564206d617820737560448201526370706c7960e01b6064820152608490fd5b83606492519162461bcd60e51b8352820152601d60248201527f4e49543a206d696e7420746f20746865207a65726f20616464726573730000006044820152fd5b845162461bcd60e51b8152602081860152602560248201527f4e49543a2063616c6c6572206973206e6f7420617574686f72697a656420746f604482015264081b5a5b9d60da1b6064820152608490fd5b5081845416331461067e565b83903461014857816003193601126101485754610851906001600160a01b03163314610c0d565b6005805460ff60a01b191690557f7805862f689e2f13df9f062ff482ad3ad112aca9e0847911ed832e158c525b338180a180f35b505034610148578160031936011261014857602090516a52b7d2dcc80cd2e40000008152f35b5050346101485781600319360112610148576020905160128152f35b9050346101f45760603660031901126101f4576108e2610b15565b906108eb610b30565b906044359161090260ff60055460a01c1615610b46565b8460018060a01b039687861680825260209860038a5261092860ff858520541615610b91565b841682526003895261094060ff848420541615610b91565b815260028852818120338252885220549183831061097a5750916109729161096d82869561037297610c59565b610bdd565b903390610dd5565b855162461bcd60e51b8152908101879052602660248201527f4e49543a207472616e7366657220616d6f756e74206578636565647320616c6c6044820152656f77616e636560d01b6064820152608490fd5b505034610148578160031936011261014857602091549051908152f35b505034610148578060031936011261014857610372602092610a3160ff84610a0f610b15565b93610a218360055460a01c1615610b46565b3381526003885220541615610b91565b6024359033610dd5565b50503461014857816003193601126101485760055490516001600160a01b039091168152602090f35b838534610ac95780600319360112610ac9578183019083821067ffffffffffffffff8311176103cb57506103c793508152601782527f4e696265727420496e766573746d656e7420546f6b656e00000000000000000060208301525191829182610acc565b80fd5b6020808252825181830181905290939260005b828110610b0157505060409293506000838284010152601f8019910116010190565b818101860151848201604001528501610adf565b600435906001600160a01b0382168203610b2b57565b600080fd5b602435906001600160a01b0382168203610b2b57565b15610b4d57565b606460405162461bcd60e51b815260206004820152602060248201527f4e49543a20746f6b656e207472616e73666572207768696c65207061757365646044820152fd5b15610b9857565b60405162461bcd60e51b815260206004820152601b60248201527f4e49543a206163636f756e7420697320626c61636b6c697374656400000000006044820152606490fd5b91908203918211610bea57565b634e487b7160e01b600052601160045260246000fd5b91908201809211610bea57565b15610c1457565b60405162461bcd60e51b815260206004820152601c60248201527f4e49543a2063616c6c6572206973206e6f7420746865206f776e6572000000006044820152606490fd5b6001600160a01b03908116918215610d845716918215610d35576000828152600160205281604082205410610ce4577fddf252ad1be2c89b69c2b068fc378daa952ba7f163c4a11628f55a4df523b3ef91604082856020945260018452818120610cc4848254610bdd565b90558681526001845220610cd9828254610c00565b9055604051908152a3565b60405162461bcd60e51b8152602060048201526024808201527f4e49543a207472616e7366657220616d6f756e7420657863656564732062616c604482015263616e636560e01b6064820152608490fd5b60405162461bcd60e51b815260206004820152602160248201527f4e49543a207472616e7366657220746f20746865207a65726f206164647265736044820152607360f81b6064820152608490fd5b60405162461bcd60e51b815260206004820152602360248201527f4e49543a207472616e736665722066726f6d20746865207a65726f206164647260448201526265737360e81b6064820152608490fd5b6001600160a01b03908116918215610e7a5716918215610e365760207f8c5be1e5ebec7d5bd14f71427d1e84f3dd0314c0f7b2291e5b200ac8c7c3b925918360005260028252604060002085600052825280604060002055604051908152a3565b606460405162461bcd60e51b815260206004820152602060248201527f4e49543a20617070726f766520746f20746865207a65726f20616464726573736044820152fd5b60405162461bcd60e51b815260206004820152602260248201527f4e49543a20617070726f76652066726f6d20746865207a65726f206164647265604482015261737360f01b6064820152608490fdfea2646970667358221220542faa6289ecd373ccde114e976d4b4773afd581278cd0ae50acd3779d22f3e764736f6c63430008130033",
  "linkReferences": {},
  "deployedLinkReferences": {}
}