{
  "_format": "hh-sol-artifact-1",
  "contractName": "YieldFarm",
  "sourceName": "contracts/defi/YieldFarm.sol",
  "abi": [
    {
      "inputs": [
        {
          "internalType": "contract IERC20Farm",
          "name": "_primaryRewardToken",
          "type": "address"
        },
        {
          "internalType": "uint256",
          "name": "_rewardPerBlock",
          "type": "uint256"
        },
        {
          "internalType": "uint256",
          "name": "_startBlock",
          "type": "uint256"
        }
      ],
      "stateMutability": "nonpayable",
      "type": "constructor"
    },
    {
      "anonymous": false,
      "inputs": [
        {
          "indexed": true,
          "internalType": "uint256",
          "name": "pid",
          "type": "uint256"
        },
        {
          "indexed": false,
          "internalType": "uint256",
          "name": "multiplier",
          "type": "uint256"
        },
        {
          "indexed": false,
          "internalType": "uint256",
          "name": "stakeTime",
          "type": "uint256"
        }
      ],
      "name": "BoostAdded",
      "type": "event"
    },
    {
      "anonymous": false,
      "inputs": [
        {
          "indexed": true,
          "internalType": "address",
          "name": "user",
          "type": "address"
        },
        {
          "indexed": true,
          "internalType": "uint256",
          "name": "pid",
          "type": "uint256"
        },
        {
          "indexed": false,
          "internalType": "uint256",
          "name": "amount",
          "type": "uint256"
        }
      ],
      "name": "Deposit",
      "type": "event"
    },
    {
      "anonymous": false,
      "inputs": [
        {
          "indexed": true,
          "internalType": "address",
          "name": "user",
          "type": "address"
        },
        {
          "indexed": true,
          "internalType": "uint256",
          "name": "pid",
          "type": "uint256"
        },
        {
          "indexed": false,
          "internalType": "uint256",
          "name": "amount",
          "type": "uint256"
        }
      ],
      "name": "EmergencyWithdraw",
      "type": "event"
    },
    {
      "anonymous": false,
      "inputs": [
        {
          "indexed": true,
          "internalType": "uint256",
          "name": "pid",
          "type": "uint256"
        },
        {
          "indexed": false,
          "internalType": "address",
          "name": "stakingToken",
          "type": "address"
        },
        {
          "indexed": false,
          "internalType": "uint256",
          "name": "allocPoint",
          "type": "uint256"
        }
      ],
      "name": "PoolAdded",
      "type": "event"
    },
    {
      "anonymous": false,
      "inputs": [
        {
          "indexed": true,
          "internalType": "uint256",
          "name": "pid",
          "type": "uint256"
        },
        {
          "indexed": false,
          "internalType": "uint256",
          "name": "allocPoint",
          "type": "uint256"
        }
      ],
      "name": "PoolUpdated",
      "type": "event"
    },
    {
      "anonymous": false,
      "inputs": [
        {
          "indexed": true,
          "internalType": "address",
          "name": "user",
          "type": "address"
        },
        {
          "indexed": true,
          "internalType": "uint256",
          "name": "pid",
          "type": "uint256"
        },
        {
          "indexed": false,
          "internalType": "uint256",
          "name": "amount",
          "type": "uint256"
        }
      ],
      "name": "RewardClaimed",
      "type": "event"
    },
    {
      "anonymous": false,
      "inputs": [
        {
          "indexed": true,
          "internalType": "address",
          "name": "user",
          "type": "address"
        },
        {
          "indexed": true,
          "internalType": "uint256",
          "name": "pid",
          "type": "uint256"
        },
        {
          "indexed": false,
          "internalType": "uint256",
          "name": "amount",
          "type": "uint256"
        }
      ],
      "name": "Withdraw",
      "type": "event"
    },
    {
      "inputs": [],
      "name": "MAX_POOLS",
      "outputs": [
        {
          "internalType": "uint256",
          "name": "",
          "type": "uint256"
        }
      ],
      "stateMutability": "view",
      "type": "function"
    },
    {
      "inputs": [
        {
          "internalType": "uint256",
          "name": "_allocPoint",
          "type": "uint256"
        },
        {
          "internalType": "contract IERC20Farm",
          "name": "_stakingToken",
          "type": "address"
        },
        {
          "internalType": "uint256",
          "name": "_minStakeTime",
          "type": "uint256"
        },
        {
          "internalType": "string",
          "name": "_poolName",
          "type": "string"
        }
      ],
      "name": "addPool",
      "outputs": [],
      "stateMutability": "nonpayable",
      "type": "function"
    },
    {
      "inputs": [
        {
          "internalType": "uint256",
          "name": "_pid",
          "type": "uint256"
        },
        {
          "internalType": "uint256",
          "name": "_boostMultiplier",
          "type": "uint256"
        },
        {
          "internalType": "uint256",
          "name": "_requiredStakeTime",
          "type": "uint256"
        },
        {
          "internalType": "uint256",
          "name": "_maxBoostAmount",
          "type": "uint256"
        }
      ],
      "name": "addPoolBoost",
      "outputs": [],
      "stateMutability": "nonpayable",
      "type": "function"
    },
    {
      "inputs": [
        {
          "internalType": "address",
          "name": "_token",
          "type": "address"
        },
        {
          "internalType": "uint256",
          "name": "_rewardPerBlock",
          "type": "uint256"
        }
      ],
      "name": "addRewardToken",
      "outputs": [],
      "stateMutability": "nonpayable",
      "type": "function"
    },
    {
      "inputs": [
        {
          "internalType": "address",
          "name": "",
          "type": "address"
        }
      ],
      "name": "additionalRewards",
      "outputs": [
        {
          "internalType": "contract IERC20Farm",
          "name": "token",
          "type": "address"
        },
        {
          "internalType": "uint256",
          "name": "rewardPerBlock",
          "type": "uint256"
        },
        {
          "internalType": "uint256",
          "name": "accRewardPerShare",
          "type": "uint256"
        },
        {
          "internalType": "uint256",
          "name": "totalDistributed",
          "type": "uint256"
        },
        {
          "internalType": "bool",
          "name": "active",
          "type": "bool"
        }
      ],
      "stateMutability": "view",
      "type": "function"
    },
    {
      "inputs": [
        {
          "internalType": "uint256",
          "name": "_pid",
          "type": "uint256"
        }
      ],
      "name": "claimRewards",
      "outputs": [],
      "stateMutability": "nonpayable",
      "type": "function"
    },
    {
      "inputs": [
        {
          "internalType": "uint256",
          "name": "_pid",
          "type": "uint256"
        },
        {
          "internalType": "uint256",
          "name": "_amount",
          "type": "uint256"
        }
      ],
      "name": "deposit",
      "outputs": [],
      "stateMutability": "nonpayable",
      "type": "function"
    },
    {
      "inputs": [
        {
          "internalType": "uint256",
          "name": "_pid",
          "type": "uint256"
        }
      ],
      "name": "emergencyWithdraw",
      "outputs": [],
      "stateMutability": "nonpayable",
      "type": "function"
    },
    {
      "inputs": [
        {
          "internalType": "uint256",
          "name": "_pid",
          "type": "uint256"
        }
      ],
      "name": "getPoolInfo",
      "outputs": [
        {
          "internalType": "address",
          "name": "stakingToken",
          "type": "address"
        },
        {
          "internalType": "uint256",
          "name": "allocPoint",
          "type": "uint256"
        },
        {
          "internalType": "uint256",
          "name": "totalStaked",
          "type": "uint256"
        },
        {
          "internalType": "uint256",
          "name": "accRewardPerShare",
          "type": "uint256"
        },
        {
          "internalType": "string",
          "name": "poolName",
          "type": "string"
        }
      ],
      "stateMutability": "view",
      "type": "function"
    },
    {
      "inputs": [],
      "name": "massUpdatePools",
      "outputs": [],
      "stateMutability": "nonpayable",
      "type": "function"
    },
    {
      "inputs": [],
      "name": "owner",
      "outputs": [
        {
          "internalType": "address",
          "name": "",
          "type": "address"
        }
      ],
      "stateMutability": "view",
      "type": "function"
    },
    {
      "inputs": [],
      "name": "paused",
      "outputs": [
        {
          "internalType": "bool",
          "name": "",
          "type": "bool"
        }
      ],
      "stateMutability": "view",
      "type": "function"
    },
    {
      "inputs": [
        {
          "internalType": "uint256",
          "name": "_pid",
          "type": "uint256"
        },
        {
          "internalType": "address",
          "name": "_user",
          "type": "address"
        }
      ],
      "name": "pendingRewards",
      "outputs": [
        {
          "internalType": "uint256",
          "name": "",
          "type": "uint256"
        }
      ],
      "stateMutability": "view",
      "type": "function"
    },
    {
      "inputs": [
        {
          "internalType": "uint256",
          "name": "",
          "type": "uint256"
        },
        {
          "internalType": "uint256",
          "name": "",
          "type": "uint256"
        }
      ],
      "name": "poolBoosts",
      "outputs": [
        {
          "internalType": "uint256",
          "name": "boostMultiplier",
          "type": "uint256"
        },
        {
          "internalType": "uint256",
          "name": "requiredStakeTime",
          "type": "uint256"
        },
        {
          "internalType": "uint256",
          "name": "maxBoostAmount",
          "type": "uint256"
        }
      ],
      "stateMutability": "view",
      "type": "function"
    },
    {
      "inputs": [
        {
          "internalType": "uint256",
          "name": "",
          "type": "uint256"
        }
      ],
      "name": "poolInfo",
      "outputs": [
        {
          "internalType": "contract IERC20Farm",
          "name": "stakingToken",
          "type": "address"
        },
        {
          "internalType": "uint256",
          "name": "allocPoint",
          "type": "uint256"
        },
        {
          "internalType": "uint256",
          "name": "lastRewardBlock",
          "type": "uint256"
        },
        {
          "internalType": "uint256",
          "name": "accRewardPerShare",
          "type": "uint256"
        },
        {
          "internalType": "uint256",
          "name": "totalStaked",
          "type": "uint256"
        },
        {
          "internalType": "uint256",
          "name": "minStakeTime",
          "type": "uint256"
        },
        {
          "internalType": "bool",
          "name": "emergencyWithdrawEnabled",
          "type": "bool"
        },
        {
          "internalType": "string",
          "name": "poolName",
          "type": "string"
        }
      ],
      "stateMutability": "view",
      "type": "function"
    },
    {
      "inputs": [],
      "name": "poolLength",
      "outputs": [
        {
          "internalType": "uint256",
          "name": "",
          "type": "uint256"
        }
      ],
      "stateMutability": "view",
      "type": "function"
    },
    {
      "inputs": [],
      "name": "primaryRewardToken",
      "outputs": [
        {
          "internalType": "contract IERC20Farm",
          "name": "",
          "type": "address"
        }
      ],
      "stateMutability": "view",
      "type": "function"
    },
    {
      "inputs": [],
      "name": "rewardPerBlock",
      "outputs": [
        {
          "internalType": "uint256",
          "name": "",
          "type": "uint256"
        }
      ],
      "stateMutability": "view",
      "type": "function"
    },
    {
      "inputs": [
        {
          "internalType": "uint256",
          "name": "",
          "type": "uint256"
        }
      ],
      "name": "rewardTokenList",
      "outputs": [
        {
          "internalType": "address",
          "name": "",
          "type": "address"
        }
      ],
      "stateMutability": "view",
      "type": "function"
    },
    {
      "inputs": [
        {
          "internalType": "uint256",
          "name": "_pid",
          "type": "uint256"
        },
        {
          "internalType": "bool",
          "name": "_enabled",
          "type": "bool"
        }
      ],
      "name": "setEmergencyWithdraw",
      "outputs": [],
      "stateMutability": "nonpayable",
      "type": "function"
    },
    {
      "inputs": [
        {
          "internalType": "bool",
          "name": "_paused",
          "type": "bool"
        }
      ],
      "name": "setPaused",
      "outputs": [],
      "stateMutability": "nonpayable",
      "type": "function"
    },
    {
      "inputs": [],
      "name": "startBlock",
      "outputs": [
        {
          "internalType": "uint256",
          "name": "",
          "type": "uint256"
        }
      ],
      "stateMutability": "view",
      "type": "function"
    },
    {
      "inputs": [],
      "name": "totalAllocPoint",
      "outputs": [
        {
          "internalType": "uint256",
          "name": "",
          "type": "uint256"
        }
      ],
      "stateMutability": "view",
      "type": "function"
    },
    {
      "inputs": [
        {
          "internalType": "uint256",
          "name": "_pid",
          "type": "uint256"
        }
      ],
      "name": "updatePool",
      "outputs": [],
      "stateMutability": "nonpayable",
      "type": "function"
    },
    {
      "inputs": [
        {
          "internalType": "uint256",
          "name": "_pid",
          "type": "uint256"
        },
        {
          "internalType": "uint256",
          "name": "_allocPoint",
          "type": "uint256"
        }
      ],
      "name": "updatePool",
      "outputs": [],
      "stateMutability": "nonpayable",
      "type": "function"
    },
    {
      "inputs": [
        {
          "internalType": "uint256",
          "name": "",
          "type": "uint256"
        },
        {
          "internalType": "address",
          "name": "",
          "type": "address"
        }
      ],
      "name": "userInfo",
      "outputs": [
        {
          "internalType": "uint256",
          "name": "amount",
          "type": "uint256"
        },
        {
          "internalType": "uint256",
          "name": "rewardDebt",
          "type": "uint256"
        },
        {
          "internalType": "uint256",
          "name": "lastStakeTime",
          "type": "uint256"
        },
        {
          "internalType": "uint256",
          "name": "totalRewarded",
          "type": "uint256"
        }
      ],
      "stateMutability": "view",
      "type": "function"
    },
    {
      "inputs": [
        {
          "internalType": "uint256",
          "name": "_pid",
          "type": "uint256"
        },
        {
          "internalType": "uint256",
          "name": "_amount",
          "type": "uint256"
        }
      ],
      "name": "withdraw",
      "outputs": [],
      "stateMutability": "nonpayable",
      "type": "function"
    }
  ],
  "bytecode": "0x60803461008f57601f611ec438819003918201601f19168301916001600160401b038311848410176100945780849260609460405283398101031261008f5780516001600160a01b038116919082900361008f57604060208201519101519060018060a01b03199283600054161760005560025560035533906001541617600155604051611e1990816100ab8239f35b600080fd5b634e487b7160e01b600052604160045260246000fdfe60806040818152600436101561001457600080fd5b600091823560e01c908163081e3eda14611498575080630962ef79146113925780630e3802e91461122157806313892de014610e6c5780631526fe2714610dca57806316c38b3c14610d8557806316c6959314610d1857806317caf6f114610cfa5780631fce450914610caa57806324dbae1714610b8b5780632f380b3514610b0e578063441a3e70146108d157806348cd4cb1146108b357806351eb05a6146108895780635312ea8e146107435780635c975abb14610720578063630b5ba11461070757806381358498146106ec5780638ae39cac146106ce5780638da5cb5b146106a657806393f1a40b1461064457806396ed7f89146105a9578063cef8faea14610567578063d18df53c1461041f578063d4a91e1d146103f8578063e2bbb158146101ba5763f57084181461014b57600080fd5b346101b6573660031901126101b35760043560243580151581036101af5760066101996101ac9361018760018060a01b036001541633146116f6565b6101946005548210611763565b61151d565b50019060ff801983541691151516179055565b80f35b8280fd5b80fd5b5080fd5b5090346101b3576101ca3661168d565b6005548210936101d985611763565b60ff9081600a54166103c0576101ee8461151d565b509584865260209260068452828720338852845261020e83882092611763565b61021786611c28565b81546103b1575b846102fa575b61023f90825464e8d4a510009283916003809c0154906117f7565b0492600193848201558389905b610281575b8989897f90890809c654f11d6e72a28fa60149770a0d11ec6c92319d6ceb2bb0a4ea1a158a8a519283523392a380f35b6009548110156102f557808b6102996102c8936116bf565b9054911b1c6001600160a01b0316808c5260088952878c20600481015487919087166102ce575b50505061182a565b8461024c565b6102df9060028754910154906117f7565b04908c52600484018952878c20553885816102c0565b610251565b875483516323b872dd60e01b815233600482015230602482015260448101879052908590829060649082908c906001600160a01b03165af19081156103a75761023f929161034f918a9161037a575b506117b9565b61035a868454611733565b83556004890161036b878254611733565b90554260028401559050610224565b61039a9150873d89116103a0575b61039281836114e5565b8101906117a1565b38610349565b503d610388565b84513d8a823e3d90fd5b6103bb3387611839565b61021e565b5162461bcd60e51b815260206004820152601260248201527110dbdb9d1c9858dd081a5cc81c185d5cd95960721b6044820152606490fd5b50346101b657816003193601126101b657905490516001600160a01b039091168152602090f35b50346101b657806003193601126101b6576004359161043c6114cf565b9061044a6005548510611763565b6104538461151d565b50848252600660205283822060018060a01b03841683526020528382209160038201549160028101548043118061055a575b6104c0575b6020876104b98a896104b38a600164e8d4a510006104a98d84546117f7565b0491015490611756565b91611b11565b9051908152f35b6104e76104dc6104d36104f09343611756565b600254906117f7565b6001840154906117f7565b6004549061180a565b9164e8d4a5100092838102938185041490151715610546575092600164e8d4a510006104a96105386104b998966105326104b397600460209e9b01549061180a565b90611733565b95975050508194975061048a565b634e487b7160e01b81526011600452602490fd5b5060048201541515610485565b50346101b65760203660031901126101b657600435916009548310156101b357506105936020926116bf565b905491519160018060a01b039160031b1c168152f35b50346101b6577f7fa9647ec1cc14e3822b46d05a2b9d4e019bde8875c0088c46b6503d71bf172260206105db3661168d565b90936105f260018060a01b036001541633146116f6565b6105ff6005548610611763565b610607611db1565b61062a82610625600454600161061c8a61151d565b50015490611756565b611733565b6004558160016106398761151d565b50015551908152a280f35b50346101b657806003193601126101b657806080926106616114cf565b600435825260066020528282209060018060a01b0316825260205220908154916001810154916003600283015492015492815194855260208501528301526060820152f35b50346101b657816003193601126101b65760015490516001600160a01b039091168152602090f35b50346101b657816003193601126101b6576020906002549051908152f35b50346101b657816003193601126101b6576020905160328152f35b82346101b357806003193601126101b3576101ac611db1565b50346101b657816003193601126101b65760209060ff600a541690519015158152f35b50346101b657602090816003193601126101af57600435916107686005548410611763565b6107718361151d565b509160ff6006840154161561084657838552600682528085203386528252808520928560018554958281550155600481016107ad858254611756565b905554815163a9059cbb60e01b815233600482015260248101859052908390829060449082908a906001600160a01b03165af190811561083c577fbb757047c2b5f3974fe26b7c10f732e7bce710b0952a71082702781e62ae059593929161081b91889161082557506117b9565b519283523392a380f35b61039a9150843d86116103a05761039281836114e5565b82513d88823e3d90fd5b60649250519062461bcd60e51b82526004820152601e60248201527f456d657267656e6379207769746864726177206e6f7420656e61626c656400006044820152fd5b82346101b35760203660031901126101b3576101ac6004356108ae6005548210611763565b611c28565b50346101b657816003193601126101b6576020906003549051908152f35b5090346101b3576108e13661168d565b60055482106108ef81611763565b6108f88361151d565b50948385526020916006835281862033875283528186209084825410610aca5760029061092d8284015460058b015490611733565b4210610a865761093c90611763565b61094586611c28565b61094f3387611839565b84610a13575b61097090825464e8d4a510009283916003809c0154906117f7565b0492600193848201558389905b6109b2575b8989897ff279e6a1f5e320cca91135676d9cb6e44ca8a08c0b88342bcdb1144f6511b5688a8a519283523392a380f35b600954811015610a0e57808b6109ca6109f9936116bf565b9054911b1c6001600160a01b0316808c5260088952878c20600481015487919060ff166109ff5750505061182a565b8461097d565b8554908701546102df916117f7565b610982565b610a1e858354611756565b825560048801610a2f868254611756565b90558754835163a9059cbb60e01b815233600482015260248101879052908590829060449082908c906001600160a01b03165af19081156103a7576109709291610a7f918a9161037a57506117b9565b9050610955565b835162461bcd60e51b815260048101869052601a60248201527f4d696e696d756d207374616b652074696d65206e6f74206d65740000000000006044820152606490fd5b825162461bcd60e51b815260048101859052601a60248201527f496e73756666696369656e74207374616b656420616d6f756e740000000000006044820152606490fd5b5090346101b35760203660031901126101b35750610b356004356101946005548210611763565b5090610b8760018060a01b03835416916001840154936004810154610b616007600384015493016115a7565b92805196879687526020870152850152606084015260a0608084015260a083019061164d565b0390f35b5090346101b35760803660031901126101b3576004356024359260443593610bbe60018060a01b036001541633146116f6565b610bcb6005548410611763565b82845260076020528184209482516060810181811067ffffffffffffffff821117610c9657845282815260208101828152848201976064358952805490600160401b821015610c825790610c24916001820181556116a3565b929092610c6e57976002917fa6535969187d73c15e4f494c1789112fe69db3a40fa3a400010ca2c803db37379798995184555160018401555191015582519182526020820152a280f35b634e487b7160e01b88526004889052602488fd5b634e487b7160e01b89526041600452602489fd5b634e487b7160e01b87526041600452602487fd5b50346101b657610cb93661168d565b9290815260076020528181209081548410156101b35750606092610cdc916116a3565b50805491600260018301549201549181519384526020840152820152f35b50346101b657816003193601126101b6576020906004549051908152f35b50346101b65760203660031901126101b65760a0916001600160a01b039190819083610d426114b4565b168152600860205220918254169160018101549160028201549060ff60046003850154940154169381519586526020860152840152606083015215156080820152f35b82346101b35760203660031901126101b3576004358015158091036101b657610db960018060a01b036001541633146116f6565b60ff8019600a5416911617600a5580f35b5090346101b35760203660031901126101b357600435906005548210156101b35750610df59061151d565b5090610b8760018060a01b038354169160018401549360028101546003820154600483015490600584015492610e35600760ff60068801541696016115a7565b958051998a998a5260208a01528801526060870152608086015260a0850152151560c08401526101008060e085015283019061164d565b50346101b65760803660031901126101b6576024356001600160a01b03811681036101af5760643567ffffffffffffffff811161121d573660238201121561121d5780600401359067ffffffffffffffff8211611209578490845192610edc6020601f19601f84011601856114e5565b80845236602482840101116101af578060246020930183860137830101526001610f1060018060a01b0382541633146116f6565b603260055410156111cd57610f23611db1565b6003548043116000146111c85750435b610f41600435600454611733565b600455845192610100840184811067ffffffffffffffff8211176111b457865260018060a01b03851684526020840191600435835286850190815260608501888152608086019089825260a0870192604435845260c08801948b865260e0890152600554600160401b8110156111a0578088610fc0920160055561151d565b96909661118c57885187546001600160a01b039091166001600160a01b031990911617875551878701555160028601555160038501555160048401555160058301555160068201805460ff191691151560ff1691909117905560e09060070192015180519067ffffffffffffffff8211610c965761103e845461156d565b601f8111611144575b50602090601f83116001146110e45792829391839289946110d9575b50501b916000199060031b1c19161790555b6005546000198101929083116110c557516001600160a01b0391909116815260043560208201527f6c5d0ef1d0199b6de41ecbce95f59643be4d723ca363faf92d756e61e82fb13e90604090a280f35b634e487b7160e01b84526011600452602484fd5b015192503880611063565b84885260208820919083601f1981168a5b8782821061112b57505010611112575b505050811b019055611075565b015160001960f88460031b161c19169055388080611105565b84860151875590950194602094850194879350016110f5565b84885260208820601f840160051c81019160208510611182575b601f0160051c019084905b828110611177575050611047565b898155018490611169565b909150819061115e565b634e487b7160e01b8c5260048c905260248cfd5b634e487b7160e01b8c52604160045260248cfd5b634e487b7160e01b88526041600452602488fd5b610f33565b835162461bcd60e51b815260206004820152601560248201527413585e1a5b5d5b481c1bdbdb1cc81c995858da1959605a1b6044820152606490fd5b634e487b7160e01b85526041600452602485fd5b8380fd5b50346101b657806003193601126101b65761123a6114b4565b6001546001600160a01b039291839161125690831633146116f6565b169081845260086020528281852054166113595780519060a0820182811067ffffffffffffffff82111761134557816004916112fd949352848352602083016024358152818401888152606085019189835288608087019460018652898c5260086020528b209651166bffffffffffffffffffffffff60a01b87541617865551600186015551600285015551600384015551151591019060ff801983541691151516179055565b600954600160401b8110156113315780600161131c92016009556116bf565b909283549160031b92831b921b191617905580f35b634e487b7160e01b84526041600452602484fd5b634e487b7160e01b86526041600452602486fd5b5162461bcd60e51b8152602060048201526013602482015272151bdad95b88185b1c9958591e481859191959606a1b6044820152606490fd5b50346101b657602090816003193601126101af5761140b90600435906113c460055483106113bf81611763565b611763565b6113cd82611c28565b6113d73383611839565b8185526006845280852033865284526113f28186209261151d565b5093825464e8d4a51000948591600380980154906117f7565b0493600194858501558487905b611420578780f35b6009548110156114945780611437611467926116bf565b905490891b1c6001600160a01b0316808a5260088552858a20600481015485919060ff1661146d5750505061182a565b85611418565b61147e9060028a54910154906117f7565b04908a52600487018552858a20553883816102c0565b8780f35b8390346101b657816003193601126101b6576020906005548152f35b600435906001600160a01b03821682036114ca57565b600080fd5b602435906001600160a01b03821682036114ca57565b90601f8019910116810190811067ffffffffffffffff82111761150757604052565b634e487b7160e01b600052604160045260246000fd5b60055481101561155757600560005260031b7f036b6384b5eca791c62761152d0c79bb0604c104a5fb6f4eb0703f3154bb3db00190600090565b634e487b7160e01b600052603260045260246000fd5b90600182811c9216801561159d575b602083101461158757565b634e487b7160e01b600052602260045260246000fd5b91607f169161157c565b90604051918260008254926115bb8461156d565b90818452600194858116908160001461162a57506001146115e7575b50506115e5925003836114e5565b565b9093915060005260209081600020936000915b8183106116125750506115e5935082010138806115d7565b855488840185015294850194879450918301916115fa565b9150506115e594506020925060ff191682840152151560051b82010138806115d7565b919082519283825260005b848110611679575050826000602080949584010152601f8019910116010190565b602081830181015184830182015201611658565b60409060031901126114ca576004359060243590565b8054821015611557576000526003602060002091020190600090565b6009548110156115575760096000527f6e1540171b6c0c960b71a7020d9f60077f6af931a8bbf590da0223dacf75c7af0190600090565b156116fd57565b60405162461bcd60e51b815260206004820152600e60248201526d139bdd08185d5d1a1bdc9a5e995960921b6044820152606490fd5b9190820180921161174057565b634e487b7160e01b600052601160045260246000fd5b9190820391821161174057565b1561176a57565b60405162461bcd60e51b815260206004820152600f60248201526e125b9d985b1a59081c1bdbdb081251608a1b6044820152606490fd5b908160209103126114ca575180151581036114ca5790565b156117c057565b60405162461bcd60e51b815260206004820152600f60248201526e151c985b9cd9995c8819985a5b1959608a1b6044820152606490fd5b8181029291811591840414171561174057565b8115611814570490565b634e487b7160e01b600052601260045260246000fd5b60001981146117405760010190565b6118428161151d565b5091600090828252602092600684526040938484209460018060a01b03948585169687825283528181209485549485156118bc576003998a015464e8d4a5100096879161188e916117f7565b04986118aa6118a360019b8c8b015490611756565b8484611b11565b80611a22575b5050508782905b6118c8575b50505050505050505050565b600954811015611a1d57876118dc826116bf565b9054908c1b1c168084526008865284842060049160ff838301541661190e575b5050506119089061182a565b886118b7565b61193690896119238c546002860154906117f7565b04908752838b0189528787205490611756565b9182156118fc578154875163a9059cbb60e01b81526001600160a01b0387168382019081526020810186905290918a9183918f169082908b90829060400103925af1908115611a135787916119f6575b50156119a957508b018054611908939261199f91611733565b90559038806118fc565b865162461bcd60e51b8152908101889052602160248201527f4164646974696f6e616c20726577617264207472616e73666572206661696c656044820152601960fa1b6064820152608490fd5b611a0d9150893d8b116103a05761039281836114e5565b38611986565b88513d89823e3d90fd5b6118bc565b8454865163a9059cbb60e01b81526001600160a01b03861660048201526024810183905290889082908d168189816044810103925af1908115611b07578691611aea575b5015611aad57867ff01da32686223933d8a18a391060918c7f11a3648639edd87ae013e2e2731743918d8b01611a9d828254611733565b90558751908152a33880806118b0565b855162461bcd60e51b815260048101889052601660248201527514995dd85c99081d1c985b9cd9995c8819985a5b195960521b6044820152606490fd5b611b019150883d8a116103a05761039281836114e5565b38611a66565b87513d88823e3d90fd5b91906000908382526006602052604082209060018060a01b031682526020526040812090600291611b458382015442611756565b93809583526007602052604083209183958354965b878110611b6c57505050505050505090565b6001611b7882876116a3565b500154821015611b91575b611b8c9061182a565b611b5a565b978254878a8682611ba2838b6116a3565b500154841115611c1857611bd792611bbd611bc5938b6116a3565b5001546117f7565b611bcf8c896116a3565b5054906117f7565b61271091828102928184041490151715611c045791610532611bfc92611b8c9461180a565b989050611b83565b634e487b7160e01b88526011600452602488fd5b611bd79250611bc59150836117f7565b611c319061151d565b50906002808301928354431115611dab576004938482018054958615611d9f57611c5c835443611756565b611c678654826117f7565b90600195611c85611c7d888301948554906117f7565b85549061180a565b9564e8d4a510009687810290808204891490151715611d8557889b611ca99161180a565b611cb96003809401918254611733565b90554390556000995b611cd3575b50505050505050509050565b6009548a1015611d9a57611ce68a6116bf565b905490821b1c6001600160a01b031660009081526008602052604090208481015460ff16611d24575b50611d1c8798999a61182a565b999897611cc2565b611d47611d3f611d378a840154866117f7565b8654906117f7565b86549061180a565b87810290808204891490151715611d85579a611d1c91611d7a8b611d708c9d9e9f8b549061180a565b9201918254611733565b90559a999850611d0f565b601186634e487b7160e01b6000525260246000fd5b611cc7565b50509293505050439055565b50509050565b60005b6005548110908115611ddf57611dcc611dda92611763565b611dd581611c28565b61182a565b611db4565b505056fea2646970667358221220d7c560698e7920fa7fc098338f3e9e581472279e1117a722c05ff36435637ab164736f6c63430008130033",
  "linkReferences": {},
  "deployedLinkReferences": {}
}