{
  "_format": "hh-sol-artifact-1",
  "contractName": "StakingRewards",
  "sourceName": "contracts/defi/StakingRewards.sol",
  "abi": [
    {
      "inputs": [
        {
          "internalType": "address",
          "name": "_stakingToken",
          "type": "address"
        },
        {
          "internalType": "address",
          "name": "_rewardsToken",
          "type": "address"
        },
        {
          "internalType": "uint256",
          "name": "_rewardRate",
          "type": "uint256"
        }
      ],
      "stateMutability": "nonpayable",
      "type": "constructor"
    },
    {
      "anonymous": false,
      "inputs": [
        {
          "indexed": false,
          "internalType": "uint256",
          "name": "reward",
          "type": "uint256"
        }
      ],
      "name": "RewardAdded",
      "type": "event"
    },
    {
      "anonymous": false,
      "inputs": [
        {
          "indexed": true,
          "internalType": "address",
          "name": "user",
          "type": "address"
        },
        {
          "indexed": false,
          "internalType": "uint256",
          "name": "reward",
          "type": "uint256"
        }
      ],
      "name": "RewardPaid",
      "type": "event"
    },
    {
      "anonymous": false,
      "inputs": [
        {
          "indexed": true,
          "internalType": "address",
          "name": "user",
          "type": "address"
        },
        {
          "indexed": false,
          "internalType": "uint256",
          "name": "amount",
          "type": "uint256"
        },
        {
          "indexed": false,
          "internalType": "uint256",
          "name": "tier",
          "type": "uint256"
        }
      ],
      "name": "Staked",
      "type": "event"
    },
    {
      "anonymous": false,
      "inputs": [
        {
          "indexed": false,
          "internalType": "bool",
          "name": "paused",
          "type": "bool"
        }
      ],
      "name": "StakingPaused",
      "type": "event"
    },
    {
      "anonymous": false,
      "inputs": [
        {
          "indexed": false,
          "internalType": "uint256",
          "name": "minAmount",
          "type": "uint256"
        },
        {
          "indexed": false,
          "internalType": "uint256",
          "name": "multiplier",
          "type": "uint256"
        },
        {
          "indexed": false,
          "internalType": "uint256",
          "name": "lockPeriod",
          "type": "uint256"
        }
      ],
      "name": "TierAdded",
      "type": "event"
    },
    {
      "anonymous": false,
      "inputs": [
        {
          "indexed": true,
          "internalType": "address",
          "name": "user",
          "type": "address"
        },
        {
          "indexed": false,
          "internalType": "uint256",
          "name": "amount",
          "type": "uint256"
        }
      ],
      "name": "Withdrawn",
      "type": "event"
    },
    {
      "inputs": [],
      "name": "REWARD_DURATION",
      "outputs": [
        {
          "internalType": "uint256",
          "name": "",
          "type": "uint256"
        }
      ],
      "stateMutability": "view",
      "type": "function"
    },
    {
      "inputs": [
        {
          "internalType": "uint256",
          "name": "minAmount",
          "type": "uint256"
        },
        {
          "internalType": "uint256",
          "name": "multiplier",
          "type": "uint256"
        },
        {
          "internalType": "uint256",
          "name": "lockPeriod",
          "type": "uint256"
        }
      ],
      "name": "addStakingTier",
      "outputs": [],
      "stateMutability": "nonpayable",
      "type": "function"
    },
    {
      "inputs": [],
      "name": "claimReward",
      "outputs": [],
      "stateMutability": "nonpayable",
      "type": "function"
    },
    {
      "inputs": [],
      "name": "compound",
      "outputs": [],
      "stateMutability": "nonpayable",
      "type": "function"
    },
    {
      "inputs": [
        {
          "internalType": "address",
          "name": "account",
          "type": "address"
        }
      ],
      "name": "earned",
      "outputs": [
        {
          "internalType": "uint256",
          "name": "",
          "type": "uint256"
        }
      ],
      "stateMutability": "view",
      "type": "function"
    },
    {
      "inputs": [],
      "name": "emergencyWithdraw",
      "outputs": [],
      "stateMutability": "nonpayable",
      "type": "function"
    },
    {
      "inputs": [],
      "name": "getPoolInfo",
      "outputs": [
        {
          "internalType": "uint256",
          "name": "totalStakedAmount",
          "type": "uint256"
        },
        {
          "internalType": "uint256",
          "name": "currentRewardRate",
          "type": "uint256"
        },
        {
          "internalType": "uint256",
          "name": "rewardsRemaining",
          "type": "uint256"
        },
        {
          "internalType": "uint256",
          "name": "totalRewardsGiven",
          "type": "uint256"
        },
        {
          "internalType": "uint256",
          "name": "rewardPeriodEnd",
          "type": "uint256"
        }
      ],
      "stateMutability": "view",
      "type": "function"
    },
    {
      "inputs": [
        {
          "internalType": "address",
          "name": "account",
          "type": "address"
        }
      ],
      "name": "getUserInfo",
      "outputs": [
        {
          "internalType": "uint256",
          "name": "stakedAmount",
          "type": "uint256"
        },
        {
          "internalType": "uint256",
          "name": "earnedRewards",
          "type": "uint256"
        },
        {
          "internalType": "uint256",
          "name": "tier",
          "type": "uint256"
        },
        {
          "internalType": "uint256",
          "name": "lockEndTime",
          "type": "uint256"
        },
        {
          "internalType": "uint256",
          "name": "totalClaimed",
          "type": "uint256"
        }
      ],
      "stateMutability": "view",
      "type": "function"
    },
    {
      "inputs": [],
      "name": "lastTimeRewardApplicable",
      "outputs": [
        {
          "internalType": "uint256",
          "name": "",
          "type": "uint256"
        }
      ],
      "stateMutability": "view",
      "type": "function"
    },
    {
      "inputs": [],
      "name": "lastUpdateTime",
      "outputs": [
        {
          "internalType": "uint256",
          "name": "",
          "type": "uint256"
        }
      ],
      "stateMutability": "view",
      "type": "function"
    },
    {
      "inputs": [
        {
          "internalType": "uint256",
          "name": "reward",
          "type": "uint256"
        }
      ],
      "name": "notifyRewardAmount",
      "outputs": [],
      "stateMutability": "nonpayable",
      "type": "function"
    },
    {
      "inputs": [],
      "name": "owner",
      "outputs": [
        {
          "internalType": "address",
          "name": "",
          "type": "address"
        }
      ],
      "stateMutability": "view",
      "type": "function"
    },
    {
      "inputs": [],
      "name": "periodFinish",
      "outputs": [
        {
          "internalType": "uint256",
          "name": "",
          "type": "uint256"
        }
      ],
      "stateMutability": "view",
      "type": "function"
    },
    {
      "inputs": [],
      "name": "rewardPerToken",
      "outputs": [
        {
          "internalType": "uint256",
          "name": "",
          "type": "uint256"
        }
      ],
      "stateMutability": "view",
      "type": "function"
    },
    {
      "inputs": [],
      "name": "rewardPerTokenStored",
      "outputs": [
        {
          "internalType": "uint256",
          "name": "",
          "type": "uint256"
        }
      ],
      "stateMutability": "view",
      "type": "function"
    },
    {
      "inputs": [],
      "name": "rewardRate",
      "outputs": [
        {
          "internalType": "uint256",
          "name": "",
          "type": "uint256"
        }
      ],
      "stateMutability": "view",
      "type": "function"
    },
    {
      "inputs": [],
      "name": "rewardsToken",
      "outputs": [
        {
          "internalType": "contract IERC20Staking",
          "name": "",
          "type": "address"
        }
      ],
      "stateMutability": "view",
      "type": "function"
    },
    {
      "inputs": [
        {
          "internalType": "bool",
          "name": "_paused",
          "type": "bool"
        }
      ],
      "name": "setStakingPaused",
      "outputs": [],
      "stateMutability": "nonpayable",
      "type": "function"
    },
    {
      "inputs": [
        {
          "internalType": "uint256",
          "name": "amount",
          "type": "uint256"
        }
      ],
      "name": "stake",
      "outputs": [],
      "stateMutability": "nonpayable",
      "type": "function"
    },
    {
      "inputs": [],
      "name": "stakingPaused",
      "outputs": [
        {
          "internalType": "bool",
          "name": "",
          "type": "bool"
        }
      ],
      "stateMutability": "view",
      "type": "function"
    },
    {
      "inputs": [
        {
          "internalType": "uint256",
          "name": "",
          "type": "uint256"
        }
      ],
      "name": "stakingTiers",
      "outputs": [
        {
          "internalType": "uint256",
          "name": "minAmount",
          "type": "uint256"
        },
        {
          "internalType": "uint256",
          "name": "multiplier",
          "type": "uint256"
        },
        {
          "internalType": "uint256",
          "name": "lockPeriod",
          "type": "uint256"
        }
      ],
      "stateMutability": "view",
      "type": "function"
    },
    {
      "inputs": [],
      "name": "stakingToken",
      "outputs": [
        {
          "internalType": "contract IERC20Staking",
          "name": "",
          "type": "address"
        }
      ],
      "stateMutability": "view",
      "type": "function"
    },
    {
      "inputs": [],
      "name": "totalRewardsDistributed",
      "outputs": [
        {
          "internalType": "uint256",
          "name": "",
          "type": "uint256"
        }
      ],
      "stateMutability": "view",
      "type": "function"
    },
    {
      "inputs": [],
      "name": "totalStaked",
      "outputs": [
        {
          "internalType": "uint256",
          "name": "",
          "type": "uint256"
        }
      ],
      "stateMutability": "view",
      "type": "function"
    },
    {
      "inputs": [
        {
          "internalType": "address",
          "name": "newOwner",
          "type": "address"
        }
      ],
      "name": "transferOwnership",
      "outputs": [],
      "stateMutability": "nonpayable",
      "type": "function"
    },
    {
      "inputs": [
        {
          "internalType": "address",
          "name": "",
          "type": "address"
        }
      ],
      "name": "userInfo",
      "outputs": [
        {
          "internalType": "uint256",
          "name": "stakedAmount",
          "type": "uint256"
        },
        {
          "internalType": "uint256",
          "name": "rewardPerTokenPaid",
          "type": "uint256"
        },
        {
          "internalType": "uint256",
          "name": "rewards",
          "type": "uint256"
        },
        {
          "internalType": "uint256",
          "name": "lastStakeTime",
          "type": "uint256"
        },
        {
          "internalType": "uint256",
          "name": "totalRewardsClaimed",
          "type": "uint256"
        }
      ],
      "stateMutability": "view",
      "type": "function"
    },
    {
      "inputs": [
        {
          "internalType": "address",
          "name": "",
          "type": "address"
        }
      ],
      "name": "userTier",
      "outputs": [
        {
          "internalType": "uint256",
          "name": "",
          "type": "uint256"
        }
      ],
      "stateMutability": "view",
      "type": "function"
    },
    {
      "inputs": [
        {
          "internalType": "uint256",
          "name": "amount",
          "type": "uint256"
        }
      ],
      "name": "withdraw",
      "outputs": [],
      "stateMutability": "nonpayable",
      "type": "function"
    }
  ],
  "bytecode": "0x60c034620003ba57601f620019b938819003918201601f191683019291906001600160401b03841183851017620003bf578160609284926040968752833981010312620003ba576200005181620003f5565b916020928162000063858501620003f5565b930151926001600160a01b0391821680151580620003ae575b1562000376576080521660a0526000918255600780546001600160a01b03191633179055620000aa620003d5565b82815283810190612710908183528381019585875260089283549268010000000000000000958685101562000362576001948581018088558110156200034e57996002918a9b6003878d8b60609e9f5220910201935184555186840155519101558651908882528282015287878201527f8a68dd5ddbfcc5467b08bb78844d64853315ada46e7fcfe61e44f1a011ccc0d2958691a162000149620003d5565b683635c9adc5dea000009081815282810190612ee09081835289810162278d009384825288548a8110156200033a57888101808b5581101562000326578b96949260609694928f9260038b858f600297522091020193518455518a840155519101558a519283528583015289820152a1620001c3620003d5565b69021e19e0c9bab24000009081815282810190613a98908183528981016276a7009384825288548a8110156200033a57888101808b5581101562000326578b96949260609694928f9260038b858f600297522091020193518455518a840155519101558a519283528583015289820152a16200023e620003d5565b690a968163f0a57b4000009485825282820193614e20948581528984019262ed4e00978885528054918210156200031257838201808255821015620002fe57906003878e60609d9e9f94600298979695522091020194518555519084015551910155865193845283015284820152a1516115ae90816200040b82396080518181816101d4015281816105dc015281816109c70152610b6b015260a0518181816101b1015281816107260152818161085101528181610cad0152610dec0152f35b634e487b7160e01b8d52603260045260248dfd5b634e487b7160e01b8d52604160045260248dfd5b634e487b7160e01b8e52603260045260248efd5b634e487b7160e01b8e52604160045260248efd5b634e487b7160e01b8a52603260045260248afd5b634e487b7160e01b89526041600452602489fd5b835162461bcd60e51b8152600481018790526011602482015270496e76616c69642061646472657373657360781b6044820152606490fd5b5082821615156200007c565b600080fd5b634e487b7160e01b600052604160045260246000fd5b60405190606082016001600160401b03811183821017620003bf57604052565b51906001600160a01b0382168203620003ba5756fe60406080815260048036101561001457600080fd5b600091823560e01c80628cc262146111c557806315b31bbb1461114a5780631959a002146110dc57806321c7557c146110a25780632e1a7d4d14610ee45780633c6b16ab14610d745780635ade228a14610d5557806360246c8814610c755780636386c1c714610b9a57806372f702f314610b565780637b0a47ee14610b3957806380faa57d14610b1c578063817b1cd214610afd5780638da5cb5b14610ad4578063a694fc3a1461094b578063b88a802f146107bf578063bbb781cc14610798578063c8f33c9114610779578063cd3daf9d14610755578063d1af0c7d14610711578063d50267ee146106b8578063db2e21bc1461055d578063df136d651461053e578063ebe2b12b1461051f578063ee17254614610500578063f2fde38b14610472578063f64aedfa1461035f5763f69e20461461015357600080fd5b3461035b578260031936011261035b5761016b611379565b600355610176611485565b60025533610335575b61019160ff60075460a01c1615611247565b3383526020828152600282852001549283156102fb576001600160a01b037f000000000000000000000000000000000000000000000000000000000000000081167f0000000000000000000000000000000000000000000000000000000000000000909116036102ba57907f1449c6dd7851abc30abf37f57715f492010519147cc2652fbc38202c18a6ee909291338652808252828620866002820155610239868254611336565b81554260038201550161024d858254611336565b905561025b84600554611336565b60055561026a84600654611336565b600655610276336114d4565b81518481527fe2403640ba68fed3a2f88b7557551d1993f84b99bb10ff833f0cf8db0c5e0486823392a233855260098152818520549082519485528401523392a280f35b915162461bcd60e51b815291820181905260248201527f43616e6e6f7420636f6d706f756e6420646966666572656e7420746f6b656e736044820152606490fd5b915162461bcd60e51b8152918201526016602482015275139bc81c995dd85c991cc81d1bc818dbdb5c1bdd5b9960521b6044820152606490fd5b61033e336113d5565b33845282602052818420906002820155600160035491015561017f565b8280fd5b5082903461046e57606036600319011261046e578235602435916044359061039260018060a01b03600754163314611497565b80516060810181811067ffffffffffffffff82111761045b578252838152602081018581528282019084825260085468010000000000000000811015610448578060016103e292016008556111f6565b939093610436575183555160018301555160029091015551918252602082019290925260408101919091527f8a68dd5ddbfcc5467b08bb78844d64853315ada46e7fcfe61e44f1a011ccc0d290606090a180f35b634e487b7160e01b8952888a52602489fd5b634e487b7160e01b895260418a52602489fd5b634e487b7160e01b875260418852602487fd5b5080fd5b503461035b57602036600319011261035b576001600160a01b038235818116939192908490036104fc576104ac6007549384163314611497565b83156104c55750506001600160a01b0319161760075580f35b906020606492519162461bcd60e51b8352820152601160248201527024b73b30b634b2103732bb9037bbb732b960791b6044820152fd5b8480fd5b83823461046e578160031936011261046e576020906006549051908152f35b83823461046e578160031936011261046e576020906001549051908152f35b83823461046e578160031936011261046e576020906003549051908152f35b50903461035b578260031936011261035b57338352602081815282842091825492831561068357836105d7928760028482889655015561059f82600554611359565b6005553380895260098452878920899055875163a9059cbb60e01b815291820190815260208101929092529283918291604090910190565b0381887f00000000000000000000000000000000000000000000000000000000000000006001600160a01b03165af1908115610679577f7084f5476618d8e60b11ef0d7d3f06914655adb8793e28ff7f018d4c76d505d593949161064291879161064c575b506112f8565b519283523392a280f35b61066c9150843d8611610672575b61066481836112b9565b8101906112db565b3861063c565b503d61065a565b84513d87823e3d90fd5b5060649184519162461bcd60e51b8352820152601060248201526f139bc81d1bdad95b9cc81cdd185ad95960821b6044820152fd5b5091903461046e57602036600319011261046e57359060085482101561070e57506106e2906111f6565b5080546001820154600290920154925190815260208101919091526040810191909152606090f35b0390f35b80fd5b83823461046e578160031936011261046e57517f00000000000000000000000000000000000000000000000000000000000000006001600160a01b03168152602090f35b83823461046e578160031936011261046e57602090610772611379565b9051908152f35b83823461046e578160031936011261046e576020906002549051908152f35b83823461046e578160031936011261046e5760209060ff60075460a01c1690519015158152f35b503461035b578260031936011261035b576107d8611379565b6003556107e3611485565b60025533610925575b338352602090828252808420926002840180549486866108095780f35b83925501610818858254611336565b905561082684600654611336565b600655815163a9059cbb60e01b815233828201908152602081018690528490829081906040010381897f00000000000000000000000000000000000000000000000000000000000000006001600160a01b03165af190811561091b5786916108fe575b50156108c45750907fe2403640ba68fed3a2f88b7557551d1993f84b99bb10ff833f0cf8db0c5e048691519283523392a23880808080808680f35b82606492519162461bcd60e51b8352820152601660248201527514995dd85c99081d1c985b9cd9995c8819985a5b195960521b6044820152fd5b6109159150843d86116106725761066481836112b9565b38610889565b83513d88823e3d90fd5b61092e336113d5565b3384528260205281842090600282015560016003549101556107ec565b503461035b5760209081600319360112610ad05782359161096a611379565b600355610975611485565b60025533610aab575b61099060ff60075460a01c1615611247565b8215610a785781516323b872dd60e01b815233858201908152306020820152604081018590529094908290869081906060010381897f00000000000000000000000000000000000000000000000000000000000000006001600160a01b03165af194851561091b577f1449c6dd7851abc30abf37f57715f492010519147cc2652fbc38202c18a6ee909495610a2b91889161064c57506112f8565b3386528152818520610a3e858254611336565b8155600342910155610a5284600554611336565b600555610a5e336114d4565b33855260098152818520549082519485528401523392a280f35b8390606492519162461bcd60e51b8352820152600e60248201526d043616e6e6f74207374616b6520360941b6044820152fd5b610ab4336113d5565b338652848252828620906002820155600160035491015561097e565b8380fd5b83823461046e578160031936011261046e5760075490516001600160a01b039091168152602090f35b83823461046e578160031936011261046e576020906005549051908152f35b83823461046e578160031936011261046e57602090610772611485565b83823461046e578160031936011261046e57602091549051908152f35b83823461046e578160031936011261046e57517f00000000000000000000000000000000000000000000000000000000000000006001600160a01b03168152602090f35b50903461035b57602036600319011261035b578035916001600160a01b0383168084036104fc5761070a928186528060205282862095835191610bdc83611287565b8754835260018801546020840152600288015485840152600388015497606084019889520154926080830193845281526009602052610c20848220549251966113d5565b968215610c6e57610c419150516002610c38846111f6565b50015490611336565b915b519251958695869192608093969594919660a084019784526020840152604083015260608201520152565b5091610c43565b5082903461046e578160031936011261046e57600554825482516370a0823160e01b81523095810195909552939092906020816024817f00000000000000000000000000000000000000000000000000000000000000006001600160a01b03165afa918215610d4a578092610d14575b50506006546001549251938452602084019490945260408301526060820192909252608081019190915260a090f35b9091506020823d8211610d42575b81610d2f602093836112b9565b8101031261070e57505161070a85610ce5565b3d9150610d22565b8351903d90823e3d90fd5b83823461046e578160031936011261046e57602090516301e133808152f35b5082903461046e57602036600319011261046e5782359060018060a01b03610da181600754163314611497565b610da9611379565b600355610db4611485565b60025581516323b872dd60e01b81523386820190815230602082810191909152604082018690529192839182908890829060600103927f0000000000000000000000000000000000000000000000000000000000000000165af1908115610eda5790610e26918591610ebc57506112f8565b600154428111610e9057506301e13380820483555b426002556301e133804201804211610e7d57600155519081527fde88a922e0d3b88b24e9623efeb464919c6bf9f66857a65e2bfcf2ce87a9433d90602090a180f35b634e487b7160e01b845260118552602484fd5b610eb4610eae610ea66301e13380934290611359565b865490611366565b84611336565b048355610e3b565b610ed4915060203d81116106725761066481836112b9565b8661063c565b82513d86823e3d90fd5b50903461035b57602080600319360112610ad057813591610f03611379565b600355610f0e611485565b6002553361107d575b821561104857338552808252838520908154918483106110055783918591338952600984528789205480610f97575b50610f54836105d796611359565b9055610f6282600554611359565b600555610f6e336114d4565b865163a9059cbb60e01b8152339181019182526020820192909252909283918291604090910190565b909350610fb1919492506002610c386003860154926111f6565b4210610fc257918490849238610f46565b855162461bcd60e51b8152808401859052601760248201527f546f6b656e7320617265207374696c6c206c6f636b65640000000000000000006044820152606490fd5b855162461bcd60e51b8152808301859052601a60248201527f496e73756666696369656e74207374616b656420616d6f756e740000000000006044820152606490fd5b60649184519162461bcd60e51b83528201526011602482015270043616e6e6f74207769746864726177203607c1b6044820152fd5b611086336113d5565b3386528183528486209060028201556001600354910155610f17565b50903461035b57602036600319011261035b57356001600160a01b0381169081900361035b57828291602094526009845220549051908152f35b50823461070e57602036600319011261070e5782356001600160a01b0381169081900361046e5781526020838152908290208054600182015460028301546003840154939096015494519182529281019290925260408201939093526060810192909252608082015260a090f35b50903461035b57602036600319011261035b57359081151580920361035b576007547f3cf4fe733160f8f8c48336fab32acee32ebaaa423a08a2be4e5ceff97dd98c699260209290916111a7336001600160a01b03831614611497565b60ff60a01b191660a083901b60ff60a01b161760075551908152a180f35b50903461035b57602036600319011261035b5735916001600160a01b038316830361070e57506107726020926113d5565b600854811015611231576003906008600052027ff3f7a9fe364faab93b216da50a3214154f22a0a2b415b23a84c8169e8b636ee30190600090565b634e487b7160e01b600052603260045260246000fd5b1561124e57565b60405162461bcd60e51b815260206004820152601160248201527014dd185ada5b99c81a5cc81c185d5cd959607a1b6044820152606490fd5b60a0810190811067ffffffffffffffff8211176112a357604052565b634e487b7160e01b600052604160045260246000fd5b90601f8019910116810190811067ffffffffffffffff8211176112a357604052565b908160209103126112f3575180151581036112f35790565b600080fd5b156112ff57565b60405162461bcd60e51b815260206004820152600f60248201526e151c985b9cd9995c8819985a5b1959608a1b6044820152606490fd5b9190820180921161134357565b634e487b7160e01b600052601160045260246000fd5b9190820391821161134357565b8181029291811591840414171561134357565b60055480156113ce576003546113a561139c611393611485565b60025490611359565b60005490611366565b91670de0b6b3a764000092838102938185041490151715611343576113cb920490611336565b90565b5060035490565b6113cb9060018060a01b031680600052600460205261271061147d604060002092670de0b6b3a76400006114776040519261140f84611287565b8654845260018701549060208501918252600460028901549860408701998a5260038101546060880152015460808601526000526009602052611471600161145b6040600020546111f6565b500154945191611469611379565b905190611359565b90611366565b04611366565b049051611336565b6001548042106000146113cb57504290565b1561149e57565b60405162461bcd60e51b815260206004820152600e60248201526d139bdd08185d5d1a1bdc9a5e995960921b6044820152606490fd5b6001600160a01b0316600081815260046020819052604082205460085490949383929091805b611511575b50508152600960205260409020559050565b600019810181811161156557611526816111f6565b5054881015611553575080156115405760001901806114fa565b634e487b7160e01b845260118252602484fd5b959650869594503891508190506114ff565b634e487b7160e01b855260118352602485fdfea26469706673582212207fb547e9d5a55aaa36c214d1c4c1334c9f48a3613a1f9447d4bd4036715cfd7164736f6c63430008130033",
  "linkReferences": {},
  "deployedLinkReferences": {}
}