{
  "_format": "hh-sol-artifact-1",
  "contractName": "NFTMarketplace",
  "sourceName": "contracts/tokens/NFTMarketplace.sol",
  "abi": [
    {
      "inputs": [
        {
          "internalType": "uint256",
          "name": "_platformFee",
          "type": "uint256"
        },
        {
          "internalType": "address",
          "name": "_feeRecipient",
          "type": "address"
        }
      ],
      "stateMutability": "nonpayable",
      "type": "constructor"
    },
    {
      "anonymous": false,
      "inputs": [
        {
          "indexed": true,
          "internalType": "uint256",
          "name": "listingId",
          "type": "uint256"
        },
        {
          "indexed": true,
          "internalType": "address",
          "name": "bidder",
          "type": "address"
        },
        {
          "indexed": false,
          "internalType": "uint256",
          "name": "amount",
          "type": "uint256"
        }
      ],
      "name": "BidPlaced",
      "type": "event"
    },
    {
      "anonymous": false,
      "inputs": [
        {
          "indexed": true,
          "internalType": "address",
          "name": "contractAddress",
          "type": "address"
        },
        {
          "indexed": false,
          "internalType": "string",
          "name": "name",
          "type": "string"
        }
      ],
      "name": "CollectionAdded",
      "type": "event"
    },
    {
      "anonymous": false,
      "inputs": [
        {
          "indexed": true,
          "internalType": "uint256",
          "name": "listingId",
          "type": "uint256"
        }
      ],
      "name": "ListingCancelled",
      "type": "event"
    },
    {
      "anonymous": false,
      "inputs": [
        {
          "indexed": true,
          "internalType": "uint256",
          "name": "listingId",
          "type": "uint256"
        },
        {
          "indexed": true,
          "internalType": "address",
          "name": "seller",
          "type": "address"
        },
        {
          "indexed": true,
          "internalType": "address",
          "name": "nftContract",
          "type": "address"
        },
        {
          "indexed": false,
          "internalType": "uint256",
          "name": "tokenId",
          "type": "uint256"
        },
        {
          "indexed": false,
          "internalType": "uint256",
          "name": "price",
          "type": "uint256"
        },
        {
          "indexed": false,
          "internalType": "enum NFTMarketplace.ListingType",
          "name": "listingType",
          "type": "uint8"
        }
      ],
      "name": "NFTListed",
      "type": "event"
    },
    {
      "anonymous": false,
      "inputs": [
        {
          "indexed": true,
          "internalType": "uint256",
          "name": "listingId",
          "type": "uint256"
        },
        {
          "indexed": true,
          "internalType": "address",
          "name": "buyer",
          "type": "address"
        },
        {
          "indexed": true,
          "internalType": "address",
          "name": "seller",
          "type": "address"
        },
        {
          "indexed": false,
          "internalType": "uint256",
          "name": "price",
          "type": "uint256"
        }
      ],
      "name": "NFTSold",
      "type": "event"
    },
    {
      "anonymous": false,
      "inputs": [
        {
          "indexed": true,
          "internalType": "address",
          "name": "recipient",
          "type": "address"
        },
        {
          "indexed": false,
          "internalType": "uint256",
          "name": "amount",
          "type": "uint256"
        }
      ],
      "name": "RoyaltyPaid",
      "type": "event"
    },
    {
      "inputs": [],
      "name": "BID_EXTENSION_TIME",
      "outputs": [
        {
          "internalType": "uint256",
          "name": "",
          "type": "uint256"
        }
      ],
      "stateMutability": "view",
      "type": "function"
    },
    {
      "inputs": [],
      "name": "MAX_AUCTION_DURATION",
      "outputs": [
        {
          "internalType": "uint256",
          "name": "",
          "type": "uint256"
        }
      ],
      "stateMutability": "view",
      "type": "function"
    },
    {
      "inputs": [],
      "name": "MAX_ROYALTY_PERCENTAGE",
      "outputs": [
        {
          "internalType": "uint256",
          "name": "",
          "type": "uint256"
        }
      ],
      "stateMutability": "view",
      "type": "function"
    },
    {
      "inputs": [],
      "name": "MIN_AUCTION_DURATION",
      "outputs": [
        {
          "internalType": "uint256",
          "name": "",
          "type": "uint256"
        }
      ],
      "stateMutability": "view",
      "type": "function"
    },
    {
      "inputs": [
        {
          "internalType": "address",
          "name": "",
          "type": "address"
        }
      ],
      "name": "acceptedPaymentTokens",
      "outputs": [
        {
          "internalType": "bool",
          "name": "",
          "type": "bool"
        }
      ],
      "stateMutability": "view",
      "type": "function"
    },
    {
      "inputs": [
        {
          "internalType": "address",
          "name": "contractAddress",
          "type": "address"
        },
        {
          "internalType": "string",
          "name": "name",
          "type": "string"
        },
        {
          "internalType": "string",
          "name": "symbol",
          "type": "string"
        },
        {
          "internalType": "address",
          "name": "creator",
          "type": "address"
        },
        {
          "internalType": "uint256",
          "name": "royaltyPercentage",
          "type": "uint256"
        }
      ],
      "name": "addCollection",
      "outputs": [],
      "stateMutability": "nonpayable",
      "type": "function"
    },
    {
      "inputs": [
        {
          "internalType": "address",
          "name": "token",
          "type": "address"
        }
      ],
      "name": "addPaymentToken",
      "outputs": [],
      "stateMutability": "nonpayable",
      "type": "function"
    },
    {
      "inputs": [
        {
          "internalType": "uint256",
          "name": "",
          "type": "uint256"
        },
        {
          "internalType": "uint256",
          "name": "",
          "type": "uint256"
        }
      ],
      "name": "auctionBids",
      "outputs": [
        {
          "internalType": "address",
          "name": "bidder",
          "type": "address"
        },
        {
          "internalType": "uint256",
          "name": "amount",
          "type": "uint256"
        },
        {
          "internalType": "uint256",
          "name": "timestamp",
          "type": "uint256"
        }
      ],
      "stateMutability": "view",
      "type": "function"
    },
    {
      "inputs": [
        {
          "internalType": "uint256",
          "name": "listingId",
          "type": "uint256"
        }
      ],
      "name": "buyNFT",
      "outputs": [],
      "stateMutability": "payable",
      "type": "function"
    },
    {
      "inputs": [
        {
          "internalType": "uint256",
          "name": "listingId",
          "type": "uint256"
        }
      ],
      "name": "cancelListing",
      "outputs": [],
      "stateMutability": "nonpayable",
      "type": "function"
    },
    {
      "inputs": [
        {
          "internalType": "address",
          "name": "",
          "type": "address"
        }
      ],
      "name": "collections",
      "outputs": [
        {
          "internalType": "address",
          "name": "contractAddress",
          "type": "address"
        },
        {
          "internalType": "string",
          "name": "name",
          "type": "string"
        },
        {
          "internalType": "string",
          "name": "symbol",
          "type": "string"
        },
        {
          "internalType": "address",
          "name": "creator",
          "type": "address"
        },
        {
          "internalType": "uint256",
          "name": "royaltyPercentage",
          "type": "uint256"
        },
        {
          "internalType": "bool",
          "name": "isVerified",
          "type": "bool"
        },
        {
          "internalType": "uint256",
          "name": "totalVolume",
          "type": "uint256"
        },
        {
          "internalType": "uint256",
          "name": "floorPrice",
          "type": "uint256"
        }
      ],
      "stateMutability": "view",
      "type": "function"
    },
    {
      "inputs": [
        {
          "internalType": "address",
          "name": "token",
          "type": "address"
        },
        {
          "internalType": "uint256",
          "name": "amount",
          "type": "uint256"
        }
      ],
      "name": "emergencyWithdraw",
      "outputs": [],
      "stateMutability": "nonpayable",
      "type": "function"
    },
    {
      "inputs": [],
      "name": "feeRecipient",
      "outputs": [
        {
          "internalType": "address",
          "name": "",
          "type": "address"
        }
      ],
      "stateMutability": "view",
      "type": "function"
    },
    {
      "inputs": [
        {
          "internalType": "uint256",
          "name": "listingId",
          "type": "uint256"
        }
      ],
      "name": "finalizeAuction",
      "outputs": [],
      "stateMutability": "nonpayable",
      "type": "function"
    },
    {
      "inputs": [
        {
          "internalType": "uint256",
          "name": "listingId",
          "type": "uint256"
        }
      ],
      "name": "getAuctionBids",
      "outputs": [
        {
          "internalType": "address[]",
          "name": "bidders",
          "type": "address[]"
        },
        {
          "internalType": "uint256[]",
          "name": "amounts",
          "type": "uint256[]"
        },
        {
          "internalType": "uint256[]",
          "name": "timestamps",
          "type": "uint256[]"
        }
      ],
      "stateMutability": "view",
      "type": "function"
    },
    {
      "inputs": [
        {
          "internalType": "address",
          "name": "contractAddress",
          "type": "address"
        }
      ],
      "name": "getCollectionStats",
      "outputs": [
        {
          "internalType": "string",
          "name": "name",
          "type": "string"
        },
        {
          "internalType": "uint256",
          "name": "totalVolume",
          "type": "uint256"
        },
        {
          "internalType": "uint256",
          "name": "floorPrice",
          "type": "uint256"
        },
        {
          "internalType": "uint256",
          "name": "royaltyPercentage",
          "type": "uint256"
        },
        {
          "internalType": "bool",
          "name": "isVerified",
          "type": "bool"
        }
      ],
      "stateMutability": "view",
      "type": "function"
    },
    {
      "inputs": [
        {
          "internalType": "uint256",
          "name": "listingId",
          "type": "uint256"
        }
      ],
      "name": "getListing",
      "outputs": [
        {
          "internalType": "address",
          "name": "seller",
          "type": "address"
        },
        {
          "internalType": "address",
          "name": "nftContract",
          "type": "address"
        },
        {
          "internalType": "uint256",
          "name": "tokenId",
          "type": "uint256"
        },
        {
          "internalType": "uint256",
          "name": "price",
          "type": "uint256"
        },
        {
          "internalType": "enum NFTMarketplace.ListingStatus",
          "name": "status",
          "type": "uint8"
        },
        {
          "internalType": "uint256",
          "name": "endTime",
          "type": "uint256"
        },
        {
          "internalType": "uint256",
          "name": "highestBid",
          "type": "uint256"
        },
        {
          "internalType": "address",
          "name": "highestBidder",
          "type": "address"
        }
      ],
      "stateMutability": "view",
      "type": "function"
    },
    {
      "inputs": [
        {
          "internalType": "address",
          "name": "user",
          "type": "address"
        }
      ],
      "name": "getUserListings",
      "outputs": [
        {
          "internalType": "uint256[]",
          "name": "",
          "type": "uint256[]"
        }
      ],
      "stateMutability": "view",
      "type": "function"
    },
    {
      "inputs": [
        {
          "internalType": "address",
          "name": "nftContract",
          "type": "address"
        },
        {
          "internalType": "uint256",
          "name": "tokenId",
          "type": "uint256"
        },
        {
          "internalType": "uint256",
          "name": "price",
          "type": "uint256"
        },
        {
          "internalType": "address",
          "name": "paymentToken",
          "type": "address"
        },
        {
          "internalType": "enum NFTMarketplace.ListingType",
          "name": "listingType",
          "type": "uint8"
        },
        {
          "internalType": "uint256",
          "name": "duration",
          "type": "uint256"
        },
        {
          "internalType": "uint256",
          "name": "reservePrice",
          "type": "uint256"
        }
      ],
      "name": "listNFT",
      "outputs": [
        {
          "internalType": "uint256",
          "name": "",
          "type": "uint256"
        }
      ],
      "stateMutability": "nonpayable",
      "type": "function"
    },
    {
      "inputs": [],
      "name": "listingCounter",
      "outputs": [
        {
          "internalType": "uint256",
          "name": "",
          "type": "uint256"
        }
      ],
      "stateMutability": "view",
      "type": "function"
    },
    {
      "inputs": [
        {
          "internalType": "uint256",
          "name": "",
          "type": "uint256"
        }
      ],
      "name": "listings",
      "outputs": [
        {
          "internalType": "uint256",
          "name": "id",
          "type": "uint256"
        },
        {
          "internalType": "address",
          "name": "seller",
          "type": "address"
        },
        {
          "internalType": "address",
          "name": "nftContract",
          "type": "address"
        },
        {
          "internalType": "uint256",
          "name": "tokenId",
          "type": "uint256"
        },
        {
          "internalType": "uint256",
          "name": "price",
          "type": "uint256"
        },
        {
          "internalType": "address",
          "name": "paymentToken",
          "type": "address"
        },
        {
          "internalType": "enum NFTMarketplace.ListingType",
          "name": "listingType",
          "type": "uint8"
        },
        {
          "internalType": "enum NFTMarketplace.ListingStatus",
          "name": "status",
          "type": "uint8"
        },
        {
          "internalType": "uint256",
          "name": "startTime",
          "type": "uint256"
        },
        {
          "internalType": "uint256",
          "name": "endTime",
          "type": "uint256"
        },
        {
          "internalType": "uint256",
          "name": "highestBid",
          "type": "uint256"
        },
        {
          "internalType": "address",
          "name": "highestBidder",
          "type": "address"
        },
        {
          "internalType": "uint256",
          "name": "reservePrice",
          "type": "uint256"
        },
        {
          "internalType": "bool",
          "name": "hasRoyalty",
          "type": "bool"
        },
        {
          "internalType": "address",
          "name": "royaltyRecipient",
          "type": "address"
        },
        {
          "internalType": "uint256",
          "name": "royaltyPercentage",
          "type": "uint256"
        }
      ],
      "stateMutability": "view",
      "type": "function"
    },
    {
      "inputs": [],
      "name": "owner",
      "outputs": [
        {
          "internalType": "address",
          "name": "",
          "type": "address"
        }
      ],
      "stateMutability": "view",
      "type": "function"
    },
    {
      "inputs": [
        {
          "internalType": "uint256",
          "name": "listingId",
          "type": "uint256"
        },
        {
          "internalType": "uint256",
          "name": "bidAmount",
          "type": "uint256"
        }
      ],
      "name": "placeBid",
      "outputs": [],
      "stateMutability": "payable",
      "type": "function"
    },
    {
      "inputs": [],
      "name": "platformFee",
      "outputs": [
        {
          "internalType": "uint256",
          "name": "",
          "type": "uint256"
        }
      ],
      "stateMutability": "view",
      "type": "function"
    },
    {
      "inputs": [
        {
          "internalType": "address",
          "name": "token",
          "type": "address"
        }
      ],
      "name": "removePaymentToken",
      "outputs": [],
      "stateMutability": "nonpayable",
      "type": "function"
    },
    {
      "inputs": [
        {
          "internalType": "address",
          "name": "",
          "type": "address"
        },
        {
          "internalType": "uint256",
          "name": "",
          "type": "uint256"
        }
      ],
      "name": "tokenToListing",
      "outputs": [
        {
          "internalType": "uint256",
          "name": "",
          "type": "uint256"
        }
      ],
      "stateMutability": "view",
      "type": "function"
    },
    {
      "inputs": [
        {
          "internalType": "uint256",
          "name": "newFee",
          "type": "uint256"
        }
      ],
      "name": "updatePlatformFee",
      "outputs": [],
      "stateMutability": "nonpayable",
      "type": "function"
    },
    {
      "inputs": [
        {
          "internalType": "address",
          "name": "",
          "type": "address"
        },
        {
          "internalType": "uint256",
          "name": "",
          "type": "uint256"
        }
      ],
      "name": "userListings",
      "outputs": [
        {
          "internalType": "uint256",
          "name": "",
          "type": "uint256"
        }
      ],
      "stateMutability": "view",
      "type": "function"
    },
    {
      "inputs": [
        {
          "internalType": "address",
          "name": "contractAddress",
          "type": "address"
        }
      ],
      "name": "verifyCollection",
      "outputs": [],
      "stateMutability": "nonpayable",
      "type": "function"
    }
  ],
  "bytecode": "0x6080346200012d5762002ba390601f38839003908101601f19168201906001600160401b038211838310176200013257808391604095869485528339810103126200012d5780516020909101516001600160a01b03811691908290036200012d576103e88111620000fa578115620000b65760075560018060a01b0319908160085416176008553390600954161760095560008052600560205280600020600160ff1982541617905551612a5a9081620001498239f35b825162461bcd60e51b815260206004820152601560248201527f496e76616c69642066656520726563697069656e7400000000000000000000006044820152606490fd5b825162461bcd60e51b815260206004820152600c60248201526b08ccaca40e8dede40d0d2ced60a31b6044820152606490fd5b600080fd5b634e487b7160e01b600052604160045260246000fdfe6080604052600436101561001257600080fd5b6000803560e01c8063107a274a1461227b57806326232a2e1461225d578063305a67a8146120ec5780633908cc931461209b5780633fb351781461207d57806343add2e614611fc15780634690484014611f98578063484bb24414611f595780634a7dc8e014611f0b57806351ed828814611b7357806357c90de5146117f25780635f93de49146117975780636c2c9c7d146117795780636f7b43521461173657806370b4768e1461153b57806386cfa7d3146114e55780638da5cb5b146114bc57806395ccea671461147f578063a512542114611434578063a9225d1b14611417578063aa0b5988146113aa578063ad8a7a8e14610cbd578063b73b959f14610ca0578063c2f50a7a14610c83578063de74e57b14610b84578063e637941814610aa8578063e7c54436146105db578063e8083863146101ed5763eb18a9d81461015c57600080fd5b346101ea576020806003193601126101e6576001600160a01b0361017e61241a565b168252600481526040822091604051809384918482549182815201918452848420935b858282106101d0575050506101b892500383612505565b6101cc604051928284938452830190612655565b0390f35b85548452600195860195889550930192016101a1565b5080fd5b80fd5b50346101ea5760203660031901126101ea576004351515806105cd575b6102139061277a565b60043581528060205260408120600581015460ff8160a81c1660048110156105b95761023f90156127bb565b60ff8160a01c1660038110156105b95761025a9015156128ac565b600782015442111561057d5760098201546001600160a01b031615801561056c575b156102f6575060058101805460ff60a81b1916600360a81b17905560028101546001600160a01b039081168352600360208181526040808620928501548652919052832083905560098201541690816102d457505080f35b60058101546008909101546102f39290916001600160a01b0316612926565b80f35b60ff60a81b1916600160a81b17600582015560028101546001600160a01b031682526003602081815260408085209284015485529190528220829055600881015460075490919061271090819061034d908561288c565b048491600b84015460ff81169081610556575b5061053d575b5061037a82610375838761289f565b61289f565b600284015460018501546009860154600387015493949389936001600160a01b039283169383169216803b1561053957604051632142170760e11b81526001600160a01b039384166004820152939092166024840152604483015282908290606490829084905af1801561052e57610516575b50506005840154600185015461042f936104159290916001600160a01b039081169116612926565b60058401546008546001600160a01b039081169116612926565b806104ad575b506002818101546001600160a01b0316845260205260408320600601805461045e908490612761565b905560098101546001909101546040519283526001600160a01b0390811692911690600435907f8562eb94748e30bb0071e932744ce902b460c683474fcb3bfd567ffa16b1afb290602090a480f35b6005820154600b8301546104d291839160081c6001600160a01b039081169116612926565b600b82015460405191825260081c6001600160a01b0316907fbc86de696edc3350c664d50abf25f24e7e1251f1469ad925b25fe36927270d4390602090a238610435565b61051f906124b8565b61052a5785386103ed565b8580fd5b6040513d84823e3d90fd5b8480fd5b90915061054e600c8401548561288c565b049038610366565b60081c6001600160a01b03161515905038610360565b506008820154600a8301541161027c565b60405162461bcd60e51b815260206004820152601460248201527341756374696f6e207374696c6c2061637469766560601b6044820152606490fd5b634e487b7160e01b84526021600452602484fd5b50600654600435111561020a565b50346101ea5760a03660031901126101ea576105f561241a565b60243567ffffffffffffffff8111610aa4576106159036906004016126ae565b9060443567ffffffffffffffff8111610aa0576106369036906004016126ae565b61063e612435565b61065360018060a01b036009541633146128e9565b6001600160a01b0383811686526002602052604086205416610a5b576103e860843511610a165760405191610687836124e8565b6001600160a01b0384811680855260208086018881526040808801959095529483166060870152608435608087015260a0860189905260c0860189905260e0860189905290885260029052908620835181546001600160a01b0319169216919091178155905180519192919067ffffffffffffffff8211610937578190610711600186015461244b565b601f81116109c5575b50602090601f831160011461095657889261094b575b50508160011b916000199060031b1c19161760018301555b604081015180519067ffffffffffffffff82116109375761076c600285015461244b565b601f81116108f2575b50602090601f831160011461085a577ffdd6821556e6877fa8902145ce739b09ca0e6268d635bb8b3ceaba419de364b8959383610849969460079460e0948c9261084f575b50508160011b916000199060031b1c19161760028501555b6003840160018060a01b036060830151166001600160601b0360a01b8254161790556080810151600485015561081d60a08201511515600586019060ff801983541691151516179055565b60c0810151600685015501519101556040519182916020835260018060a01b03169460208301906125cd565b0390a280f35b0151905038806107ba565b906002850188526020882091885b601f19851681106108da57509360018460079460e0947ffdd6821556e6877fa8902145ce739b09ca0e6268d635bb8b3ceaba419de364b89a986108499a98601f198116106108c1575b505050811b0160028501556107d2565b015160001960f88460031b161c191690553880806108b1565b91926020600181928685015181550194019201610868565b60028501885260208820601f840160051c810160208510610930575b601f830160051c82018110610924575050610775565b6000815560010161090e565b508061090e565b634e487b7160e01b87526041600452602487fd5b015190503880610730565b9250600185018852602088209088935b601f19841685106109aa576001945083601f19811610610991575b505050811b016001830155610748565b015160001960f88460031b161c19169055388080610981565b81810151835560209485019460019093019290910190610966565b90915060018501885260208820601f840160051c810160208510610a0f575b90849392915b601f830160051c82018110610a0057505061071a565b600081558594506001016109ea565b50806109e4565b60405162461bcd60e51b815260206004820152601b60248201527f526f79616c74792070657263656e7461676520746f6f206869676800000000006044820152606490fd5b60405162461bcd60e51b815260206004820152601960248201527f436f6c6c656374696f6e20616c726561647920657869737473000000000000006044820152606490fd5b8380fd5b8280fd5b50346101ea5760203660031901126101ea57610b6b9060e0906001600160a01b039060409082610ad661241a565b1681526002602052209060405190610aed826124e8565b808354168252610aff60018401612527565b9060208301918252610b1360028501612527565b6040840152600384015416606083015260048301549081608084015260ff6005850154161515928360a082015260076006860154958660c084015201549586910152519360405195869560a0875260a08701906125cd565b9360208601526040850152606084015260808301520390f35b50346101ea5760203660031901126101ea5760043581528060205260409020805490600160a01b6001900380600183015416918160028201541660038201546004830154600584015460068501546007860154916008870154938860098901541695600a89015497600b8a015499600c01549b604051809e81526020015260408d015260608c015260808b015287811660a08b015260c08a018160a01c60ff1690610c2e916126a1565b60e08a019060a81c60ff1690610c43916123f7565b61010089015261012088015261014087015261016086015261018085015260ff811615156101a085015260081c166101c08301526101e082015261020090f35b50346101ea57806003193601126101ea576020604051610e108152f35b50346101ea57806003193601126101ea5760206040516103848152f35b50346101ea5760e03660031901126101ea57610cd761241a565b610cdf612435565b60036084351015610aa4576040516331a9108f60e11b81526024803560048301526020908290816001600160a01b0387165afa90811561139f578491611380575b50336001600160a01b03909116036113495760405163e985e9c560e01b81523360048201523060248201526044919060208184816001600160a01b0388165afa90811561130f57859161131a575b508015611298575b15611254576001600160a01b03811684526005602052604084205460ff1615611210578135156111cc57608435611172575b610db360065461273c565b60068190556001600160a01b0384168552600260205260408086209051610dd9816124e8565b81546001600160a01b03168152610df260018301612527565b6020820152610e0360028301612527565b604082015260038201546001600160a01b03166060820152600482015460808201819052600583015460ff16151560a0830152600683015460c083015260079092015460e08201526084356111605786915b608060018060a01b036060840151169201519260405195610e7587612485565b8587523360208801526001600160a01b0389811660408901526024356060890152883560808901521660a0870152610eb260843560c0880161276e565b8860e087015242610100870152610120860152876101408601528761016086015260c43561018086015215156101a08501526101c08401526101e083015284528360205260408420908051825560018060a01b036020820151166001600160601b0360a01b6001840154161760018301556002820160018060a01b036040830151166001600160601b0360a01b825416179055606081015160038301556080810151600483015560018060a01b0360a08201511660058301549060c083015190600382101561114c5760e084015160048110156111385760a09290921b60ff60a01b166001600160b01b0319909316179190911760a89190911b60ff60a81b161760058301556101008101516006830155610120810151600783015561014081015160088301556101608101516009830180546001600160a01b0319166001600160a01b0392909216919091179055610180810151600a8301556101a0810151600b8301805491151560ff1660ff1992909216919091178155600c916101e0916101c08201518154610100600160a81b03191660089190911b610100600160a81b031617905501519101556006546001600160a01b03831684526003602090815260408086206024358752825280862083905533865260049091528420805494600160401b8610156111245750846110b1916001602097018155612689565b819291549060031b91821b91600019901b19161790556006549160405191602435835235848301526110e8604083016084356126a1565b6001600160a01b031690339083907fdff0d45892e4dbd776e8e6de5990befbab6e0baf623b2c2cebf390de3e556ee490606090a4604051908152f35b634e487b7160e01b81526041600452602490fd5b634e487b7160e01b89526021600452602489fd5b634e487b7160e01b88526021600452602488fd5b61116c60a43542612761565b91610e55565b60a435610e1081101590816111be575b50610da85760405162461bcd60e51b815260206004820152601060248201526f24b73b30b634b210323ab930ba34b7b760811b81840152606490fd5b62278d009150111538611182565b60405162461bcd60e51b815260206004820152601c60248201527f5072696365206d7573742062652067726561746572207468616e20300000000081840152606490fd5b60405162461bcd60e51b815260206004820152601a60248201527f5061796d656e7420746f6b656e206e6f7420616363657074656400000000000081840152606490fd5b60405162461bcd60e51b815260206004820152601860248201527f4d61726b6574706c616365206e6f7420617070726f766564000000000000000081840152606490fd5b5060405163020604bf60e21b81526024803560048301526020908290816001600160a01b0388165afa90811561130f5785916112e0575b506001600160a01b03163014610d76565b611302915060203d602011611308575b6112fa8183612505565b810190612705565b386112cf565b503d6112f0565b6040513d87823e3d90fd5b61133c915060203d602011611342575b6113348183612505565b810190612724565b38610d6e565b503d61132a565b60405162461bcd60e51b815260206004820152600f60248201526e2737ba103a37b5b2b71037bbb732b960891b6044820152606490fd5b611399915060203d602011611308576112fa8183612505565b38610d20565b6040513d86823e3d90fd5b50346101ea5760203660031901126101ea576004356113d460018060a01b036009541633146128e9565b6103e881116113e35760075580f35b60405162461bcd60e51b815260206004820152600c60248201526b08ccaca40e8dede40d0d2ced60a31b6044820152606490fd5b50346101ea57806003193601126101ea5760206040516103e88152f35b50346101ea5760203660031901126101ea5761144e61241a565b6009546001600160a01b03919061146890831633146128e9565b168152600560205260408120805460ff1916905580f35b50346101ea5760403660031901126101ea576102f361149c61241a565b6009546001600160a01b03166114b33382146128e9565b60243591612926565b50346101ea57806003193601126101ea576009546040516001600160a01b039091168152602090f35b50346101ea5760403660031901126101ea576114ff61241a565b6001600160a01b03168152600460205260408120805460243592908310156101ea57602061152d8484612689565b90546040519160031b1c8152f35b50346101ea576020806003193601126101e6576004358015158061172a575b6115669093929361277a565b81526001918281526040822090815461157e816129c6565b9261158c6040519485612505565b818452845281842084908385015b8383106116e357505050508151926115ca6115b4856129c6565b946115c26040519687612505565b8086526129c6565b8483019290601f19013684376115e084516129de565b916115eb85516129de565b9481885b61165b575b5050604051968796606088019060608952518091526080880195925b81811061163c57888703858a015288806101cc8a61162e8b8b612655565b908382036040850152612655565b83516001600160a01b0316875289985095840195928401928201611610565b97809394959697929882518110156116d6576116c9906001600160a01b036116838286612a10565b5151166116908287612a10565b528661169c8286612a10565b5101516116a9828a612a10565b5260406116b68286612a10565b5101516116c3828c612a10565b5261273c565b90989297969594936115ef565b50979196959493926115f4565b96600385829798996040516116f7816124cc565b85546001600160a01b0316815284860154838201526002860154604082015281529799989794909201939201910161159a565b5060065481111561155a565b50346101ea5760403660031901126101ea576020906040906001600160a01b0361175e61241a565b16815260038352818120602435825283522054604051908152f35b50346101ea57806003193601126101ea576020600654604051908152f35b50346101ea576117a63661260d565b919081526001602052604081209081548310156101ea5760606117c98484612623565b5060018060a01b0381541690600260018201549101549060405192835260208301526040820152f35b506117fc3661260d565b9080151580611b67575b61180f9061277a565b8083526020838152604084206005810180549160ff8360a81c16600481101561114c5761183c90156127bb565b60ff8360a01c16600381101561114c576118579015156128ac565b600781019283544211611b325760018201546001600160a01b03929083163314611af557600881018054909290801580611ae95760058202908282046005141715611ad5579060646118aa920490612761565b8910611aa257908987858b9594168015600014611a2d575050506009906118d384341015612848565b0193838554168481611a16575b505050556001600160601b0360a01b91338382541617905584875260018452604087209060405192611911846124cc565b338452858401918883526040850193428552805490600160401b821015611a02579061194291600182018155612623565b9590956119ee5790600294939291511690855416178455516001840155519101556103848061197242845461289f565b106119a8575b50507f0e54eff26401bf69b81b26f60bd85ef47f5d85275c1d268d84f68d6897431c47906040519384523393a380f35b4201908142116119da57557f0e54eff26401bf69b81b26f60bd85ef47f5d85275c1d268d84f68d6897431c4738611978565b634e487b7160e01b86526011600452602486fd5b634e487b7160e01b8b5260048b905260248bfd5b634e487b7160e01b8c52604160045260248cfd5b611a2592541690835491612926565b3880846118e0565b6040516323b872dd60e01b815233600482015230602482015260448101969096529091859160649183915af1908115611a9757611a756009928b958d91611a7a575b506127fc565b6118d3565b611a9191508a3d8c11611342576113348183612505565b38611a6f565b6040513d8c823e3d90fd5b60405162461bcd60e51b815260048101889052600b60248201526a42696420746f6f206c6f7760a81b6044820152606490fd5b634e487b7160e01b8c52601160045260248cfd5b5050600a8201546118aa565b60405162461bcd60e51b815260048101879052601560248201527410d85b9b9bdd08189a59081bdb881bdddb88139195605a1b6044820152606490fd5b60405162461bcd60e51b815260048101869052600d60248201526c105d58dd1a5bdb88195b991959609a1b6044820152606490fd5b50600654811115611806565b506020806003193601126101e65760043580151580611eff575b611b969061277a565b8083528282526040832090600582019182549260ff8460a81c166004811015611eeb57611bc390156127bb565b60ff8460a01c166003811015611eeb57611ea657600182019060018060a01b0392838354163314611e6c57600481015495841680611e015750611c0886341015612848565b600160a81b60ff60a81b198354161782556002810191848354168952600388526040892091600381019283548b5289528960408120556127109283611c4f6007548b61288c565b04908b94600b84019384548a60ff82169182611df2575b5050611dd8575b5050611c7d85610375848d61289f565b908c898854168a8a5416925490803b15610aa457604051632142170760e11b81526001600160a01b0394909416600485015233602485015260448401919091528290606490829084905af18015611dcd57611da7575b5087809796949293611d24829795611d158f957f8562eb94748e30bb0071e932744ce902b460c683474fcb3bfd567ffa16b1afb29d885416868d541690612926565b83865416846008541690612926565b84611d5a575b5050505050541687526002865260066040882001611d49868254612761565b90555416936040519384523393a480f35b611d9085837fbc86de696edc3350c664d50abf25f24e7e1251f1469ad925b25fe36927270d4396541684845460081c1690612926565b5460081c1692604051908152a23880898482611d2a565b97809796949298938c929d611dbd8398966124b8565b9d92509395509791939596611cd3565b6040513d8f823e3d90fd5b611de991929650600c01548b61288c565b04933880611c6d565b60081c16151590508a38611c66565b6040516323b872dd60e01b815233600482015230602482015260448101889052908890829060649082908d905af18015611e6157611e45918a91611e4a57506127fc565b611c08565b611a919150893d8b11611342576113348183612505565b6040513d8b823e3d90fd5b60405162461bcd60e51b815260048101889052601260248201527110d85b9b9bdd08189d5e481bdddb8813919560721b6044820152606490fd5b60405162461bcd60e51b815260048101869052601960248201527f4e6f742061206669786564207072696365206c697374696e67000000000000006044820152606490fd5b634e487b7160e01b87526021600452602487fd5b50600654811115611b8d565b50346101ea5760203660031901126101ea57611f2561241a565b6009546001600160a01b039190611f3f90831633146128e9565b168152600560205260408120805460ff1916600117905580f35b50346101ea5760203660031901126101ea5760209060ff906040906001600160a01b03611f8461241a565b168152600584522054166040519015158152f35b50346101ea57806003193601126101ea576008546040516001600160a01b039091168152602090f35b50346101ea5760203660031901126101ea576001600160a01b039060409082611fe861241a565b168152600260205220818154169061200260018201612527565b9261200f60028301612527565b9060038301541691600481015460ff6005830154169061205d600760068501549401549461204f604051998a998a526101008060208c01528a01906125cd565b9088820360408a01526125cd565b9460608701526080860152151560a085015260c084015260e08301520390f35b50346101ea57806003193601126101ea57602060405162278d008152f35b50346101ea5760203660031901126101ea576120b561241a565b6009546001600160a01b0391906120cf90831633146128e9565b168152600260205260408120600501805460ff1916600117905580f35b50346101ea576020806003193601126101e6576004359081151580612251575b6121159061277a565b81835282815260408320600101546001600160a01b0391908216330361221c5782845283815260408420906005820190815460ff8160a81c16600481101561114c5761216190156127bb565b600160a91b9060ff60a81b19161782558360028401541686526003815260408620906003840154875252846040812055549060ff8260a01c166003811015612208571515806121f9575b6121da575b5050507f411aee90354c51b1b04cd563fcab2617142a9d50da19232d888547c8a1b7fd8a8280a280f35b8260086121f1946009840154169201549216612926565b3880806121b0565b508260098201541615156121ab565b634e487b7160e01b86526021600452602486fd5b6064906040519062461bcd60e51b82526004820152600e60248201526d2737ba103a34329039b2b63632b960911b6044820152fd5b5060065482111561210c565b50346101ea57806003193601126101ea576020600754604051908152f35b50346101ea5760203660031901126101ea57600435801515806123eb575b6122a29061277a565b8152806020526040812090604051916122ba83612485565b8054835260018060a01b0392836001830154166020820190815284600284015416936040830194855260038401546060840190815260048501546080850190815260ff600587015489811660a088015261231c828260a01c1660c0890161276e565b60a81c169260048410156123d757508260e086015260068601549761010098898701528060078801549586610120890152600889015497886101408201528260098b015416998a610160830152600a81015461018083015283600b82015460ff811615156101a085015260081c166101c0830152600c0154906101e0015251169751169151905191604051978852602088015260408701526060860152608085016123c6916123f7565b60a084015260c083015260e0820152f35b634e487b7160e01b81526021600452602490fd5b50600654811115612299565b9060048210156124045752565b634e487b7160e01b600052602160045260246000fd5b600435906001600160a01b038216820361243057565b600080fd5b606435906001600160a01b038216820361243057565b90600182811c9216801561247b575b602083101461246557565b634e487b7160e01b600052602260045260246000fd5b91607f169161245a565b610200810190811067ffffffffffffffff8211176124a257604052565b634e487b7160e01b600052604160045260246000fd5b67ffffffffffffffff81116124a257604052565b6060810190811067ffffffffffffffff8211176124a257604052565b610100810190811067ffffffffffffffff8211176124a257604052565b90601f8019910116810190811067ffffffffffffffff8211176124a257604052565b906040519182600082549261253b8461244b565b9081845260019485811690816000146125aa5750600114612567575b505061256592500383612505565b565b9093915060005260209081600020936000915b81831061259257505061256593508201013880612557565b8554888401850152948501948794509183019161257a565b91505061256594506020925060ff191682840152151560051b8201013880612557565b919082519283825260005b8481106125f9575050826000602080949584010152601f8019910116010190565b6020818301810151848301820152016125d8565b6040906003190112612430576004359060243590565b805482101561263f576000526003602060002091020190600090565b634e487b7160e01b600052603260045260246000fd5b90815180825260208080930193019160005b828110612675575050505090565b835185529381019392810192600101612667565b805482101561263f5760005260206000200190600090565b9060038210156124045752565b81601f820112156124305780359067ffffffffffffffff82116124a257604051926126e3601f8401601f191660200185612505565b8284526020838301011161243057816000926020809301838601378301015290565b9081602091031261243057516001600160a01b03811681036124305790565b90816020910312612430575180151581036124305790565b600019811461274b5760010190565b634e487b7160e01b600052601160045260246000fd5b9190820180921161274b57565b60038210156124045752565b1561278157565b60405162461bcd60e51b8152602060048201526012602482015271125b9d985b1a59081b1a5cdd1a5b99c8125160721b6044820152606490fd5b156127c257565b60405162461bcd60e51b81526020600482015260126024820152714c697374696e67206e6f742061637469766560701b6044820152606490fd5b1561280357565b60405162461bcd60e51b815260206004820152601760248201527f5061796d656e74207472616e73666572206661696c65640000000000000000006044820152606490fd5b1561284f57565b60405162461bcd60e51b8152602060048201526015602482015274125b9cdd59999a58da595b9d08115512081cd95b9d605a1b6044820152606490fd5b8181029291811591840414171561274b57565b9190820391821161274b57565b156128b357565b60405162461bcd60e51b815260206004820152600e60248201526d2737ba1030b71030bab1ba34b7b760911b6044820152606490fd5b156128f057565b60405162461bcd60e51b815260206004820152600e60248201526d139bdd08185d5d1a1bdc9a5e995960921b6044820152606490fd5b9082156129c1576001600160a01b039182168061295e57506000808094819482941682f1156129525750565b604051903d90823e3d90fd5b602092916000604492604051968795869463a9059cbb60e01b865216600485015260248401525af180156129b5576125659160009161299d57506127fc565b611a91915060203d8111611342576113348183612505565b6040513d6000823e3d90fd5b505050565b67ffffffffffffffff81116124a25760051b60200190565b906129e8826129c6565b6129f56040519182612505565b8281528092612a06601f19916129c6565b0190602036910137565b805182101561263f5760209160051b01019056fea2646970667358221220ac6f92b629eb590041a813898225d0a9420ea5e224e382bb048ac269aca72b1864736f6c63430008130033",
  "linkReferences": {},
  "deployedLinkReferences": {}
}